{
  "contractName": "FakeGame",
  "abi": [
    {
      "inputs": [
        {
          "internalType": "address",
          "name": "must",
          "type": "address"
        },
        {
          "internalType": "address",
          "name": "staked",
          "type": "address"
        }
      ],
      "stateMutability": "nonpayable",
      "type": "constructor"
    },
    {
      "inputs": [
        {
          "internalType": "uint256",
          "name": "tokenId",
          "type": "uint256"
        }
      ],
      "name": "enter",
      "outputs": [],
      "stateMutability": "nonpayable",
      "type": "function"
    },
    {
      "inputs": [
        {
          "internalType": "uint256",
          "name": "tokenId",
          "type": "uint256"
        }
      ],
      "name": "leave",
      "outputs": [],
      "stateMutability": "nonpayable",
      "type": "function"
    }
  ],
  "bytecode": "0x608060405266038d7ea4c6800060035534801561001b57600080fd5b506040516105dc3803806105dc833981810160405281019061003d91906100db565b81600160006101000a81548173ffffffffffffffffffffffffffffffffffffffff021916908373ffffffffffffffffffffffffffffffffffffffff16021790555080600260006101000a81548173ffffffffffffffffffffffffffffffffffffffff021916908373ffffffffffffffffffffffffffffffffffffffff1602179055505050610160565b6000815190506100d581610149565b92915050565b600080604083850312156100ee57600080fd5b60006100fc858286016100c6565b925050602061010d858286016100c6565b9150509250929050565b600061012282610129565b9050919050565b600073ffffffffffffffffffffffffffffffffffffffff82169050919050565b61015281610117565b811461015d57600080fd5b50565b61046d8061016f6000396000f3fe608060405234801561001057600080fd5b50600436106100365760003560e01c806367dfd4c91461003b578063a59f3e0c14610057575b600080fd5b61005560048036038101906100509190610311565b610073565b005b610071600480360381019061006c9190610311565b610228565b005b60008082815260200190815260200160002060009054906101000a900460ff1661009c57600080fd5b600080600083815260200190815260200160002060006101000a81548160ff021916908315150217905550600160009054906101000a900473ffffffffffffffffffffffffffffffffffffffff1673ffffffffffffffffffffffffffffffffffffffff166323b872dd600260009054906101000a900473ffffffffffffffffffffffffffffffffffffffff1673ffffffffffffffffffffffffffffffffffffffff16636352211e846040518263ffffffff1660e01b8152600401610160919061038f565b60206040518083038186803b15801561017857600080fd5b505afa15801561018c573d6000803e3d6000fd5b505050506040513d601f19601f820116820180604052508101906101b091906102bf565b306003546040518463ffffffff1660e01b81526004016101d293929190610358565b602060405180830381600087803b1580156101ec57600080fd5b505af1158015610200573d6000803e3d6000fd5b505050506040513d601f19601f8201168201806040525081019061022491906102e8565b5050565b60008082815260200190815260200160002060009054906101000a900460ff161561025257600080fd5b600160008083815260200190815260200160002060006101000a81548160ff02191690831515021790555050565b60008151905061028f816103f2565b92915050565b6000815190506102a481610409565b92915050565b6000813590506102b981610420565b92915050565b6000602082840312156102d157600080fd5b60006102df84828501610280565b91505092915050565b6000602082840312156102fa57600080fd5b600061030884828501610295565b91505092915050565b60006020828403121561032357600080fd5b6000610331848285016102aa565b91505092915050565b610343816103aa565b82525050565b610352816103e8565b82525050565b600060608201905061036d600083018661033a565b61037a602083018561033a565b6103876040830184610349565b949350505050565b60006020820190506103a46000830184610349565b92915050565b60006103b5826103c8565b9050919050565b60008115159050919050565b600073ffffffffffffffffffffffffffffffffffffffff82169050919050565b6000819050919050565b6103fb816103aa565b811461040657600080fd5b50565b610412816103bc565b811461041d57600080fd5b50565b610429816103e8565b811461043457600080fd5b5056fea2646970667358221220055edd3bfe61f67a19a7c5d20932a444543eec7cd27d6874f8cd6c65548a109964736f6c634300060c0033",
  "immutableReferences": {},
  "source": "// SPDX-License-Identifier: MIT\nimport \"./interface/IGame.sol\";\nimport \"@openzeppelin/contracts/token/ERC721/IERC721.sol\";\nimport \"@openzeppelin/contracts/token/ERC20/IERC20.sol\";\n\npragma solidity ^0.6.0;\npragma experimental ABIEncoderV2;\n\ncontract FakeGame is IGame {\n    mapping(uint256 => bool) private inGame;\n    IERC20 _must;\n    IERC721 _staked;\n    uint256 _leaveFee = 1000000000000000;\n\n    constructor(address must, address staked) public {\n        _must = IERC20(must);\n        _staked = IERC721(staked);\n    }\n\n    function enter(uint256 tokenId) override external {\n        require(!inGame[tokenId]);\n        inGame[tokenId] = true;\n    }\n\n    function leave(uint256 tokenId) override external {\n        require(inGame[tokenId]);\n        inGame[tokenId] = false;\n        _must.transferFrom(\n            _staked.ownerOf(tokenId),\n            address(this),\n            _leaveFee\n        );\n    }\n}\n",
  "sourcePath": "/Users/fred/Documents/projets/cometh-renting-contract/contracts/Test/FakeGame.sol",
  "compiler": {
    "name": "solc",
    "version": "0.6.12+commit.27d51765.Emscripten.clang"
  },
  "schemaVersion": "3.3.3",
  "updatedAt": "2021-03-23T10:24:42.803Z",
  "devdoc": {
    "kind": "dev",
    "methods": {},
    "version": 1
  },
  "userdoc": {
    "kind": "user",
    "methods": {},
    "version": 1
  }
}