{
  "contractName": "RentingContractFactory",
  "abi": [
    {
      "inputs": [
        {
          "internalType": "address",
          "name": "mustAddress",
          "type": "address"
        },
        {
          "internalType": "address",
          "name": "spaceshipsAddress",
          "type": "address"
        },
        {
          "internalType": "address",
          "name": "stakedSpaceShipsAddress",
          "type": "address"
        },
        {
          "internalType": "address",
          "name": "mustManagerAddress",
          "type": "address"
        }
      ],
      "stateMutability": "nonpayable",
      "type": "constructor"
    },
    {
      "anonymous": false,
      "inputs": [
        {
          "indexed": false,
          "internalType": "uint256",
          "name": "offerId",
          "type": "uint256"
        },
        {
          "indexed": false,
          "internalType": "address",
          "name": "lender",
          "type": "address"
        },
        {
          "indexed": false,
          "internalType": "address",
          "name": "tenant",
          "type": "address"
        },
        {
          "indexed": false,
          "internalType": "address",
          "name": "rentingContract",
          "type": "address"
        }
      ],
      "name": "OfferAccepted",
      "type": "event"
    },
    {
      "anonymous": false,
      "inputs": [
        {
          "indexed": false,
          "internalType": "uint256",
          "name": "offerId",
          "type": "uint256"
        },
        {
          "indexed": false,
          "internalType": "address",
          "name": "lender",
          "type": "address"
        },
        {
          "indexed": false,
          "internalType": "uint256[]",
          "name": "nftIds",
          "type": "uint256[]"
        },
        {
          "indexed": false,
          "internalType": "uint256",
          "name": "percentageForLender",
          "type": "uint256"
        },
        {
          "indexed": false,
          "internalType": "uint256",
          "name": "fee",
          "type": "uint256"
        }
      ],
      "name": "OfferNew",
      "type": "event"
    },
    {
      "anonymous": false,
      "inputs": [
        {
          "indexed": false,
          "internalType": "uint256",
          "name": "offerId",
          "type": "uint256"
        },
        {
          "indexed": false,
          "internalType": "address",
          "name": "lender",
          "type": "address"
        }
      ],
      "name": "OfferRemoved",
      "type": "event"
    },
    {
      "anonymous": false,
      "inputs": [
        {
          "indexed": false,
          "internalType": "address",
          "name": "rentingContract",
          "type": "address"
        },
        {
          "indexed": false,
          "internalType": "address",
          "name": "lender",
          "type": "address"
        },
        {
          "indexed": false,
          "internalType": "address",
          "name": "tenant",
          "type": "address"
        }
      ],
      "name": "RentingContractClosed",
      "type": "event"
    },
    {
      "inputs": [],
      "name": "feeReceiver",
      "outputs": [
        {
          "internalType": "address",
          "name": "",
          "type": "address"
        }
      ],
      "stateMutability": "view",
      "type": "function",
      "constant": true
    },
    {
      "inputs": [],
      "name": "must",
      "outputs": [
        {
          "internalType": "address",
          "name": "",
          "type": "address"
        }
      ],
      "stateMutability": "view",
      "type": "function",
      "constant": true
    },
    {
      "inputs": [],
      "name": "mustManager",
      "outputs": [
        {
          "internalType": "address",
          "name": "",
          "type": "address"
        }
      ],
      "stateMutability": "view",
      "type": "function",
      "constant": true
    },
    {
      "inputs": [],
      "name": "serviceFeeMin",
      "outputs": [
        {
          "internalType": "uint256",
          "name": "",
          "type": "uint256"
        }
      ],
      "stateMutability": "view",
      "type": "function",
      "constant": true
    },
    {
      "inputs": [],
      "name": "serviceFeePercentage",
      "outputs": [
        {
          "internalType": "uint256",
          "name": "",
          "type": "uint256"
        }
      ],
      "stateMutability": "view",
      "type": "function",
      "constant": true
    },
    {
      "inputs": [],
      "name": "spaceships",
      "outputs": [
        {
          "internalType": "address",
          "name": "",
          "type": "address"
        }
      ],
      "stateMutability": "view",
      "type": "function",
      "constant": true
    },
    {
      "inputs": [],
      "name": "stakedSpaceShips",
      "outputs": [
        {
          "internalType": "address",
          "name": "",
          "type": "address"
        }
      ],
      "stateMutability": "view",
      "type": "function",
      "constant": true
    },
    {
      "inputs": [
        {
          "internalType": "address",
          "name": "",
          "type": "address"
        },
        {
          "internalType": "address",
          "name": "",
          "type": "address"
        },
        {
          "internalType": "uint256",
          "name": "",
          "type": "uint256"
        },
        {
          "internalType": "bytes",
          "name": "",
          "type": "bytes"
        }
      ],
      "name": "onERC721Received",
      "outputs": [
        {
          "internalType": "bytes4",
          "name": "",
          "type": "bytes4"
        }
      ],
      "stateMutability": "nonpayable",
      "type": "function"
    },
    {
      "inputs": [
        {
          "internalType": "uint256[]",
          "name": "nftIds",
          "type": "uint256[]"
        },
        {
          "internalType": "uint256",
          "name": "duration",
          "type": "uint256"
        },
        {
          "internalType": "uint256",
          "name": "percentageForLender",
          "type": "uint256"
        },
        {
          "internalType": "uint256",
          "name": "fee",
          "type": "uint256"
        }
      ],
      "name": "makeOffer",
      "outputs": [
        {
          "internalType": "uint256",
          "name": "id",
          "type": "uint256"
        }
      ],
      "stateMutability": "nonpayable",
      "type": "function"
    },
    {
      "inputs": [
        {
          "internalType": "uint256",
          "name": "offerId",
          "type": "uint256"
        }
      ],
      "name": "removeOffer",
      "outputs": [],
      "stateMutability": "nonpayable",
      "type": "function"
    },
    {
      "inputs": [
        {
          "internalType": "uint256",
          "name": "offerId",
          "type": "uint256"
        }
      ],
      "name": "acceptOffer",
      "outputs": [
        {
          "internalType": "address",
          "name": "",
          "type": "address"
        }
      ],
      "stateMutability": "nonpayable",
      "type": "function"
    },
    {
      "inputs": [],
      "name": "closeRenting",
      "outputs": [],
      "stateMutability": "nonpayable",
      "type": "function"
    },
    {
      "inputs": [
        {
          "internalType": "uint256",
          "name": "newFee",
          "type": "uint256"
        }
      ],
      "name": "updateLeaveFee",
      "outputs": [],
      "stateMutability": "nonpayable",
      "type": "function"
    },
    {
      "inputs": [
        {
          "internalType": "address",
          "name": "newFeeReceiver",
          "type": "address"
        },
        {
          "internalType": "uint256",
          "name": "newFeePercentage",
          "type": "uint256"
        },
        {
          "internalType": "uint256",
          "name": "newMinFee",
          "type": "uint256"
        }
      ],
      "name": "updateServiceFee",
      "outputs": [],
      "stateMutability": "nonpayable",
      "type": "function"
    },
    {
      "inputs": [],
      "name": "offerAmount",
      "outputs": [
        {
          "internalType": "uint256",
          "name": "",
          "type": "uint256"
        }
      ],
      "stateMutability": "view",
      "type": "function",
      "constant": true
    },
    {
      "inputs": [],
      "name": "rentingAmount",
      "outputs": [
        {
          "internalType": "uint256",
          "name": "",
          "type": "uint256"
        }
      ],
      "stateMutability": "view",
      "type": "function",
      "constant": true
    },
    {
      "inputs": [
        {
          "internalType": "uint256",
          "name": "id",
          "type": "uint256"
        }
      ],
      "name": "offer",
      "outputs": [
        {
          "components": [
            {
              "internalType": "uint256",
              "name": "id",
              "type": "uint256"
            },
            {
              "internalType": "uint256[]",
              "name": "nftIds",
              "type": "uint256[]"
            },
            {
              "internalType": "address",
              "name": "lender",
              "type": "address"
            },
            {
              "internalType": "uint256",
              "name": "duration",
              "type": "uint256"
            },
            {
              "internalType": "uint256",
              "name": "percentageForLender",
              "type": "uint256"
            },
            {
              "internalType": "uint256",
              "name": "fee",
              "type": "uint256"
            }
          ],
          "internalType": "struct IRentingContractFactory.Offer",
          "name": "",
          "type": "tuple"
        }
      ],
      "stateMutability": "view",
      "type": "function",
      "constant": true
    },
    {
      "inputs": [
        {
          "internalType": "address",
          "name": "lender",
          "type": "address"
        }
      ],
      "name": "offersOf",
      "outputs": [
        {
          "components": [
            {
              "internalType": "uint256",
              "name": "id",
              "type": "uint256"
            },
            {
              "internalType": "uint256[]",
              "name": "nftIds",
              "type": "uint256[]"
            },
            {
              "internalType": "address",
              "name": "lender",
              "type": "address"
            },
            {
              "internalType": "uint256",
              "name": "duration",
              "type": "uint256"
            },
            {
              "internalType": "uint256",
              "name": "percentageForLender",
              "type": "uint256"
            },
            {
              "internalType": "uint256",
              "name": "fee",
              "type": "uint256"
            }
          ],
          "internalType": "struct IRentingContractFactory.Offer[]",
          "name": "",
          "type": "tuple[]"
        }
      ],
      "stateMutability": "view",
      "type": "function",
      "constant": true
    },
    {
      "inputs": [
        {
          "internalType": "address",
          "name": "id",
          "type": "address"
        }
      ],
      "name": "renting",
      "outputs": [
        {
          "components": [
            {
              "internalType": "address",
              "name": "id",
              "type": "address"
            },
            {
              "internalType": "uint256[]",
              "name": "nftIds",
              "type": "uint256[]"
            },
            {
              "internalType": "address",
              "name": "lender",
              "type": "address"
            },
            {
              "internalType": "address",
              "name": "tenant",
              "type": "address"
            },
            {
              "internalType": "uint256",
              "name": "start",
              "type": "uint256"
            },
            {
              "internalType": "uint256",
              "name": "end",
              "type": "uint256"
            },
            {
              "internalType": "uint256",
              "name": "percentageForLender",
              "type": "uint256"
            }
          ],
          "internalType": "struct IRentingContractFactory.Renting",
          "name": "",
          "type": "tuple"
        }
      ],
      "stateMutability": "view",
      "type": "function",
      "constant": true
    },
    {
      "inputs": [
        {
          "internalType": "address",
          "name": "lender",
          "type": "address"
        }
      ],
      "name": "rentingsGrantedOf",
      "outputs": [
        {
          "components": [
            {
              "internalType": "address",
              "name": "id",
              "type": "address"
            },
            {
              "internalType": "uint256[]",
              "name": "nftIds",
              "type": "uint256[]"
            },
            {
              "internalType": "address",
              "name": "lender",
              "type": "address"
            },
            {
              "internalType": "address",
              "name": "tenant",
              "type": "address"
            },
            {
              "internalType": "uint256",
              "name": "start",
              "type": "uint256"
            },
            {
              "internalType": "uint256",
              "name": "end",
              "type": "uint256"
            },
            {
              "internalType": "uint256",
              "name": "percentageForLender",
              "type": "uint256"
            }
          ],
          "internalType": "struct IRentingContractFactory.Renting[]",
          "name": "",
          "type": "tuple[]"
        }
      ],
      "stateMutability": "view",
      "type": "function",
      "constant": true
    },
    {
      "inputs": [
        {
          "internalType": "address",
          "name": "tenant",
          "type": "address"
        }
      ],
      "name": "rentingsReceivedOf",
      "outputs": [
        {
          "components": [
            {
              "internalType": "address",
              "name": "id",
              "type": "address"
            },
            {
              "internalType": "uint256[]",
              "name": "nftIds",
              "type": "uint256[]"
            },
            {
              "internalType": "address",
              "name": "lender",
              "type": "address"
            },
            {
              "internalType": "address",
              "name": "tenant",
              "type": "address"
            },
            {
              "internalType": "uint256",
              "name": "start",
              "type": "uint256"
            },
            {
              "internalType": "uint256",
              "name": "end",
              "type": "uint256"
            },
            {
              "internalType": "uint256",
              "name": "percentageForLender",
              "type": "uint256"
            }
          ],
          "internalType": "struct IRentingContractFactory.Renting[]",
          "name": "",
          "type": "tuple[]"
        }
      ],
      "stateMutability": "view",
      "type": "function",
      "constant": true
    },
    {
      "inputs": [
        {
          "internalType": "uint256",
          "name": "start",
          "type": "uint256"
        },
        {
          "internalType": "uint256",
          "name": "amount",
          "type": "uint256"
        }
      ],
      "name": "offersPaginated",
      "outputs": [
        {
          "components": [
            {
              "internalType": "uint256",
              "name": "id",
              "type": "uint256"
            },
            {
              "internalType": "uint256[]",
              "name": "nftIds",
              "type": "uint256[]"
            },
            {
              "internalType": "address",
              "name": "lender",
              "type": "address"
            },
            {
              "internalType": "uint256",
              "name": "duration",
              "type": "uint256"
            },
            {
              "internalType": "uint256",
              "name": "percentageForLender",
              "type": "uint256"
            },
            {
              "internalType": "uint256",
              "name": "fee",
              "type": "uint256"
            }
          ],
          "internalType": "struct IRentingContractFactory.Offer[]",
          "name": "",
          "type": "tuple[]"
        }
      ],
      "stateMutability": "view",
      "type": "function",
      "constant": true
    },
    {
      "inputs": [
        {
          "internalType": "uint256",
          "name": "start",
          "type": "uint256"
        },
        {
          "internalType": "uint256",
          "name": "amount",
          "type": "uint256"
        }
      ],
      "name": "rentingsPaginated",
      "outputs": [
        {
          "components": [
            {
              "internalType": "address",
              "name": "id",
              "type": "address"
            },
            {
              "internalType": "uint256[]",
              "name": "nftIds",
              "type": "uint256[]"
            },
            {
              "internalType": "address",
              "name": "lender",
              "type": "address"
            },
            {
              "internalType": "address",
              "name": "tenant",
              "type": "address"
            },
            {
              "internalType": "uint256",
              "name": "start",
              "type": "uint256"
            },
            {
              "internalType": "uint256",
              "name": "end",
              "type": "uint256"
            },
            {
              "internalType": "uint256",
              "name": "percentageForLender",
              "type": "uint256"
            }
          ],
          "internalType": "struct IRentingContractFactory.Renting[]",
          "name": "",
          "type": "tuple[]"
        }
      ],
      "stateMutability": "view",
      "type": "function",
      "constant": true
    }
  ],
  "bytecode": "0x608060405266038d7ea4c680006009556005601055660110d9316ec0006011553480156200002c57600080fd5b50604051620061f3380380620061f38339818101604052810190620000529190620001f9565b33600a60006101000a81548173ffffffffffffffffffffffffffffffffffffffff021916908373ffffffffffffffffffffffffffffffffffffffff16021790555083600d60006101000a81548173ffffffffffffffffffffffffffffffffffffffff021916908373ffffffffffffffffffffffffffffffffffffffff16021790555082600b60006101000a81548173ffffffffffffffffffffffffffffffffffffffff021916908373ffffffffffffffffffffffffffffffffffffffff16021790555081600c60006101000a81548173ffffffffffffffffffffffffffffffffffffffff021916908373ffffffffffffffffffffffffffffffffffffffff16021790555080600e60006101000a81548173ffffffffffffffffffffffffffffffffffffffff021916908373ffffffffffffffffffffffffffffffffffffffff16021790555033600f60006101000a81548173ffffffffffffffffffffffffffffffffffffffff021916908373ffffffffffffffffffffffffffffffffffffffff16021790555050505050620002b3565b600081519050620001f38162000299565b92915050565b600080600080608085870312156200021057600080fd5b60006200022087828801620001e2565b94505060206200023387828801620001e2565b93505060406200024687828801620001e2565b92505060606200025987828801620001e2565b91505092959194509250565b6000620002728262000279565b9050919050565b600073ffffffffffffffffffffffffffffffffffffffff82169050919050565b620002a48162000265565b8114620002b057600080fd5b50565b615f3080620002c36000396000f3fe60806040523480156200001157600080fd5b50600436106200016c5760003560e01c80639acfe6ef11620000d5578063cb8694a31162000087578063cb8694a3146200044f578063cbfcce36146200046f578063cd0c62351462000491578063dadb3b8f14620004b3578063ece3582914620004e9578063fa04a1aa14620004f5576200016c565b80639acfe6ef1462000347578063a98151891462000369578063b3f00674146200039f578063b858fc7e14620003c1578063b8974d5514620003f7578063c815729d1462000419576200016c565b80633c6d30fa116200012f5780633c6d30fa14620002435780633cbd3b371462000263578063603ef6491462000299578063761610fc14620002bb578063770721e114620002f157806395a0f9c71462000327576200016c565b8063132a202e1462000171578063133a50841462000193578063150b7a0214620001b557806324f0942d14620001eb57806339db55a5146200020d575b600080fd5b6200017b6200052b565b6040516200018a91906200395a565b60405180910390f35b6200019d62000531565b604051620001ac919062003633565b60405180910390f35b620001d36004803603810190620001cd919062002c89565b62000557565b604051620001e29190620037e5565b60405180910390f35b620001f5620005ff565b60405162000204919062003633565b60405180910390f35b6200022b600480360381019062000225919062002c31565b62000625565b6040516200023a9190620037c1565b60405180910390f35b6200026160048036038101906200025b919062002d13565b620007aa565b005b6200028160048036038101906200027b919062002c31565b6200089d565b60405162000290919062003936565b60405180910390f35b620002a362000c8c565b604051620002b291906200395a565b60405180910390f35b620002d96004803603810190620002d3919062002e64565b62000c92565b604051620002e8919062003912565b60405180910390f35b6200030f600480360381019062000309919062002ebc565b62000df1565b6040516200031e9190620037c1565b60405180910390f35b6200034560048036038101906200033f919062002e64565b62000eac565b005b62000351620010a2565b60405162000360919062003633565b60405180910390f35b62000387600480360381019062000381919062002c31565b620010c8565b604051620003969190620037c1565b60405180910390f35b620003a96200124d565b604051620003b8919062003633565b60405180910390f35b620003df6004803603810190620003d9919062002ebc565b62001273565b604051620003ee91906200379d565b60405180910390f35b6200040162001419565b6040516200041091906200395a565b60405180910390f35b62000437600480360381019062000431919062002e64565b6200142c565b60405162000446919062003633565b60405180910390f35b6200046d600480360381019062000467919062002e64565b620016df565b005b6200047962001744565b6040516200048891906200395a565b60405180910390f35b6200049b62001757565b604051620004aa919062003633565b60405180910390f35b620004d16004803603810190620004cb919062002d69565b6200177d565b604051620004e091906200395a565b60405180910390f35b620004f3620018ff565b005b6200051360048036038101906200050d919062002c31565b62001cee565b6040516200052291906200379d565b60405180910390f35b60115481565b600e60009054906101000a900473ffffffffffffffffffffffffffffffffffffffff1681565b6000600b60009054906101000a900473ffffffffffffffffffffffffffffffffffffffff1673ffffffffffffffffffffffffffffffffffffffff163373ffffffffffffffffffffffffffffffffffffffff1614620005ec576040517f08c379a0000000000000000000000000000000000000000000000000000000008152600401620005e3906200388a565b60405180910390fd5b63150b7a0260e01b905095945050505050565b600b60009054906101000a900473ffffffffffffffffffffffffffffffffffffffff1681565b60608062000671600760008573ffffffffffffffffffffffffffffffffffffffff1673ffffffffffffffffffffffffffffffffffffffff16815260200190815260200160002062001f5e565b67ffffffffffffffff811180156200068857600080fd5b50604051908082528060200260200182016040528015620006c657816020015b620006b26200292a565b815260200190600190039081620006a85790505b50905060005b62000715600760008673ffffffffffffffffffffffffffffffffffffffff1673ffffffffffffffffffffffffffffffffffffffff16815260200190815260200160002062001f5e565b811015620007a0576200077a6200077482600760008873ffffffffffffffffffffffffffffffffffffffff1673ffffffffffffffffffffffffffffffffffffffff16815260200190815260200160002062001f7590919063ffffffff16565b6200089d565b8282815181106200078757fe5b60200260200101819052508080600101915050620006cc565b5080915050919050565b600a60009054906101000a900473ffffffffffffffffffffffffffffffffffffffff1673ffffffffffffffffffffffffffffffffffffffff163373ffffffffffffffffffffffffffffffffffffffff16146200080557600080fd5b600073ffffffffffffffffffffffffffffffffffffffff168373ffffffffffffffffffffffffffffffffffffffff16146200087c5782600f60006101000a81548173ffffffffffffffffffffffffffffffffffffffff021916908373ffffffffffffffffffffffffffffffffffffffff1602179055505b606482106200088a57600080fd5b8160108190555080601181905550505050565b620008a76200292a565b620008bd82600562001f9190919063ffffffff16565b620008ff576040517f08c379a0000000000000000000000000000000000000000000000000000000008152600401620008f69062003846565b60405180910390fd5b60008290506040518060e001604052808473ffffffffffffffffffffffffffffffffffffffff1681526020018273ffffffffffffffffffffffffffffffffffffffff1663ddfe867f6040518163ffffffff1660e01b815260040160006040518083038186803b1580156200097257600080fd5b505afa15801562000987573d6000803e3d6000fd5b505050506040513d6000823e3d601f19601f82011682018060405250810190620009b2919062002df3565b81526020018273ffffffffffffffffffffffffffffffffffffffff1663bcead63e6040518163ffffffff1660e01b815260040160206040518083038186803b158015620009fe57600080fd5b505afa15801562000a13573d6000803e3d6000fd5b505050506040513d601f19601f8201168201806040525081019062000a39919062002c5d565b73ffffffffffffffffffffffffffffffffffffffff1681526020018273ffffffffffffffffffffffffffffffffffffffff1663adf077916040518163ffffffff1660e01b815260040160206040518083038186803b15801562000a9b57600080fd5b505afa15801562000ab0573d6000803e3d6000fd5b505050506040513d601f19601f8201168201806040525081019062000ad6919062002c5d565b73ffffffffffffffffffffffffffffffffffffffff1681526020018273ffffffffffffffffffffffffffffffffffffffff1663be9a65556040518163ffffffff1660e01b815260040160206040518083038186803b15801562000b3857600080fd5b505afa15801562000b4d573d6000803e3d6000fd5b505050506040513d601f19601f8201168201806040525081019062000b73919062002e90565b81526020018273ffffffffffffffffffffffffffffffffffffffff1663efbe1c1c6040518163ffffffff1660e01b815260040160206040518083038186803b15801562000bbf57600080fd5b505afa15801562000bd4573d6000803e3d6000fd5b505050506040513d601f19601f8201168201806040525081019062000bfa919062002e90565b81526020018273ffffffffffffffffffffffffffffffffffffffff16630979f7786040518163ffffffff1660e01b815260040160206040518083038186803b15801562000c4657600080fd5b505afa15801562000c5b573d6000803e3d6000fd5b505050506040513d601f19601f8201168201806040525081019062000c81919062002e90565b815250915050919050565b60105481565b62000c9c620029a9565b62000cb282600162001fc390919063ffffffff16565b62000cf4576040517f08c379a000000000000000000000000000000000000000000000000000000000815260040162000ceb90620038f0565b60405180910390fd5b600360008381526020019081526020016000206040518060c0016040529081600082015481526020016001820180548060200260200160405190810160405280929190818152602001828054801562000d6d57602002820191906000526020600020905b81548152602001906001019080831162000d58575b505050505081526020016002820160009054906101000a900473ffffffffffffffffffffffffffffffffffffffff1673ffffffffffffffffffffffffffffffffffffffff1673ffffffffffffffffffffffffffffffffffffffff16815260200160038201548152602001600482015481526020016005820154815250509050919050565b6060808267ffffffffffffffff8111801562000e0c57600080fd5b5060405190808252806020026020018201604052801562000e4a57816020015b62000e366200292a565b81526020019060019003908162000e2c5790505b50905060005b8381101562000ea15762000e7b62000e75828701600562001f7590919063ffffffff16565b6200089d565b82828151811062000e8857fe5b6020026020010181905250808060010191505062000e50565b508091505092915050565b62000ec281600162001fc390919063ffffffff16565b62000f04576040517f08c379a000000000000000000000000000000000000000000000000000000000815260040162000efb90620038ac565b60405180910390fd5b62000f0e620029a9565b600360008381526020019081526020016000206040518060c0016040529081600082015481526020016001820180548060200260200160405190810160405280929190818152602001828054801562000f8757602002820191906000526020600020905b81548152602001906001019080831162000f72575b505050505081526020016002820160009054906101000a900473ffffffffffffffffffffffffffffffffffffffff1673ffffffffffffffffffffffffffffffffffffffff1673ffffffffffffffffffffffffffffffffffffffff1681526020016003820154815260200160048201548152602001600582015481525050905060005b8160200151518110156200104e5762001040308360400151846020015184815181106200103257fe5b602002602001015162001fdf565b808060010191505062001009565b506200105f82826040015162002079565b7f2e8af6a053bc85443cdcc0eb4bc27edb2a41dd5d1605e76bbd7f687f3f4adc6a8282604001516040516200109692919062003977565b60405180910390a15050565b600d60009054906101000a900473ffffffffffffffffffffffffffffffffffffffff1681565b60608062001114600860008573ffffffffffffffffffffffffffffffffffffffff1673ffffffffffffffffffffffffffffffffffffffff16815260200190815260200160002062001f5e565b67ffffffffffffffff811180156200112b57600080fd5b506040519080825280602002602001820160405280156200116957816020015b620011556200292a565b8152602001906001900390816200114b5790505b50905060005b620011b8600860008673ffffffffffffffffffffffffffffffffffffffff1673ffffffffffffffffffffffffffffffffffffffff16815260200190815260200160002062001f5e565b81101562001243576200121d6200121782600860008873ffffffffffffffffffffffffffffffffffffffff1673ffffffffffffffffffffffffffffffffffffffff16815260200190815260200160002062001f7590919063ffffffff16565b6200089d565b8282815181106200122a57fe5b602002602001018190525080806001019150506200116f565b5080915050919050565b600f60009054906101000a900473ffffffffffffffffffffffffffffffffffffffff1681565b6060808267ffffffffffffffff811180156200128e57600080fd5b50604051908082528060200260200182016040528015620012cc57816020015b620012b8620029a9565b815260200190600190039081620012ae5790505b50905060005b838110156200140e5760036000620012f783880160016200215790919063ffffffff16565b81526020019081526020016000206040518060c001604052908160008201548152602001600182018054806020026020016040519081016040528092919081815260200182805480156200136b57602002820191906000526020600020905b81548152602001906001019080831162001356575b505050505081526020016002820160009054906101000a900473ffffffffffffffffffffffffffffffffffffffff1673ffffffffffffffffffffffffffffffffffffffff1673ffffffffffffffffffffffffffffffffffffffff1681526020016003820154815260200160048201548152602001600582015481525050828281518110620013f557fe5b60200260200101819052508080600101915050620012d2565b508091505092915050565b600062001427600162002173565b905090565b60006200144482600162001fc390919063ffffffff16565b62001486576040517f08c379a00000000000000000000000000000000000000000000000000000000081526004016200147d90620038ac565b60405180910390fd5b62001490620029a9565b600360008481526020019081526020016000206040518060c001604052908160008201548152602001600182018054806020026020016040519081016040528092919081815260200182805480156200150957602002820191906000526020600020905b815481526020019060010190808311620014f4575b505050505081526020016002820160009054906101000a900473ffffffffffffffffffffffffffffffffffffffff1673ffffffffffffffffffffffffffffffffffffffff1673ffffffffffffffffffffffffffffffffffffffff168152602001600382015481526020016004820154815260200160058201548152505090506000600954826020015151029050620015a33330836200218a565b60006064601054838560a00151030281620015ba57fe5b049050601154811015620015ce5760115490505b620015fd33600f60009054906101000a900473ffffffffffffffffffffffffffffffffffffffff16836200218a565b6200161633846040015183858760a0015103036200218a565b600062001639846040015133866020015187606001514201886080015162002247565b905060005b8460200151518110156200167f57620016713083876020015184815181106200166357fe5b602002602001015162001fdf565b80806001019150506200163e565b506200169086856040015162002079565b7fc9cd9c7e1de1da246cb8afa3ccfdd38bd1d0780f56771bc329c1a2bb2b05b5988685604001513384604051620016cb949392919062003a08565b60405180910390a180945050505050919050565b600a60009054906101000a900473ffffffffffffffffffffffffffffffffffffffff1673ffffffffffffffffffffffffffffffffffffffff163373ffffffffffffffffffffffffffffffffffffffff16146200173a57600080fd5b8060098190555050565b600062001752600562001f5e565b905090565b600c60009054906101000a900473ffffffffffffffffffffffffffffffffffffffff1681565b60006064831115620017c6576040517f08c379a0000000000000000000000000000000000000000000000000000000008152600401620017bd9062003868565b60405180910390fd5b600586869050111562001810576040517f08c379a0000000000000000000000000000000000000000000000000000000008152600401620018079062003824565b60405180910390fd5b600060095487879050029050806011540183101562001866576040517f08c379a00000000000000000000000000000000000000000000000000000000081526004016200185d90620038ce565b60405180910390fd5b620018b5878780806020026020016040519081016040528093929190818152602001838360200280828437600081840152601f19601f82011690508083019250505050505050868686620023e9565b915060005b87879050811015620018f457620018e633308a8a85818110620018d957fe5b9050602002013562001fdf565b8080600101915050620018ba565b505095945050505050565b6200191533600562001f9190919063ffffffff16565b62001957576040517f08c379a00000000000000000000000000000000000000000000000000000000081526004016200194e9062003846565b60405180910390fd5b6000339050600d60009054906101000a900473ffffffffffffffffffffffffffffffffffffffff1673ffffffffffffffffffffffffffffffffffffffff1663a9059cbb826009548473ffffffffffffffffffffffffffffffffffffffff1663ddfe867f6040518163ffffffff1660e01b815260040160006040518083038186803b158015620019e557600080fd5b505afa158015620019fa573d6000803e3d6000fd5b505050506040513d6000823e3d601f19601f8201168201806040525081019062001a25919062002df3565b51026040518363ffffffff1660e01b815260040162001a469291906200368d565b602060405180830381600087803b15801562001a6157600080fd5b505af115801562001a76573d6000803e3d6000fd5b505050506040513d601f19601f8201168201806040525081019062001a9c919062002e38565b5062001bac338273ffffffffffffffffffffffffffffffffffffffff1663bcead63e6040518163ffffffff1660e01b815260040160206040518083038186803b15801562001ae957600080fd5b505afa15801562001afe573d6000803e3d6000fd5b505050506040513d601f19601f8201168201806040525081019062001b24919062002c5d565b8373ffffffffffffffffffffffffffffffffffffffff1663adf077916040518163ffffffff1660e01b815260040160206040518083038186803b15801562001b6b57600080fd5b505afa15801562001b80573d6000803e3d6000fd5b505050506040513d601f19601f8201168201806040525081019062001ba6919062002c5d565b620025a0565b7f44fac4e5151286b96fb5920aeae661859f91979dff01505a0aed6ebe319ca219338273ffffffffffffffffffffffffffffffffffffffff1663bcead63e6040518163ffffffff1660e01b815260040160206040518083038186803b15801562001c1557600080fd5b505afa15801562001c2a573d6000803e3d6000fd5b505050506040513d601f19601f8201168201806040525081019062001c50919062002c5d565b8373ffffffffffffffffffffffffffffffffffffffff1663adf077916040518163ffffffff1660e01b815260040160206040518083038186803b15801562001c9757600080fd5b505afa15801562001cac573d6000803e3d6000fd5b505050506040513d601f19601f8201168201806040525081019062001cd2919062002c5d565b60405162001ce39392919062003650565b60405180910390a150565b60608062001d3a600460008573ffffffffffffffffffffffffffffffffffffffff1673ffffffffffffffffffffffffffffffffffffffff16815260200190815260200160002062002173565b67ffffffffffffffff8111801562001d5157600080fd5b5060405190808252806020026020018201604052801562001d8f57816020015b62001d7b620029a9565b81526020019060019003908162001d715790505b50905060005b62001dde600460008673ffffffffffffffffffffffffffffffffffffffff1673ffffffffffffffffffffffffffffffffffffffff16815260200190815260200160002062002173565b81101562001f54576003600062001e3d83600460008973ffffffffffffffffffffffffffffffffffffffff1673ffffffffffffffffffffffffffffffffffffffff1681526020019081526020016000206200215790919063ffffffff16565b81526020019081526020016000206040518060c0016040529081600082015481526020016001820180548060200260200160405190810160405280929190818152602001828054801562001eb157602002820191906000526020600020905b81548152602001906001019080831162001e9c575b505050505081526020016002820160009054906101000a900473ffffffffffffffffffffffffffffffffffffffff1673ffffffffffffffffffffffffffffffffffffffff1673ffffffffffffffffffffffffffffffffffffffff168152602001600382015481526020016004820154815260200160058201548152505082828151811062001f3b57fe5b6020026020010181905250808060010191505062001d95565b5080915050919050565b600062001f6e8260000162002664565b9050919050565b600062001f86836000018362002675565b60001c905092915050565b600062001fbb836000018373ffffffffffffffffffffffffffffffffffffffff1660001b620026e6565b905092915050565b600062001fd7836000018360001b620026e6565b905092915050565b600b60009054906101000a900473ffffffffffffffffffffffffffffffffffffffff1673ffffffffffffffffffffffffffffffffffffffff166342842e0e8484846040518463ffffffff1660e01b8152600401620020409392919062003760565b600060405180830381600087803b1580156200205b57600080fd5b505af115801562002070573d6000803e3d6000fd5b50505050505050565b6200208f8260016200270990919063ffffffff16565b50620020e382600460008473ffffffffffffffffffffffffffffffffffffffff1673ffffffffffffffffffffffffffffffffffffffff1681526020019081526020016000206200270990919063ffffffff16565b5060036000838152602001908152602001600020600080820160009055600182016000620021129190620029f5565b6002820160006101000a81549073ffffffffffffffffffffffffffffffffffffffff021916905560038201600090556004820160009055600582016000905550505050565b600062002168836000018362002675565b60001c905092915050565b6000620021838260000162002664565b9050919050565b600d60009054906101000a900473ffffffffffffffffffffffffffffffffffffffff1673ffffffffffffffffffffffffffffffffffffffff166323b872dd8484846040518463ffffffff1660e01b8152600401620021eb9392919062003760565b602060405180830381600087803b1580156200220657600080fd5b505af11580156200221b573d6000803e3d6000fd5b505050506040513d601f19601f8201168201806040525081019062002241919062002e38565b50505050565b600080600d60009054906101000a900473ffffffffffffffffffffffffffffffffffffffff16600b60009054906101000a900473ffffffffffffffffffffffffffffffffffffffff16600c60009054906101000a900473ffffffffffffffffffffffffffffffffffffffff16600e60009054906101000a900473ffffffffffffffffffffffffffffffffffffffff168a8a8a8a8a604051620022e99062002a18565b620022fd99989796959493929190620036ba565b604051809103906000f0801580156200231a573d6000803e3d6000fd5b509050620023338160056200272590919063ffffffff16565b506200238781600760008a73ffffffffffffffffffffffffffffffffffffffff1673ffffffffffffffffffffffffffffffffffffffff1681526020019081526020016000206200272590919063ffffffff16565b50620023db81600860008973ffffffffffffffffffffffffffffffffffffffff1673ffffffffffffffffffffffffffffffffffffffff1681526020019081526020016000206200272590919063ffffffff16565b508091505095945050505050565b6000620023f7600062002757565b90506040518060c001604052808281526020018681526020013373ffffffffffffffffffffffffffffffffffffffff16815260200185815260200184815260200183815250600360008381526020019081526020016000206000820151816000015560208201518160010190805190602001906200247792919062002a26565b5060408201518160020160006101000a81548173ffffffffffffffffffffffffffffffffffffffff021916908373ffffffffffffffffffffffffffffffffffffffff160217905550606082015181600301556080820151816004015560a08201518160050155905050620024f68160016200276590919063ffffffff16565b507f30191881d42334090e501efe251e500ac7a88c7c524be9856b060eb54753caa2813387868660405162002530959493929190620039a4565b60405180910390a16200258b81600460003373ffffffffffffffffffffffffffffffffffffffff1673ffffffffffffffffffffffffffffffffffffffff1681526020019081526020016000206200276590919063ffffffff16565b5062002598600062002781565b949350505050565b620025b68360056200279790919063ffffffff16565b506200260a83600760008573ffffffffffffffffffffffffffffffffffffffff1673ffffffffffffffffffffffffffffffffffffffff1681526020019081526020016000206200279790919063ffffffff16565b506200265e83600860008473ffffffffffffffffffffffffffffffffffffffff1673ffffffffffffffffffffffffffffffffffffffff1681526020019081526020016000206200279790919063ffffffff16565b50505050565b600081600001805490509050919050565b600081836000018054905011620026c3576040517f08c379a0000000000000000000000000000000000000000000000000000000008152600401620026ba9062003802565b60405180910390fd5b826000018281548110620026d357fe5b9060005260206000200154905092915050565b600080836001016000848152602001908152602001600020541415905092915050565b60006200271d836000018360001b620027c9565b905092915050565b60006200274f836000018373ffffffffffffffffffffffffffffffffffffffff1660001b620028b6565b905092915050565b600081600001549050919050565b600062002779836000018360001b620028b6565b905092915050565b6001816000016000828254019250508190555050565b6000620027c1836000018373ffffffffffffffffffffffffffffffffffffffff1660001b620027c9565b905092915050565b60008083600101600084815260200190815260200160002054905060008114620028aa57600060018203905060006001866000018054905003905060008660000182815481106200281657fe5b90600052602060002001549050808760000184815481106200283457fe5b90600052602060002001819055506001830187600101600083815260200190815260200160002081905550866000018054806200286d57fe5b60019003818190600052602060002001600090559055866001016000878152602001908152602001600020600090556001945050505050620028b0565b60009150505b92915050565b6000620028c48383620026e6565b6200291f57826000018290806001815401808255809150506001900390600052602060002001600090919091909150558260000180549050836001016000848152602001908152602001600020819055506001905062002924565b600090505b92915050565b6040518060e00160405280600073ffffffffffffffffffffffffffffffffffffffff16815260200160608152602001600073ffffffffffffffffffffffffffffffffffffffff168152602001600073ffffffffffffffffffffffffffffffffffffffff1681526020016000815260200160008152602001600081525090565b6040518060c001604052806000815260200160608152602001600073ffffffffffffffffffffffffffffffffffffffff1681526020016000815260200160008152602001600081525090565b508054600082559060005260206000209081019062002a15919062002a78565b50565b6122818062003c7a83390190565b82805482825590600052602060002090810192821562002a65579160200282015b8281111562002a6457825182559160200191906001019062002a47565b5b50905062002a74919062002a78565b5090565b5b8082111562002a9357600081600090555060010162002a79565b5090565b60008135905062002aa88162003c2b565b92915050565b60008151905062002abf8162003c2b565b92915050565b60008083601f84011262002ad857600080fd5b8235905067ffffffffffffffff81111562002af257600080fd5b60208301915083602082028301111562002b0b57600080fd5b9250929050565b600082601f83011262002b2457600080fd5b815162002b3b62002b358262003a83565b62003a55565b9150818183526020840193506020810190508385602084028201111562002b6157600080fd5b60005b8381101562002b95578162002b7a888262002c1a565b84526020840193506020830192505060018101905062002b64565b5050505092915050565b60008151905062002bb08162003c45565b92915050565b60008083601f84011262002bc957600080fd5b8235905067ffffffffffffffff81111562002be357600080fd5b60208301915083600182028301111562002bfc57600080fd5b9250929050565b60008135905062002c148162003c5f565b92915050565b60008151905062002c2b8162003c5f565b92915050565b60006020828403121562002c4457600080fd5b600062002c548482850162002a97565b91505092915050565b60006020828403121562002c7057600080fd5b600062002c808482850162002aae565b91505092915050565b60008060008060006080868803121562002ca257600080fd5b600062002cb28882890162002a97565b955050602062002cc58882890162002a97565b945050604062002cd88882890162002c03565b935050606086013567ffffffffffffffff81111562002cf657600080fd5b62002d048882890162002bb6565b92509250509295509295909350565b60008060006060848603121562002d2957600080fd5b600062002d398682870162002a97565b935050602062002d4c8682870162002c03565b925050604062002d5f8682870162002c03565b9150509250925092565b60008060008060006080868803121562002d8257600080fd5b600086013567ffffffffffffffff81111562002d9d57600080fd5b62002dab8882890162002ac5565b9550955050602062002dc08882890162002c03565b935050604062002dd38882890162002c03565b925050606062002de68882890162002c03565b9150509295509295909350565b60006020828403121562002e0657600080fd5b600082015167ffffffffffffffff81111562002e2157600080fd5b62002e2f8482850162002b12565b91505092915050565b60006020828403121562002e4b57600080fd5b600062002e5b8482850162002b9f565b91505092915050565b60006020828403121562002e7757600080fd5b600062002e878482850162002c03565b91505092915050565b60006020828403121562002ea357600080fd5b600062002eb38482850162002c1a565b91505092915050565b6000806040838503121562002ed057600080fd5b600062002ee08582860162002c03565b925050602062002ef38582860162002c03565b9150509250929050565b600062002f0b838362003393565b905092915050565b600062002f218383620034bd565b905092915050565b600062002f37838362003611565b60208301905092915050565b62002f4e8162003bef565b82525050565b62002f5f8162003b79565b82525050565b62002f708162003b79565b82525050565b600062002f838262003adc565b62002f8f818562003b24565b93508360208202850162002fa38562003aac565b8060005b8581101562002fe5578484038952815162002fc3858262002efd565b945062002fd08362003afd565b925060208a0199505060018101905062002fa7565b50829750879550505050505092915050565b6000620030048262003ae7565b62003010818562003b35565b935083602082028501620030248562003abc565b8060005b8581101562003066578484038952815162003044858262002f13565b9450620030518362003b0a565b925060208a0199505060018101905062003028565b50829750879550505050505092915050565b6000620030858262003af2565b62003091818562003b46565b93506200309e8362003acc565b8060005b83811015620030d5578151620030b9888262002f29565b9750620030c68362003b17565b925050600181019050620030a2565b5085935050505092915050565b6000620030ef8262003af2565b620030fb818562003b57565b9350620031088362003acc565b8060005b838110156200313f57815162003123888262002f29565b9750620031308362003b17565b9250506001810190506200310c565b5085935050505092915050565b620031578162003b99565b82525050565b60006200316c60228362003b68565b91507f456e756d657261626c655365743a20696e646578206f7574206f6620626f756e60008301527f64730000000000000000000000000000000000000000000000000000000000006020830152604082019050919050565b6000620031d4600f8362003b68565b91507f6d6f7265207468616e2035206e667400000000000000000000000000000000006000830152602082019050919050565b600062003216600f8362003b68565b91507f756e6b6e6f776e2072656e74696e6700000000000000000000000000000000006000830152602082019050919050565b60006200325860148362003b68565b91507f70657263656e74616765206f76657220313030250000000000000000000000006000830152602082019050919050565b60006200329a600b8362003b68565b91507f696e76616c6964206e66740000000000000000000000000000000000000000006000830152602082019050919050565b6000620032dc600d8362003b68565b91507f756e6b6e6f776e206f66666572000000000000000000000000000000000000006000830152602082019050919050565b60006200331e600b8362003b68565b91507f66656520746f6f206c6f770000000000000000000000000000000000000000006000830152602082019050919050565b60006200336060108362003b68565b91507f756e6b6e6f776e206f66666572206964000000000000000000000000000000006000830152602082019050919050565b600060c083016000830151620033ad600086018262003611565b5060208301518482036020860152620033c7828262003078565b9150506040830151620033de604086018262002f54565b506060830151620033f3606086018262003611565b50608083015162003408608086018262003611565b5060a08301516200341d60a086018262003611565b508091505092915050565b600060c08301600083015162003442600086018262003611565b50602083015184820360208601526200345c828262003078565b915050604083015162003473604086018262002f54565b50606083015162003488606086018262003611565b5060808301516200349d608086018262003611565b5060a0830151620034b260a086018262003611565b508091505092915050565b600060e083016000830151620034d7600086018262002f54565b5060208301518482036020860152620034f1828262003078565b915050604083015162003508604086018262002f54565b5060608301516200351d606086018262002f54565b50608083015162003532608086018262003611565b5060a08301516200354760a086018262003611565b5060c08301516200355c60c086018262003611565b508091505092915050565b600060e08301600083015162003581600086018262002f54565b50602083015184820360208601526200359b828262003078565b9150506040830151620035b2604086018262002f54565b506060830151620035c7606086018262002f54565b506080830151620035dc608086018262003611565b5060a0830151620035f160a086018262003611565b5060c08301516200360660c086018262003611565b508091505092915050565b6200361c8162003be5565b82525050565b6200362d8162003be5565b82525050565b60006020820190506200364a600083018462002f65565b92915050565b600060608201905062003667600083018662002f43565b62003676602083018562002f65565b62003685604083018462002f65565b949350505050565b6000604082019050620036a4600083018562002f43565b620036b3602083018462003622565b9392505050565b600061012082019050620036d2600083018c62002f65565b620036e1602083018b62002f65565b620036f0604083018a62002f65565b620036ff606083018962002f65565b6200370e608083018862002f65565b6200371d60a083018762002f65565b81810360c0830152620037318186620030e2565b90506200374260e083018562003622565b6200375261010083018462003622565b9a9950505050505050505050565b600060608201905062003777600083018662002f65565b62003786602083018562002f65565b62003795604083018462003622565b949350505050565b60006020820190508181036000830152620037b9818462002f76565b905092915050565b60006020820190508181036000830152620037dd818462002ff7565b905092915050565b6000602082019050620037fc60008301846200314c565b92915050565b600060208201905081810360008301526200381d816200315d565b9050919050565b600060208201905081810360008301526200383f81620031c5565b9050919050565b60006020820190508181036000830152620038618162003207565b9050919050565b60006020820190508181036000830152620038838162003249565b9050919050565b60006020820190508181036000830152620038a5816200328b565b9050919050565b60006020820190508181036000830152620038c781620032cd565b9050919050565b60006020820190508181036000830152620038e9816200330f565b9050919050565b600060208201905081810360008301526200390b8162003351565b9050919050565b600060208201905081810360008301526200392e818462003428565b905092915050565b6000602082019050818103600083015262003952818462003567565b905092915050565b600060208201905062003971600083018462003622565b92915050565b60006040820190506200398e600083018562003622565b6200399d602083018462002f65565b9392505050565b600060a082019050620039bb600083018862003622565b620039ca602083018762002f43565b8181036040830152620039de8186620030e2565b9050620039ef606083018562003622565b620039fe608083018462003622565b9695505050505050565b600060808201905062003a1f600083018762003622565b62003a2e602083018662002f65565b62003a3d604083018562002f43565b62003a4c606083018462002f65565b95945050505050565b6000604051905081810181811067ffffffffffffffff8211171562003a7957600080fd5b8060405250919050565b600067ffffffffffffffff82111562003a9b57600080fd5b602082029050602081019050919050565b6000819050602082019050919050565b6000819050602082019050919050565b6000819050602082019050919050565b600081519050919050565b600081519050919050565b600081519050919050565b6000602082019050919050565b6000602082019050919050565b6000602082019050919050565b600082825260208201905092915050565b600082825260208201905092915050565b600082825260208201905092915050565b600082825260208201905092915050565b600082825260208201905092915050565b600062003b868262003bc5565b9050919050565b60008115159050919050565b60007fffffffff0000000000000000000000000000000000000000000000000000000082169050919050565b600073ffffffffffffffffffffffffffffffffffffffff82169050919050565b6000819050919050565b600062003bfc8262003c03565b9050919050565b600062003c108262003c17565b9050919050565b600062003c248262003bc5565b9050919050565b62003c368162003b79565b811462003c4257600080fd5b50565b62003c508162003b8d565b811462003c5c57600080fd5b50565b62003c6a8162003be5565b811462003c7657600080fd5b5056fe60806040523480156200001157600080fd5b50604051620022813803806200228183398181016040526101208110156200003857600080fd5b81019080805190602001909291908051906020019092919080519060200190929190805190602001909291908051906020019092919080519060200190929190805160405193929190846401000000008211156200009557600080fd5b83820191506020820185811115620000ac57600080fd5b8251866020820283011164010000000082111715620000ca57600080fd5b8083526020830192505050908051906020019060200280838360005b8381101562000103578082015181840152602081019050620000e6565b505050509050016040526020018051906020019092919080519060200190929190505050600160008190555088600960006101000a81548173ffffffffffffffffffffffffffffffffffffffff021916908373ffffffffffffffffffffffffffffffffffffffff16021790555087600760006101000a81548173ffffffffffffffffffffffffffffffffffffffff021916908373ffffffffffffffffffffffffffffffffffffffff16021790555086600860006101000a81548173ffffffffffffffffffffffffffffffffffffffff021916908373ffffffffffffffffffffffffffffffffffffffff16021790555033600660006101000a81548173ffffffffffffffffffffffffffffffffffffffff021916908373ffffffffffffffffffffffffffffffffffffffff16021790555082600a90805190602001906200024b929190620004a1565b5084600160006101000a81548173ffffffffffffffffffffffffffffffffffffffff021916908373ffffffffffffffffffffffffffffffffffffffff16021790555083600260006101000a81548173ffffffffffffffffffffffffffffffffffffffff021916908373ffffffffffffffffffffffffffffffffffffffff160217905550426003819055508160048190555080600581905550600860009054906101000a900473ffffffffffffffffffffffffffffffffffffffff1673ffffffffffffffffffffffffffffffffffffffff1663a22cb465600260009054906101000a900473ffffffffffffffffffffffffffffffffffffffff1660016040518363ffffffff1660e01b8152600401808373ffffffffffffffffffffffffffffffffffffffff168152602001821515815260200192505050600060405180830381600087803b1580156200039c57600080fd5b505af1158015620003b1573d6000803e3d6000fd5b50505050600960009054906101000a900473ffffffffffffffffffffffffffffffffffffffff1673ffffffffffffffffffffffffffffffffffffffff1663095ea7b3876a084595161401484a0000006040518363ffffffff1660e01b8152600401808373ffffffffffffffffffffffffffffffffffffffff16815260200182815260200192505050602060405180830381600087803b1580156200045457600080fd5b505af115801562000469573d6000803e3d6000fd5b505050506040513d60208110156200048057600080fd5b81019080805190602001909291905050505050505050505050505062000512565b828054828255906000526020600020908101928215620004e0579160200282015b82811115620004df578251825591602001919060010190620004c2565b5b509050620004ef9190620004f3565b5090565b5b808211156200050e576000816000905550600101620004f4565b5090565b611d5f80620005226000396000f3fe6080604052600436106101185760003560e01c80639acfe6ef116100a0578063cd0c623511610064578063cd0c6235146104e0578063d4abe71714610521578063d6062a51146105e6578063ddfe867f146106ab578063efbe1c1c146107175761011f565b80639acfe6ef146103b1578063adf07791146103f2578063bcead63e14610433578063be9a655514610474578063c45a01551461049f5761011f565b8063348bf5f1116100e7578063348bf5f1146102e457806343d726d61461031157806367667b58146103285780637b0472f0146103555780638cedf5161461039a5761011f565b80630979f77814610124578063150b7a021461014f5780631e83409a1461025257806324f0942d146102a35761011f565b3661011f57005b600080fd5b34801561013057600080fd5b50610139610742565b6040518082815260200191505060405180910390f35b34801561015b57600080fd5b5061021d6004803603608081101561017257600080fd5b81019080803573ffffffffffffffffffffffffffffffffffffffff169060200190929190803573ffffffffffffffffffffffffffffffffffffffff16906020019092919080359060200190929190803590602001906401000000008111156101d957600080fd5b8201836020820111156101eb57600080fd5b8035906020019184600183028401116401000000008311171561020d57600080fd5b9091929391929390505050610748565b60405180827bffffffffffffffffffffffffffffffffffffffffffffffffffffffff1916815260200191505060405180910390f35b34801561025e57600080fd5b506102a16004803603602081101561027557600080fd5b81019080803573ffffffffffffffffffffffffffffffffffffffff1690602001909291905050506109ea565b005b3480156102af57600080fd5b506102b8610b9a565b604051808273ffffffffffffffffffffffffffffffffffffffff16815260200191505060405180910390f35b3480156102f057600080fd5b506102f9610bc0565b60405180821515815260200191505060405180910390f35b34801561031d57600080fd5b50610326610bd3565b005b34801561033457600080fd5b5061033d61115f565b60405180821515815260200191505060405180910390f35b34801561036157600080fd5b506103986004803603604081101561037857600080fd5b810190808035906020019092919080359060200190929190505050611172565b005b3480156103a657600080fd5b506103af6112ed565b005b3480156103bd57600080fd5b506103c6611426565b604051808273ffffffffffffffffffffffffffffffffffffffff16815260200191505060405180910390f35b3480156103fe57600080fd5b5061040761144c565b604051808273ffffffffffffffffffffffffffffffffffffffff16815260200191505060405180910390f35b34801561043f57600080fd5b50610448611472565b604051808273ffffffffffffffffffffffffffffffffffffffff16815260200191505060405180910390f35b34801561048057600080fd5b50610489611498565b6040518082815260200191505060405180910390f35b3480156104ab57600080fd5b506104b461149e565b604051808273ffffffffffffffffffffffffffffffffffffffff16815260200191505060405180910390f35b3480156104ec57600080fd5b506104f56114c4565b604051808273ffffffffffffffffffffffffffffffffffffffff16815260200191505060405180910390f35b34801561052d57600080fd5b506105e46004803603602081101561054457600080fd5b810190808035906020019064010000000081111561056157600080fd5b82018360208201111561057357600080fd5b8035906020019184602083028401116401000000008311171561059557600080fd5b919080806020026020016040519081016040528093929190818152602001838360200280828437600081840152601f19601f8201169050808301925050505050505091929192905050506114ea565b005b3480156105f257600080fd5b506106a96004803603602081101561060957600080fd5b810190808035906020019064010000000081111561062657600080fd5b82018360208201111561063857600080fd5b8035906020019184602083028401116401000000008311171561065a57600080fd5b919080806020026020016040519081016040528093929190818152602001838360200280828437600081840152601f19601f8201169050808301925050505050505091929192905050506116c7565b005b3480156106b757600080fd5b506106c061187f565b6040518080602001828103825283818151815260200191508051906020019060200280838360005b838110156107035780820151818401526020810190506106e8565b505050509050019250505060405180910390f35b34801561072357600080fd5b5061072c6118d7565b6040518082815260200191505060405180910390f35b60055481565b6000600760009054906101000a900473ffffffffffffffffffffffffffffffffffffffff1673ffffffffffffffffffffffffffffffffffffffff163373ffffffffffffffffffffffffffffffffffffffff1614806107f35750600860009054906101000a900473ffffffffffffffffffffffffffffffffffffffff1673ffffffffffffffffffffffffffffffffffffffff163373ffffffffffffffffffffffffffffffffffffffff16145b610865576040517f08c379a000000000000000000000000000000000000000000000000000000000815260040180806020018281038252600d8152602001807f696e76616c696420746f6b656e0000000000000000000000000000000000000081525060200191505060405180910390fd5b600760009054906101000a900473ffffffffffffffffffffffffffffffffffffffff1673ffffffffffffffffffffffffffffffffffffffff163373ffffffffffffffffffffffffffffffffffffffff1614156109d757600660009054906101000a900473ffffffffffffffffffffffffffffffffffffffff1673ffffffffffffffffffffffffffffffffffffffff168573ffffffffffffffffffffffffffffffffffffffff1614806109645750600860009054906101000a900473ffffffffffffffffffffffffffffffffffffffff1673ffffffffffffffffffffffffffffffffffffffff168573ffffffffffffffffffffffffffffffffffffffff16145b6109d6576040517f08c379a000000000000000000000000000000000000000000000000000000000815260040180806020018281038252600c8152602001807f696e76616c69642066726f6d000000000000000000000000000000000000000081525060200191505060405180910390fd5b5b63150b7a0260e01b905095945050505050565b60026000541415610a63576040517f08c379a000000000000000000000000000000000000000000000000000000000815260040180806020018281038252601f8152602001807f5265656e7472616e637947756172643a207265656e7472616e742063616c6c0081525060200191505060405180910390fd5b6002600081905550600160009054906101000a900473ffffffffffffffffffffffffffffffffffffffff1673ffffffffffffffffffffffffffffffffffffffff163373ffffffffffffffffffffffffffffffffffffffff161480610b145750600260009054906101000a900473ffffffffffffffffffffffffffffffffffffffff1673ffffffffffffffffffffffffffffffffffffffff163373ffffffffffffffffffffffffffffffffffffffff16145b610b86576040517f08c379a000000000000000000000000000000000000000000000000000000000815260040180806020018281038252600e8152602001807f696e76616c69642063616c6c657200000000000000000000000000000000000081525060200191505060405180910390fd5b610b8f816118dd565b600160008190555050565b600760009054906101000a900473ffffffffffffffffffffffffffffffffffffffff1681565b600b60009054906101000a900460ff1681565b600160009054906101000a900473ffffffffffffffffffffffffffffffffffffffff1673ffffffffffffffffffffffffffffffffffffffff163373ffffffffffffffffffffffffffffffffffffffff161480610c7c5750600260009054906101000a900473ffffffffffffffffffffffffffffffffffffffff1673ffffffffffffffffffffffffffffffffffffffff163373ffffffffffffffffffffffffffffffffffffffff16145b610cee576040517f08c379a000000000000000000000000000000000000000000000000000000000815260040180806020018281038252600e8152602001807f696e76616c69642063616c6c657200000000000000000000000000000000000081525060200191505060405180910390fd5b600454421015610d66576040517f08c379a000000000000000000000000000000000000000000000000000000000815260040180806020018281038252600a8152602001807f756e66696e69736865640000000000000000000000000000000000000000000081525060200191505060405180910390fd5b600660009054906101000a900473ffffffffffffffffffffffffffffffffffffffff1673ffffffffffffffffffffffffffffffffffffffff1663ece358296040518163ffffffff1660e01b8152600401600060405180830381600087803b158015610dd057600080fd5b505af1158015610de4573d6000803e3d6000fd5b505050506000600860009054906101000a900473ffffffffffffffffffffffffffffffffffffffff1673ffffffffffffffffffffffffffffffffffffffff166370a08231306040518263ffffffff1660e01b8152600401808273ffffffffffffffffffffffffffffffffffffffff16815260200191505060206040518083038186803b158015610e7357600080fd5b505afa158015610e87573d6000803e3d6000fd5b505050506040513d6020811015610e9d57600080fd5b8101908080519060200190929190505050905060005b8181101561103b576000600860009054906101000a900473ffffffffffffffffffffffffffffffffffffffff1673ffffffffffffffffffffffffffffffffffffffff16632f745c593060006040518363ffffffff1660e01b8152600401808373ffffffffffffffffffffffffffffffffffffffff1681526020018281526020019250505060206040518083038186803b158015610f4f57600080fd5b505afa158015610f63573d6000803e3d6000fd5b505050506040513d6020811015610f7957600080fd5b81019080805190602001909291905050509050600860009054906101000a900473ffffffffffffffffffffffffffffffffffffffff1673ffffffffffffffffffffffffffffffffffffffff1663427c0716826040518263ffffffff1660e01b8152600401808281526020018060200182810382526000815260200160200192505050600060405180830381600087803b15801561101557600080fd5b505af1158015611029573d6000803e3d6000fd5b50505050508080600101915050610eb3565b5060005b600a8054905081101561115b57600760009054906101000a900473ffffffffffffffffffffffffffffffffffffffff1673ffffffffffffffffffffffffffffffffffffffff166342842e0e30600160009054906101000a900473ffffffffffffffffffffffffffffffffffffffff16600a85815481106110bb57fe5b90600052602060002001546040518463ffffffff1660e01b8152600401808473ffffffffffffffffffffffffffffffffffffffff1681526020018373ffffffffffffffffffffffffffffffffffffffff1681526020018281526020019350505050600060405180830381600087803b15801561113657600080fd5b505af115801561114a573d6000803e3d6000fd5b50505050808060010191505061103f565b5050565b600b60019054906101000a900460ff1681565b600760009054906101000a900473ffffffffffffffffffffffffffffffffffffffff1673ffffffffffffffffffffffffffffffffffffffff1663b88d4fde30600860009054906101000a900473ffffffffffffffffffffffffffffffffffffffff168585604051602001808281526020019150506040516020818303038152906040526040518563ffffffff1660e01b8152600401808573ffffffffffffffffffffffffffffffffffffffff1681526020018473ffffffffffffffffffffffffffffffffffffffff16815260200183815260200180602001828103825283818151815260200191508051906020019080838360005b83811015611282578082015181840152602081019050611267565b50505050905090810190601f1680156112af5780820380516001836020036101000a031916815260200191505b5095505050505050600060405180830381600087803b1580156112d157600080fd5b505af11580156112e5573d6000803e3d6000fd5b505050505050565b600260009054906101000a900473ffffffffffffffffffffffffffffffffffffffff1673ffffffffffffffffffffffffffffffffffffffff163373ffffffffffffffffffffffffffffffffffffffff16141561136e57600b60019054906101000a900460ff1615600b60016101000a81548160ff0219169083151502179055505b600160009054906101000a900473ffffffffffffffffffffffffffffffffffffffff1673ffffffffffffffffffffffffffffffffffffffff163373ffffffffffffffffffffffffffffffffffffffff1614156113ef57600b60009054906101000a900460ff1615600b60006101000a81548160ff0219169083151502179055505b600b60019054906101000a900460ff1680156114175750600b60009054906101000a900460ff165b1561142457426004819055505b565b600960009054906101000a900473ffffffffffffffffffffffffffffffffffffffff1681565b600260009054906101000a900473ffffffffffffffffffffffffffffffffffffffff1681565b600160009054906101000a900473ffffffffffffffffffffffffffffffffffffffff1681565b60035481565b600660009054906101000a900473ffffffffffffffffffffffffffffffffffffffff1681565b600860009054906101000a900473ffffffffffffffffffffffffffffffffffffffff1681565b60026000541415611563576040517f08c379a000000000000000000000000000000000000000000000000000000000815260040180806020018281038252601f8152602001807f5265656e7472616e637947756172643a207265656e7472616e742063616c6c0081525060200191505060405180910390fd5b6002600081905550600160009054906101000a900473ffffffffffffffffffffffffffffffffffffffff1673ffffffffffffffffffffffffffffffffffffffff163373ffffffffffffffffffffffffffffffffffffffff1614806116145750600260009054906101000a900473ffffffffffffffffffffffffffffffffffffffff1673ffffffffffffffffffffffffffffffffffffffff163373ffffffffffffffffffffffffffffffffffffffff16145b611686576040517f08c379a000000000000000000000000000000000000000000000000000000000815260040180806020018281038252600e8152602001807f696e76616c69642063616c6c657200000000000000000000000000000000000081525060200191505060405180910390fd5b60005b81518110156116bb576116ae8282815181106116a157fe5b60200260200101516118dd565b8080600101915050611689565b50600160008190555050565b60026000541415611740576040517f08c379a000000000000000000000000000000000000000000000000000000000815260040180806020018281038252601f8152602001807f5265656e7472616e637947756172643a207265656e7472616e742063616c6c0081525060200191505060405180910390fd5b6002600081905550600160009054906101000a900473ffffffffffffffffffffffffffffffffffffffff1673ffffffffffffffffffffffffffffffffffffffff163373ffffffffffffffffffffffffffffffffffffffff1614806117f15750600260009054906101000a900473ffffffffffffffffffffffffffffffffffffffff1673ffffffffffffffffffffffffffffffffffffffff163373ffffffffffffffffffffffffffffffffffffffff16145b611863576040517f08c379a000000000000000000000000000000000000000000000000000000000815260040180806020018281038252600e8152602001807f696e76616c69642063616c6c657200000000000000000000000000000000000081525060200191505060405180910390fd5b61186c81611932565b611874610bd3565b600160008190555050565b6060600a8054806020026020016040519081016040528092919081815260200182805480156118cd57602002820191906000526020600020905b8154815260200190600101908083116118b9575b5050505050905090565b60045481565b60008073ffffffffffffffffffffffffffffffffffffffff168273ffffffffffffffffffffffffffffffffffffffff1614156119225761191b61196b565b905061192e565b61192b82611a62565b90505b5050565b60005b81518110156119675761195a82828151811061194d57fe5b60200260200101516118dd565b8080600101915050611935565b5050565b6000479050600081141561197e57611a5f565b600160009054906101000a900473ffffffffffffffffffffffffffffffffffffffff1673ffffffffffffffffffffffffffffffffffffffff166108fc60646005544702816119c857fe5b049081150290604051600060405180830381858888f193505050501580156119f4573d6000803e3d6000fd5b50600260009054906101000a900473ffffffffffffffffffffffffffffffffffffffff1673ffffffffffffffffffffffffffffffffffffffff166108fc479081150290604051600060405180830381858888f19350505050158015611a5d573d6000803e3d6000fd5b505b90565b60008173ffffffffffffffffffffffffffffffffffffffff166370a08231306040518263ffffffff1660e01b8152600401808273ffffffffffffffffffffffffffffffffffffffff16815260200191505060206040518083038186803b158015611acb57600080fd5b505afa158015611adf573d6000803e3d6000fd5b505050506040513d6020811015611af557600080fd5b810190808051906020019092919050505090506000811415611b1657611d24565b600960009054906101000a900473ffffffffffffffffffffffffffffffffffffffff1673ffffffffffffffffffffffffffffffffffffffff168273ffffffffffffffffffffffffffffffffffffffff1614611c545760006064600554830281611b7b57fe5b0490508273ffffffffffffffffffffffffffffffffffffffff1663a9059cbb600160009054906101000a900473ffffffffffffffffffffffffffffffffffffffff16836040518363ffffffff1660e01b8152600401808373ffffffffffffffffffffffffffffffffffffffff16815260200182815260200192505050602060405180830381600087803b158015611c1157600080fd5b505af1158015611c25573d6000803e3d6000fd5b505050506040513d6020811015611c3b57600080fd5b8101908080519060200190929190505050508082039150505b8173ffffffffffffffffffffffffffffffffffffffff1663a9059cbb600260009054906101000a900473ffffffffffffffffffffffffffffffffffffffff16836040518363ffffffff1660e01b8152600401808373ffffffffffffffffffffffffffffffffffffffff16815260200182815260200192505050602060405180830381600087803b158015611ce757600080fd5b505af1158015611cfb573d6000803e3d6000fd5b505050506040513d6020811015611d1157600080fd5b8101908080519060200190929190505050505b91905056fea2646970667358221220d1ac762d2488d5c4dc1801bbd8def83d79ec464199b3eac7372fd53e687ef11b64736f6c634300060c0033a26469706673582212204f7519f1cca5c8992b7977662c81c10b184d29167a93fce743213dd613775aae64736f6c634300060c0033",
  "immutableReferences": {},
  "source": "// SPDX-License-Identifier: MIT\n\npragma solidity ^0.6.0;\npragma experimental ABIEncoderV2;\n\nimport \"@openzeppelin/contracts/token/ERC721/IERC721.sol\";\nimport \"@openzeppelin/contracts/token/ERC20/IERC20.sol\";\nimport \"@openzeppelin/contracts/utils/EnumerableSet.sol\";\nimport \"@openzeppelin/contracts/utils/Counters.sol\";\nimport \"../RentingContract.sol\";\nimport \"./IRentingContractFactory.sol\";\n\ncontract RentingContractFactory is IRentingContractFactory {\n    using EnumerableSet for EnumerableSet.UintSet;\n    using EnumerableSet for EnumerableSet.AddressSet;\n    using Counters for Counters.Counter;\n\n    Counters.Counter private _offerIdTracker;\n    EnumerableSet.UintSet private _offersId;\n    mapping(uint256 => Offer) private _offers;\n    mapping(address => EnumerableSet.UintSet) private _offersOf;\n\n    EnumerableSet.AddressSet private _rentings;\n    mapping(address => EnumerableSet.AddressSet) private _rentingsGrantedOf;\n    mapping(address => EnumerableSet.AddressSet) private _rentingsReceivedOf;\n\n    uint256 private _leaveFee = 1000000000000000;\n    address private _owner;\n\n    address public spaceships;\n    address public stakedSpaceShips;\n    address public must;\n    address public mustManager;\n\n    address public feeReceiver;\n    uint256 public serviceFeePercentage = 5;\n    uint256 public serviceFeeMin = 300000000000000;\n\n    constructor(\n        address mustAddress,\n        address spaceshipsAddress,\n        address stakedSpaceShipsAddress,\n        address mustManagerAddress\n    ) public {\n        _owner = msg.sender;\n        must = mustAddress;\n        spaceships = spaceshipsAddress;\n        stakedSpaceShips = stakedSpaceShipsAddress;\n        mustManager = mustManagerAddress;\n        feeReceiver = msg.sender;\n    }\n\n    function onERC721Received(\n        address,\n        address,\n        uint256,\n        bytes calldata\n    ) override external returns(bytes4) {\n        require(msg.sender == spaceships, \"invalid nft\");\n        return this.onERC721Received.selector;\n    }\n\n    function makeOffer(\n        uint256[] calldata nftIds,\n        uint256 duration,\n        uint256 percentageForLender,\n        uint256 fee\n    ) override external returns(uint256 id){\n        require(percentageForLender <= 100, \"percentage over 100%\");\n        require(nftIds.length <= 5, \"more than 5 nft\");\n        uint256 leaveFeeEscrow = nftIds.length * _leaveFee;\n        require(fee >= serviceFeeMin + leaveFeeEscrow, \"fee too low\");\n        id = _addOffer(nftIds, duration, percentageForLender, fee);\n        for(uint256 i = 0; i < nftIds.length; i++) {\n            _transferSpaceShips(\n                msg.sender,\n                address(this),\n                nftIds[i]\n            );\n        }\n    }\n\n    function removeOffer(uint256 offerId) override external {\n        require(_offersId.contains(offerId), \"unknown offer\");\n        Offer memory offer = _offers[offerId];\n        for(uint256 i = 0; i < offer.nftIds.length; i++) {\n            _transferSpaceShips(\n                address(this),\n                offer.lender,\n                offer.nftIds[i]\n            );\n        }\n        _removeOffer(offerId, offer.lender);\n        emit OfferRemoved(offerId, offer.lender);\n    }\n\n    function acceptOffer(uint256 offerId) override external returns(address) {\n        require(_offersId.contains(offerId), \"unknown offer\");\n        Offer memory offer = _offers[offerId];\n\n        uint256 leaveFee = offer.nftIds.length * _leaveFee;\n        _transferMust(msg.sender, address(this), leaveFee);\n\n        uint256 serviceFee = (offer.fee - leaveFee) * serviceFeePercentage / 100;\n        if (serviceFee < serviceFeeMin) {\n            serviceFee = serviceFeeMin;\n        }\n        _transferMust(msg.sender, feeReceiver, serviceFee);\n        _transferMust(msg.sender, offer.lender, offer.fee - leaveFee - serviceFee);\n\n        address rentingContract = _newRenting(\n            offer.lender,\n            msg.sender,\n            offer.nftIds,\n            block.timestamp + offer.duration,\n            offer.percentageForLender\n        );\n\n        for(uint256 i = 0; i < offer.nftIds.length; i++) {\n            _transferSpaceShips(\n                address(this),\n                rentingContract,\n                offer.nftIds[i]\n            );\n        }\n        _removeOffer(offerId, offer.lender);\n        emit OfferAccepted(\n            offerId,\n            offer.lender,\n            msg.sender,\n            rentingContract\n        );\n\n        return address(rentingContract);\n    }\n\n    function closeRenting() override external {\n        require(_rentings.contains(msg.sender), \"unknown renting\");\n        RentingContract rentingContract = RentingContract(msg.sender);\n        IERC20(must).transfer(\n            address(rentingContract),\n            rentingContract.nftIds().length * _leaveFee\n        );\n        _removeRenting(\n            msg.sender,\n            rentingContract.lender(),\n            rentingContract.tenant()\n        );\n        emit RentingContractClosed(\n            msg.sender,\n            rentingContract.lender(),\n            rentingContract.tenant()\n        );\n    }\n\n    function updateLeaveFee(uint256 newFee) override external {\n        require(msg.sender == _owner);\n        _leaveFee = newFee;\n    }\n\n    function updateServiceFee(address newFeeReceiver, uint256 newFeePercentage, uint256 newMinFee) override external {\n        require(msg.sender == _owner);\n        if(newFeeReceiver != address(0)) {\n            feeReceiver = newFeeReceiver;\n        }\n        require(newFeePercentage < 100);\n        serviceFeePercentage = newFeePercentage;\n        serviceFeeMin = newMinFee;\n    }\n\n    function offerAmount() override external view returns (uint256) {\n        return _offersId.length();\n    }\n\n    function rentingAmount() override external view returns (uint256) {\n        return _rentings.length();\n    }\n\n    function offer(\n        uint256 id\n    ) override external view returns (Offer memory) {\n        require(_offersId.contains(id), \"unknown offer id\");\n        return _offers[id];\n    }\n\n    function offersOf(\n        address lender\n    ) override external view returns (Offer[] memory) {\n        Offer[] memory result = new Offer[](_offersOf[lender].length());\n        for (uint256 i = 0; i < _offersOf[lender].length(); i++) {\n            result[i] = _offers[_offersOf[lender].at(i)];\n        }\n        return result;\n    }\n\n    function renting(address id) override public view returns (Renting memory) {\n        require(_rentings.contains(id), \"unknown renting\");\n        RentingContract rentingContract = RentingContract(payable(id));\n        return Renting({\n            id: id,\n            nftIds: rentingContract.nftIds(),\n            lender: rentingContract.lender(),\n            tenant: rentingContract.tenant(),\n            start: rentingContract.start(),\n            end: rentingContract.end(),\n            percentageForLender: rentingContract.percentageForLender()\n        });\n    }\n\n    function rentingsGrantedOf(\n        address lender\n    ) override external view returns (Renting[] memory) {\n        Renting[] memory result =\n            new Renting[](_rentingsGrantedOf[lender].length());\n        for (uint256 i = 0; i < _rentingsGrantedOf[lender].length(); i++) {\n            result[i] = renting(_rentingsGrantedOf[lender].at(i));\n        }\n        return result;\n    }\n\n    function rentingsReceivedOf(\n        address tenant\n    ) override external view returns (Renting[] memory) {\n        Renting[] memory result =\n            new Renting[](_rentingsReceivedOf[tenant].length());\n        for (uint256 i = 0; i < _rentingsReceivedOf[tenant].length(); i++) {\n            result[i] = renting(_rentingsReceivedOf[tenant].at(i));\n        }\n        return result;\n    }\n\n    function offersPaginated(\n        uint256 start,\n        uint256 amount\n    ) override external view returns (Offer[] memory) {\n        Offer[] memory result = new Offer[](amount);\n        for (uint256 i = 0; i < amount; i++) {\n            result[i] = _offers[_offersId.at(start + i)];\n        }\n        return result;\n    }\n\n    function rentingsPaginated(\n        uint256 start,\n        uint256 amount\n     ) override external view returns (Renting[] memory) {\n        Renting[] memory result = new Renting[](amount);\n        for (uint256 i = 0; i < amount; i++) {\n            result[i] = renting(_rentings.at(start + i));\n        }\n        return result;\n    }\n\n    function _addOffer(\n        uint256[] memory nftIds,\n        uint256 duration,\n        uint256 percentageForLender,\n        uint256 fee\n    ) internal returns(uint256 id) {\n        id = _offerIdTracker.current();\n        _offers[id] = Offer({\n            id: id,\n            nftIds: nftIds,\n            lender: msg.sender,\n            duration: duration,\n            percentageForLender: percentageForLender,\n            fee: fee\n        });\n        _offersId.add(id);\n        emit OfferNew(\n            id,\n            msg.sender,\n            nftIds,\n            percentageForLender,\n            fee\n        );\n        _offersOf[msg.sender].add(id);\n        _offerIdTracker.increment();\n    }\n\n    function _transferMust(address from, address to, uint256 amount) internal {\n        IERC20(must).transferFrom(\n            from,\n            to,\n            amount\n        );\n    }\n\n    function _transferSpaceShips(\n        address from,\n        address to,\n        uint256 tokenId\n    ) internal {\n        IERC721(spaceships).safeTransferFrom(\n            from,\n            to,\n            tokenId\n        );\n    }\n\n    function _removeOffer(uint256 offerId, address lender) internal {\n        _offersId.remove(offerId);\n        _offersOf[lender].remove(offerId);\n        delete _offers[offerId];\n    }\n\n    function _newRenting(\n        address lender,\n        address tenant,\n        uint256[] memory nftIds,\n        uint256 end,\n        uint256 percentageForLender\n    ) internal returns(address) {\n        address rentingContract = address(new RentingContract(\n            must,\n            spaceships,\n            stakedSpaceShips,\n            mustManager,\n            lender,\n            tenant,\n            nftIds,\n            end,\n            percentageForLender\n        ));\n\n        _rentings.add(rentingContract);\n        _rentingsGrantedOf[lender].add(rentingContract);\n        _rentingsReceivedOf[tenant].add(rentingContract);\n        return rentingContract;\n    }\n\n    function _removeRenting(\n        address rentingContract,\n        address lender,\n        address tenant\n    ) internal {\n        _rentings.remove(rentingContract);\n        _rentingsGrantedOf[lender].remove(rentingContract);\n        _rentingsReceivedOf[tenant].remove(rentingContract);\n    }\n}\n",
  "sourcePath": "/Users/fred/Documents/projets/cometh-renting-contract/contracts/Factory/RentingContractFactory.sol",
  "compiler": {
    "name": "solc",
    "version": "0.6.12+commit.27d51765.Emscripten.clang"
  },
  "schemaVersion": "3.3.3",
  "updatedAt": "2021-03-23T17:16:10.581Z",
  "networkType": "ethereum",
  "devdoc": {
    "kind": "dev",
    "methods": {},
    "version": 1
  },
  "userdoc": {
    "kind": "user",
    "methods": {},
    "version": 1
  }
}