{
  "contractName": "RentingContract",
  "abi": [
    {
      "inputs": [
        {
          "internalType": "address",
          "name": "mustAddress",
          "type": "address"
        },
        {
          "internalType": "address",
          "name": "spaceshipsAddress",
          "type": "address"
        },
        {
          "internalType": "address",
          "name": "stakedSpaceShipsAddress",
          "type": "address"
        },
        {
          "internalType": "address",
          "name": "mustManagerAddress",
          "type": "address"
        },
        {
          "internalType": "address",
          "name": "newLender",
          "type": "address"
        },
        {
          "internalType": "address",
          "name": "newTenant",
          "type": "address"
        },
        {
          "internalType": "uint256[]",
          "name": "newNFTIds",
          "type": "uint256[]"
        },
        {
          "internalType": "uint256",
          "name": "newEnd",
          "type": "uint256"
        },
        {
          "internalType": "uint256",
          "name": "newPercentageForLender",
          "type": "uint256"
        }
      ],
      "stateMutability": "nonpayable",
      "type": "constructor"
    },
    {
      "inputs": [],
      "name": "end",
      "outputs": [
        {
          "internalType": "uint256",
          "name": "",
          "type": "uint256"
        }
      ],
      "stateMutability": "view",
      "type": "function"
    },
    {
      "inputs": [],
      "name": "factory",
      "outputs": [
        {
          "internalType": "address",
          "name": "",
          "type": "address"
        }
      ],
      "stateMutability": "view",
      "type": "function"
    },
    {
      "inputs": [],
      "name": "lender",
      "outputs": [
        {
          "internalType": "address",
          "name": "",
          "type": "address"
        }
      ],
      "stateMutability": "view",
      "type": "function"
    },
    {
      "inputs": [],
      "name": "lenderStop",
      "outputs": [
        {
          "internalType": "bool",
          "name": "",
          "type": "bool"
        }
      ],
      "stateMutability": "view",
      "type": "function"
    },
    {
      "inputs": [],
      "name": "must",
      "outputs": [
        {
          "internalType": "contract IERC20",
          "name": "",
          "type": "address"
        }
      ],
      "stateMutability": "view",
      "type": "function"
    },
    {
      "inputs": [],
      "name": "percentageForLender",
      "outputs": [
        {
          "internalType": "uint256",
          "name": "",
          "type": "uint256"
        }
      ],
      "stateMutability": "view",
      "type": "function"
    },
    {
      "inputs": [],
      "name": "spaceships",
      "outputs": [
        {
          "internalType": "address",
          "name": "",
          "type": "address"
        }
      ],
      "stateMutability": "view",
      "type": "function"
    },
    {
      "inputs": [],
      "name": "stakedSpaceShips",
      "outputs": [
        {
          "internalType": "address",
          "name": "",
          "type": "address"
        }
      ],
      "stateMutability": "view",
      "type": "function"
    },
    {
      "inputs": [],
      "name": "start",
      "outputs": [
        {
          "internalType": "uint256",
          "name": "",
          "type": "uint256"
        }
      ],
      "stateMutability": "view",
      "type": "function"
    },
    {
      "inputs": [],
      "name": "tenant",
      "outputs": [
        {
          "internalType": "address",
          "name": "",
          "type": "address"
        }
      ],
      "stateMutability": "view",
      "type": "function"
    },
    {
      "inputs": [],
      "name": "tenantStop",
      "outputs": [
        {
          "internalType": "bool",
          "name": "",
          "type": "bool"
        }
      ],
      "stateMutability": "view",
      "type": "function"
    },
    {
      "stateMutability": "payable",
      "type": "receive"
    },
    {
      "inputs": [
        {
          "internalType": "address",
          "name": "",
          "type": "address"
        },
        {
          "internalType": "address",
          "name": "from",
          "type": "address"
        },
        {
          "internalType": "uint256",
          "name": "",
          "type": "uint256"
        },
        {
          "internalType": "bytes",
          "name": "",
          "type": "bytes"
        }
      ],
      "name": "onERC721Received",
      "outputs": [
        {
          "internalType": "bytes4",
          "name": "",
          "type": "bytes4"
        }
      ],
      "stateMutability": "nonpayable",
      "type": "function"
    },
    {
      "inputs": [
        {
          "internalType": "uint256",
          "name": "tokenId",
          "type": "uint256"
        },
        {
          "internalType": "uint256",
          "name": "gameId",
          "type": "uint256"
        }
      ],
      "name": "stake",
      "outputs": [],
      "stateMutability": "nonpayable",
      "type": "function"
    },
    {
      "inputs": [
        {
          "internalType": "address",
          "name": "token",
          "type": "address"
        }
      ],
      "name": "claim",
      "outputs": [],
      "stateMutability": "nonpayable",
      "type": "function"
    },
    {
      "inputs": [
        {
          "internalType": "address[]",
          "name": "tokens",
          "type": "address[]"
        }
      ],
      "name": "claimBatch",
      "outputs": [],
      "stateMutability": "nonpayable",
      "type": "function"
    },
    {
      "inputs": [
        {
          "internalType": "address[]",
          "name": "tokens",
          "type": "address[]"
        }
      ],
      "name": "claimBatchAndClose",
      "outputs": [],
      "stateMutability": "nonpayable",
      "type": "function"
    },
    {
      "inputs": [],
      "name": "close",
      "outputs": [],
      "stateMutability": "nonpayable",
      "type": "function"
    },
    {
      "inputs": [],
      "name": "prematureStop",
      "outputs": [],
      "stateMutability": "nonpayable",
      "type": "function"
    },
    {
      "inputs": [],
      "name": "nftIds",
      "outputs": [
        {
          "internalType": "uint256[]",
          "name": "",
          "type": "uint256[]"
        }
      ],
      "stateMutability": "view",
      "type": "function"
    }
  ],
  "bytecode": "0x60806040523480156200001157600080fd5b50604051620022813803806200228183398181016040526101208110156200003857600080fd5b81019080805190602001909291908051906020019092919080519060200190929190805190602001909291908051906020019092919080519060200190929190805160405193929190846401000000008211156200009557600080fd5b83820191506020820185811115620000ac57600080fd5b8251866020820283011164010000000082111715620000ca57600080fd5b8083526020830192505050908051906020019060200280838360005b8381101562000103578082015181840152602081019050620000e6565b505050509050016040526020018051906020019092919080519060200190929190505050600160008190555088600960006101000a81548173ffffffffffffffffffffffffffffffffffffffff021916908373ffffffffffffffffffffffffffffffffffffffff16021790555087600760006101000a81548173ffffffffffffffffffffffffffffffffffffffff021916908373ffffffffffffffffffffffffffffffffffffffff16021790555086600860006101000a81548173ffffffffffffffffffffffffffffffffffffffff021916908373ffffffffffffffffffffffffffffffffffffffff16021790555033600660006101000a81548173ffffffffffffffffffffffffffffffffffffffff021916908373ffffffffffffffffffffffffffffffffffffffff16021790555082600a90805190602001906200024b929190620004a1565b5084600160006101000a81548173ffffffffffffffffffffffffffffffffffffffff021916908373ffffffffffffffffffffffffffffffffffffffff16021790555083600260006101000a81548173ffffffffffffffffffffffffffffffffffffffff021916908373ffffffffffffffffffffffffffffffffffffffff160217905550426003819055508160048190555080600581905550600860009054906101000a900473ffffffffffffffffffffffffffffffffffffffff1673ffffffffffffffffffffffffffffffffffffffff1663a22cb465600260009054906101000a900473ffffffffffffffffffffffffffffffffffffffff1660016040518363ffffffff1660e01b8152600401808373ffffffffffffffffffffffffffffffffffffffff168152602001821515815260200192505050600060405180830381600087803b1580156200039c57600080fd5b505af1158015620003b1573d6000803e3d6000fd5b50505050600960009054906101000a900473ffffffffffffffffffffffffffffffffffffffff1673ffffffffffffffffffffffffffffffffffffffff1663095ea7b3876a084595161401484a0000006040518363ffffffff1660e01b8152600401808373ffffffffffffffffffffffffffffffffffffffff16815260200182815260200192505050602060405180830381600087803b1580156200045457600080fd5b505af115801562000469573d6000803e3d6000fd5b505050506040513d60208110156200048057600080fd5b81019080805190602001909291905050505050505050505050505062000512565b828054828255906000526020600020908101928215620004e0579160200282015b82811115620004df578251825591602001919060010190620004c2565b5b509050620004ef9190620004f3565b5090565b5b808211156200050e576000816000905550600101620004f4565b5090565b611d5f80620005226000396000f3fe6080604052600436106101185760003560e01c80639acfe6ef116100a0578063cd0c623511610064578063cd0c6235146104e0578063d4abe71714610521578063d6062a51146105e6578063ddfe867f146106ab578063efbe1c1c146107175761011f565b80639acfe6ef146103b1578063adf07791146103f2578063bcead63e14610433578063be9a655514610474578063c45a01551461049f5761011f565b8063348bf5f1116100e7578063348bf5f1146102e457806343d726d61461031157806367667b58146103285780637b0472f0146103555780638cedf5161461039a5761011f565b80630979f77814610124578063150b7a021461014f5780631e83409a1461025257806324f0942d146102a35761011f565b3661011f57005b600080fd5b34801561013057600080fd5b50610139610742565b6040518082815260200191505060405180910390f35b34801561015b57600080fd5b5061021d6004803603608081101561017257600080fd5b81019080803573ffffffffffffffffffffffffffffffffffffffff169060200190929190803573ffffffffffffffffffffffffffffffffffffffff16906020019092919080359060200190929190803590602001906401000000008111156101d957600080fd5b8201836020820111156101eb57600080fd5b8035906020019184600183028401116401000000008311171561020d57600080fd5b9091929391929390505050610748565b60405180827bffffffffffffffffffffffffffffffffffffffffffffffffffffffff1916815260200191505060405180910390f35b34801561025e57600080fd5b506102a16004803603602081101561027557600080fd5b81019080803573ffffffffffffffffffffffffffffffffffffffff1690602001909291905050506109ea565b005b3480156102af57600080fd5b506102b8610b9a565b604051808273ffffffffffffffffffffffffffffffffffffffff16815260200191505060405180910390f35b3480156102f057600080fd5b506102f9610bc0565b60405180821515815260200191505060405180910390f35b34801561031d57600080fd5b50610326610bd3565b005b34801561033457600080fd5b5061033d61115f565b60405180821515815260200191505060405180910390f35b34801561036157600080fd5b506103986004803603604081101561037857600080fd5b810190808035906020019092919080359060200190929190505050611172565b005b3480156103a657600080fd5b506103af6112ed565b005b3480156103bd57600080fd5b506103c6611426565b604051808273ffffffffffffffffffffffffffffffffffffffff16815260200191505060405180910390f35b3480156103fe57600080fd5b5061040761144c565b604051808273ffffffffffffffffffffffffffffffffffffffff16815260200191505060405180910390f35b34801561043f57600080fd5b50610448611472565b604051808273ffffffffffffffffffffffffffffffffffffffff16815260200191505060405180910390f35b34801561048057600080fd5b50610489611498565b6040518082815260200191505060405180910390f35b3480156104ab57600080fd5b506104b461149e565b604051808273ffffffffffffffffffffffffffffffffffffffff16815260200191505060405180910390f35b3480156104ec57600080fd5b506104f56114c4565b604051808273ffffffffffffffffffffffffffffffffffffffff16815260200191505060405180910390f35b34801561052d57600080fd5b506105e46004803603602081101561054457600080fd5b810190808035906020019064010000000081111561056157600080fd5b82018360208201111561057357600080fd5b8035906020019184602083028401116401000000008311171561059557600080fd5b919080806020026020016040519081016040528093929190818152602001838360200280828437600081840152601f19601f8201169050808301925050505050505091929192905050506114ea565b005b3480156105f257600080fd5b506106a96004803603602081101561060957600080fd5b810190808035906020019064010000000081111561062657600080fd5b82018360208201111561063857600080fd5b8035906020019184602083028401116401000000008311171561065a57600080fd5b919080806020026020016040519081016040528093929190818152602001838360200280828437600081840152601f19601f8201169050808301925050505050505091929192905050506116c7565b005b3480156106b757600080fd5b506106c061187f565b6040518080602001828103825283818151815260200191508051906020019060200280838360005b838110156107035780820151818401526020810190506106e8565b505050509050019250505060405180910390f35b34801561072357600080fd5b5061072c6118d7565b6040518082815260200191505060405180910390f35b60055481565b6000600760009054906101000a900473ffffffffffffffffffffffffffffffffffffffff1673ffffffffffffffffffffffffffffffffffffffff163373ffffffffffffffffffffffffffffffffffffffff1614806107f35750600860009054906101000a900473ffffffffffffffffffffffffffffffffffffffff1673ffffffffffffffffffffffffffffffffffffffff163373ffffffffffffffffffffffffffffffffffffffff16145b610865576040517f08c379a000000000000000000000000000000000000000000000000000000000815260040180806020018281038252600d8152602001807f696e76616c696420746f6b656e0000000000000000000000000000000000000081525060200191505060405180910390fd5b600760009054906101000a900473ffffffffffffffffffffffffffffffffffffffff1673ffffffffffffffffffffffffffffffffffffffff163373ffffffffffffffffffffffffffffffffffffffff1614156109d757600660009054906101000a900473ffffffffffffffffffffffffffffffffffffffff1673ffffffffffffffffffffffffffffffffffffffff168573ffffffffffffffffffffffffffffffffffffffff1614806109645750600860009054906101000a900473ffffffffffffffffffffffffffffffffffffffff1673ffffffffffffffffffffffffffffffffffffffff168573ffffffffffffffffffffffffffffffffffffffff16145b6109d6576040517f08c379a000000000000000000000000000000000000000000000000000000000815260040180806020018281038252600c8152602001807f696e76616c69642066726f6d000000000000000000000000000000000000000081525060200191505060405180910390fd5b5b63150b7a0260e01b905095945050505050565b60026000541415610a63576040517f08c379a000000000000000000000000000000000000000000000000000000000815260040180806020018281038252601f8152602001807f5265656e7472616e637947756172643a207265656e7472616e742063616c6c0081525060200191505060405180910390fd5b6002600081905550600160009054906101000a900473ffffffffffffffffffffffffffffffffffffffff1673ffffffffffffffffffffffffffffffffffffffff163373ffffffffffffffffffffffffffffffffffffffff161480610b145750600260009054906101000a900473ffffffffffffffffffffffffffffffffffffffff1673ffffffffffffffffffffffffffffffffffffffff163373ffffffffffffffffffffffffffffffffffffffff16145b610b86576040517f08c379a000000000000000000000000000000000000000000000000000000000815260040180806020018281038252600e8152602001807f696e76616c69642063616c6c657200000000000000000000000000000000000081525060200191505060405180910390fd5b610b8f816118dd565b600160008190555050565b600760009054906101000a900473ffffffffffffffffffffffffffffffffffffffff1681565b600b60009054906101000a900460ff1681565b600160009054906101000a900473ffffffffffffffffffffffffffffffffffffffff1673ffffffffffffffffffffffffffffffffffffffff163373ffffffffffffffffffffffffffffffffffffffff161480610c7c5750600260009054906101000a900473ffffffffffffffffffffffffffffffffffffffff1673ffffffffffffffffffffffffffffffffffffffff163373ffffffffffffffffffffffffffffffffffffffff16145b610cee576040517f08c379a000000000000000000000000000000000000000000000000000000000815260040180806020018281038252600e8152602001807f696e76616c69642063616c6c657200000000000000000000000000000000000081525060200191505060405180910390fd5b600454421015610d66576040517f08c379a000000000000000000000000000000000000000000000000000000000815260040180806020018281038252600a8152602001807f756e66696e69736865640000000000000000000000000000000000000000000081525060200191505060405180910390fd5b600660009054906101000a900473ffffffffffffffffffffffffffffffffffffffff1673ffffffffffffffffffffffffffffffffffffffff1663ece358296040518163ffffffff1660e01b8152600401600060405180830381600087803b158015610dd057600080fd5b505af1158015610de4573d6000803e3d6000fd5b505050506000600860009054906101000a900473ffffffffffffffffffffffffffffffffffffffff1673ffffffffffffffffffffffffffffffffffffffff166370a08231306040518263ffffffff1660e01b8152600401808273ffffffffffffffffffffffffffffffffffffffff16815260200191505060206040518083038186803b158015610e7357600080fd5b505afa158015610e87573d6000803e3d6000fd5b505050506040513d6020811015610e9d57600080fd5b8101908080519060200190929190505050905060005b8181101561103b576000600860009054906101000a900473ffffffffffffffffffffffffffffffffffffffff1673ffffffffffffffffffffffffffffffffffffffff16632f745c593060006040518363ffffffff1660e01b8152600401808373ffffffffffffffffffffffffffffffffffffffff1681526020018281526020019250505060206040518083038186803b158015610f4f57600080fd5b505afa158015610f63573d6000803e3d6000fd5b505050506040513d6020811015610f7957600080fd5b81019080805190602001909291905050509050600860009054906101000a900473ffffffffffffffffffffffffffffffffffffffff1673ffffffffffffffffffffffffffffffffffffffff1663427c0716826040518263ffffffff1660e01b8152600401808281526020018060200182810382526000815260200160200192505050600060405180830381600087803b15801561101557600080fd5b505af1158015611029573d6000803e3d6000fd5b50505050508080600101915050610eb3565b5060005b600a8054905081101561115b57600760009054906101000a900473ffffffffffffffffffffffffffffffffffffffff1673ffffffffffffffffffffffffffffffffffffffff166342842e0e30600160009054906101000a900473ffffffffffffffffffffffffffffffffffffffff16600a85815481106110bb57fe5b90600052602060002001546040518463ffffffff1660e01b8152600401808473ffffffffffffffffffffffffffffffffffffffff1681526020018373ffffffffffffffffffffffffffffffffffffffff1681526020018281526020019350505050600060405180830381600087803b15801561113657600080fd5b505af115801561114a573d6000803e3d6000fd5b50505050808060010191505061103f565b5050565b600b60019054906101000a900460ff1681565b600760009054906101000a900473ffffffffffffffffffffffffffffffffffffffff1673ffffffffffffffffffffffffffffffffffffffff1663b88d4fde30600860009054906101000a900473ffffffffffffffffffffffffffffffffffffffff168585604051602001808281526020019150506040516020818303038152906040526040518563ffffffff1660e01b8152600401808573ffffffffffffffffffffffffffffffffffffffff1681526020018473ffffffffffffffffffffffffffffffffffffffff16815260200183815260200180602001828103825283818151815260200191508051906020019080838360005b83811015611282578082015181840152602081019050611267565b50505050905090810190601f1680156112af5780820380516001836020036101000a031916815260200191505b5095505050505050600060405180830381600087803b1580156112d157600080fd5b505af11580156112e5573d6000803e3d6000fd5b505050505050565b600260009054906101000a900473ffffffffffffffffffffffffffffffffffffffff1673ffffffffffffffffffffffffffffffffffffffff163373ffffffffffffffffffffffffffffffffffffffff16141561136e57600b60019054906101000a900460ff1615600b60016101000a81548160ff0219169083151502179055505b600160009054906101000a900473ffffffffffffffffffffffffffffffffffffffff1673ffffffffffffffffffffffffffffffffffffffff163373ffffffffffffffffffffffffffffffffffffffff1614156113ef57600b60009054906101000a900460ff1615600b60006101000a81548160ff0219169083151502179055505b600b60019054906101000a900460ff1680156114175750600b60009054906101000a900460ff165b1561142457426004819055505b565b600960009054906101000a900473ffffffffffffffffffffffffffffffffffffffff1681565b600260009054906101000a900473ffffffffffffffffffffffffffffffffffffffff1681565b600160009054906101000a900473ffffffffffffffffffffffffffffffffffffffff1681565b60035481565b600660009054906101000a900473ffffffffffffffffffffffffffffffffffffffff1681565b600860009054906101000a900473ffffffffffffffffffffffffffffffffffffffff1681565b60026000541415611563576040517f08c379a000000000000000000000000000000000000000000000000000000000815260040180806020018281038252601f8152602001807f5265656e7472616e637947756172643a207265656e7472616e742063616c6c0081525060200191505060405180910390fd5b6002600081905550600160009054906101000a900473ffffffffffffffffffffffffffffffffffffffff1673ffffffffffffffffffffffffffffffffffffffff163373ffffffffffffffffffffffffffffffffffffffff1614806116145750600260009054906101000a900473ffffffffffffffffffffffffffffffffffffffff1673ffffffffffffffffffffffffffffffffffffffff163373ffffffffffffffffffffffffffffffffffffffff16145b611686576040517f08c379a000000000000000000000000000000000000000000000000000000000815260040180806020018281038252600e8152602001807f696e76616c69642063616c6c657200000000000000000000000000000000000081525060200191505060405180910390fd5b60005b81518110156116bb576116ae8282815181106116a157fe5b60200260200101516118dd565b8080600101915050611689565b50600160008190555050565b60026000541415611740576040517f08c379a000000000000000000000000000000000000000000000000000000000815260040180806020018281038252601f8152602001807f5265656e7472616e637947756172643a207265656e7472616e742063616c6c0081525060200191505060405180910390fd5b6002600081905550600160009054906101000a900473ffffffffffffffffffffffffffffffffffffffff1673ffffffffffffffffffffffffffffffffffffffff163373ffffffffffffffffffffffffffffffffffffffff1614806117f15750600260009054906101000a900473ffffffffffffffffffffffffffffffffffffffff1673ffffffffffffffffffffffffffffffffffffffff163373ffffffffffffffffffffffffffffffffffffffff16145b611863576040517f08c379a000000000000000000000000000000000000000000000000000000000815260040180806020018281038252600e8152602001807f696e76616c69642063616c6c657200000000000000000000000000000000000081525060200191505060405180910390fd5b61186c81611932565b611874610bd3565b600160008190555050565b6060600a8054806020026020016040519081016040528092919081815260200182805480156118cd57602002820191906000526020600020905b8154815260200190600101908083116118b9575b5050505050905090565b60045481565b60008073ffffffffffffffffffffffffffffffffffffffff168273ffffffffffffffffffffffffffffffffffffffff1614156119225761191b61196b565b905061192e565b61192b82611a62565b90505b5050565b60005b81518110156119675761195a82828151811061194d57fe5b60200260200101516118dd565b8080600101915050611935565b5050565b6000479050600081141561197e57611a5f565b600160009054906101000a900473ffffffffffffffffffffffffffffffffffffffff1673ffffffffffffffffffffffffffffffffffffffff166108fc60646005544702816119c857fe5b049081150290604051600060405180830381858888f193505050501580156119f4573d6000803e3d6000fd5b50600260009054906101000a900473ffffffffffffffffffffffffffffffffffffffff1673ffffffffffffffffffffffffffffffffffffffff166108fc479081150290604051600060405180830381858888f19350505050158015611a5d573d6000803e3d6000fd5b505b90565b60008173ffffffffffffffffffffffffffffffffffffffff166370a08231306040518263ffffffff1660e01b8152600401808273ffffffffffffffffffffffffffffffffffffffff16815260200191505060206040518083038186803b158015611acb57600080fd5b505afa158015611adf573d6000803e3d6000fd5b505050506040513d6020811015611af557600080fd5b810190808051906020019092919050505090506000811415611b1657611d24565b600960009054906101000a900473ffffffffffffffffffffffffffffffffffffffff1673ffffffffffffffffffffffffffffffffffffffff168273ffffffffffffffffffffffffffffffffffffffff1614611c545760006064600554830281611b7b57fe5b0490508273ffffffffffffffffffffffffffffffffffffffff1663a9059cbb600160009054906101000a900473ffffffffffffffffffffffffffffffffffffffff16836040518363ffffffff1660e01b8152600401808373ffffffffffffffffffffffffffffffffffffffff16815260200182815260200192505050602060405180830381600087803b158015611c1157600080fd5b505af1158015611c25573d6000803e3d6000fd5b505050506040513d6020811015611c3b57600080fd5b8101908080519060200190929190505050508082039150505b8173ffffffffffffffffffffffffffffffffffffffff1663a9059cbb600260009054906101000a900473ffffffffffffffffffffffffffffffffffffffff16836040518363ffffffff1660e01b8152600401808373ffffffffffffffffffffffffffffffffffffffff16815260200182815260200192505050602060405180830381600087803b158015611ce757600080fd5b505af1158015611cfb573d6000803e3d6000fd5b505050506040513d6020811015611d1157600080fd5b8101908080519060200190929190505050505b91905056fea2646970667358221220d1ac762d2488d5c4dc1801bbd8def83d79ec464199b3eac7372fd53e687ef11b64736f6c634300060c0033",
  "immutableReferences": {},
  "source": "// SPDX-License-Identifier: MIT\n\npragma solidity ^0.6.0;\n\nimport \"./Interface/IStakedSpaceShips.sol\";\nimport \"@openzeppelin/contracts/utils/EnumerableSet.sol\";\nimport \"@openzeppelin/contracts/token/ERC721/IERC721Enumerable.sol\";\nimport \"@openzeppelin/contracts/token/ERC20/IERC20.sol\";\nimport \"@openzeppelin/contracts/utils/ReentrancyGuard.sol\";\nimport \"./Factory/IRentingContractFactory.sol\";\nimport \"./IRentingContract.sol\";\n\ncontract RentingContract is IRentingContract, ReentrancyGuard {\n    address public override lender;\n    address public override tenant;\n    uint256 public override start;\n    uint256 public override end;\n    uint256 public override percentageForLender;\n\n    address public factory;\n    address public spaceships;\n    address public stakedSpaceShips;\n    IERC20 public must;\n\n    uint256[] private _nftIds;\n\n    bool public lenderStop;\n    bool public tenantStop;\n\n    modifier lenderOrTenant() {\n        require(msg.sender == lender || msg.sender == tenant, \"invalid caller\");\n        _;\n    }\n\n    constructor(\n        address mustAddress,\n        address spaceshipsAddress,\n        address stakedSpaceShipsAddress,\n        address mustManagerAddress,\n        address newLender,\n        address newTenant,\n        uint256[] memory newNFTIds,\n        uint256 newEnd,\n        uint256 newPercentageForLender\n    ) public {\n        must = IERC20(mustAddress);\n        spaceships = spaceshipsAddress;\n        stakedSpaceShips = stakedSpaceShipsAddress;\n        factory = msg.sender;\n        _nftIds = newNFTIds;\n        lender = newLender;\n        tenant = newTenant;\n        start = block.timestamp;\n        end = newEnd;\n        percentageForLender = newPercentageForLender;\n        IERC721Enumerable(stakedSpaceShips).setApprovalForAll(tenant, true);\n        must.approve(mustManagerAddress, 10000000 ether);\n    }\n\n    function onERC721Received(address, address from, uint256, bytes calldata) override external returns(bytes4) {\n        require(msg.sender == spaceships || msg.sender == stakedSpaceShips, \"invalid token\");\n        if(msg.sender == spaceships) {\n            require (from == factory || from == stakedSpaceShips, \"invalid from\");\n        }\n        return this.onERC721Received.selector;\n    }\n\n    function stake(uint256 tokenId, uint256 gameId) override public {\n        IERC721Enumerable(spaceships).safeTransferFrom(\n            address(this),\n            stakedSpaceShips,\n            tokenId,\n            abi.encode(gameId)\n        );\n    }\n\n    function claim(address token) override external nonReentrant lenderOrTenant {\n        _claim(token);\n    }\n\n    function claimBatch(address[] memory tokens) override external nonReentrant lenderOrTenant {\n        for(uint256 i = 0; i < tokens.length; i++) {\n            _claim(tokens[i]);\n        }\n    }\n\n    function claimBatchAndClose(address[] memory tokens) override external nonReentrant lenderOrTenant {\n        _claimBatch(tokens);\n        close();\n    }\n\n    function close() override public lenderOrTenant {\n        require(block.timestamp >= end, \"unfinished\");\n        IRentingContractFactory(factory).closeRenting();\n\n        uint256 amountStaked = IERC721Enumerable(stakedSpaceShips).balanceOf(address(this));\n        for(uint256 i = 0; i < amountStaked; i++) {\n            uint256 tokenId = IERC721Enumerable(stakedSpaceShips).tokenOfOwnerByIndex(address(this), 0);\n            IStakedSpaceShips(stakedSpaceShips).exit(tokenId, '');\n        }\n\n        for(uint256 i = 0; i < _nftIds.length; i++) {\n            IERC721Enumerable(spaceships).safeTransferFrom(address(this), lender, _nftIds[i]);\n        }\n    }\n\n    function prematureStop() override external {\n        if(msg.sender == tenant) tenantStop = !tenantStop;\n        if(msg.sender == lender) lenderStop = !lenderStop;\n        if(tenantStop && lenderStop) end = block.timestamp;\n    }\n\n    function nftIds() override external view returns (uint256[] memory) {\n        return _nftIds;\n    }\n\n    function _retrieveNativeGains() private returns(uint256 amount) {\n        amount = address(this).balance;\n        if(amount == 0) return amount;\n        payable(lender).transfer(address(this).balance * percentageForLender / 100);\n        payable(tenant).transfer(address(this).balance);\n    }\n\n    function _retrieveERC20Gains(IERC20 token) private returns(uint256 amount) {\n        amount = token.balanceOf(address(this));\n        if(amount == 0) return amount;\n        if(address(token) != address(must)) {\n            uint256 amountForLender = amount * percentageForLender / 100;\n            token.transfer(lender, amountForLender);\n            amount = amount - amountForLender;\n        }\n        token.transfer(tenant, amount);\n    }\n\n    function _claim(address token) private {\n        uint256 amount;\n        if(token == address(0)) {\n            amount = _retrieveNativeGains();\n        } else {\n            amount = _retrieveERC20Gains(IERC20(token));\n        }\n    }\n\n    function _claimBatch(address[] memory tokens) private {\n        for(uint256 i = 0; i < tokens.length; i++) {\n            _claim(tokens[i]);\n        }\n    }\n\n    receive() external payable {}\n}\n",
  "sourcePath": "/Users/fred/Documents/projets/cometh-renting-contract/contracts/RentingContract.sol",
  "compiler": {
    "name": "solc",
    "version": "0.6.12+commit.27d51765.Emscripten.clang"
  },
  "schemaVersion": "3.3.3",
  "updatedAt": "2021-03-23T13:40:39.848Z",
  "devdoc": {
    "kind": "dev",
    "methods": {},
    "version": 1
  },
  "userdoc": {
    "kind": "user",
    "methods": {},
    "version": 1
  }
}