{
  "contractName": "TestERC721",
  "abi": [
    {
      "inputs": [],
      "stateMutability": "nonpayable",
      "type": "constructor"
    },
    {
      "anonymous": false,
      "inputs": [
        {
          "indexed": true,
          "internalType": "address",
          "name": "owner",
          "type": "address"
        },
        {
          "indexed": true,
          "internalType": "address",
          "name": "approved",
          "type": "address"
        },
        {
          "indexed": true,
          "internalType": "uint256",
          "name": "tokenId",
          "type": "uint256"
        }
      ],
      "name": "Approval",
      "type": "event"
    },
    {
      "anonymous": false,
      "inputs": [
        {
          "indexed": true,
          "internalType": "address",
          "name": "owner",
          "type": "address"
        },
        {
          "indexed": true,
          "internalType": "address",
          "name": "operator",
          "type": "address"
        },
        {
          "indexed": false,
          "internalType": "bool",
          "name": "approved",
          "type": "bool"
        }
      ],
      "name": "ApprovalForAll",
      "type": "event"
    },
    {
      "anonymous": false,
      "inputs": [
        {
          "indexed": false,
          "internalType": "address",
          "name": "account",
          "type": "address"
        }
      ],
      "name": "Paused",
      "type": "event"
    },
    {
      "anonymous": false,
      "inputs": [
        {
          "indexed": true,
          "internalType": "bytes32",
          "name": "role",
          "type": "bytes32"
        },
        {
          "indexed": true,
          "internalType": "bytes32",
          "name": "previousAdminRole",
          "type": "bytes32"
        },
        {
          "indexed": true,
          "internalType": "bytes32",
          "name": "newAdminRole",
          "type": "bytes32"
        }
      ],
      "name": "RoleAdminChanged",
      "type": "event"
    },
    {
      "anonymous": false,
      "inputs": [
        {
          "indexed": true,
          "internalType": "bytes32",
          "name": "role",
          "type": "bytes32"
        },
        {
          "indexed": true,
          "internalType": "address",
          "name": "account",
          "type": "address"
        },
        {
          "indexed": true,
          "internalType": "address",
          "name": "sender",
          "type": "address"
        }
      ],
      "name": "RoleGranted",
      "type": "event"
    },
    {
      "anonymous": false,
      "inputs": [
        {
          "indexed": true,
          "internalType": "bytes32",
          "name": "role",
          "type": "bytes32"
        },
        {
          "indexed": true,
          "internalType": "address",
          "name": "account",
          "type": "address"
        },
        {
          "indexed": true,
          "internalType": "address",
          "name": "sender",
          "type": "address"
        }
      ],
      "name": "RoleRevoked",
      "type": "event"
    },
    {
      "anonymous": false,
      "inputs": [
        {
          "indexed": true,
          "internalType": "address",
          "name": "from",
          "type": "address"
        },
        {
          "indexed": true,
          "internalType": "address",
          "name": "to",
          "type": "address"
        },
        {
          "indexed": true,
          "internalType": "uint256",
          "name": "tokenId",
          "type": "uint256"
        }
      ],
      "name": "Transfer",
      "type": "event"
    },
    {
      "anonymous": false,
      "inputs": [
        {
          "indexed": false,
          "internalType": "address",
          "name": "account",
          "type": "address"
        }
      ],
      "name": "Unpaused",
      "type": "event"
    },
    {
      "inputs": [],
      "name": "DEFAULT_ADMIN_ROLE",
      "outputs": [
        {
          "internalType": "bytes32",
          "name": "",
          "type": "bytes32"
        }
      ],
      "stateMutability": "view",
      "type": "function"
    },
    {
      "inputs": [],
      "name": "MINTER_ROLE",
      "outputs": [
        {
          "internalType": "bytes32",
          "name": "",
          "type": "bytes32"
        }
      ],
      "stateMutability": "view",
      "type": "function"
    },
    {
      "inputs": [],
      "name": "PAUSER_ROLE",
      "outputs": [
        {
          "internalType": "bytes32",
          "name": "",
          "type": "bytes32"
        }
      ],
      "stateMutability": "view",
      "type": "function"
    },
    {
      "inputs": [
        {
          "internalType": "address",
          "name": "to",
          "type": "address"
        },
        {
          "internalType": "uint256",
          "name": "tokenId",
          "type": "uint256"
        }
      ],
      "name": "approve",
      "outputs": [],
      "stateMutability": "nonpayable",
      "type": "function"
    },
    {
      "inputs": [
        {
          "internalType": "address",
          "name": "owner",
          "type": "address"
        }
      ],
      "name": "balanceOf",
      "outputs": [
        {
          "internalType": "uint256",
          "name": "",
          "type": "uint256"
        }
      ],
      "stateMutability": "view",
      "type": "function"
    },
    {
      "inputs": [],
      "name": "baseURI",
      "outputs": [
        {
          "internalType": "string",
          "name": "",
          "type": "string"
        }
      ],
      "stateMutability": "view",
      "type": "function"
    },
    {
      "inputs": [
        {
          "internalType": "uint256",
          "name": "tokenId",
          "type": "uint256"
        }
      ],
      "name": "burn",
      "outputs": [],
      "stateMutability": "nonpayable",
      "type": "function"
    },
    {
      "inputs": [
        {
          "internalType": "uint256",
          "name": "tokenId",
          "type": "uint256"
        }
      ],
      "name": "getApproved",
      "outputs": [
        {
          "internalType": "address",
          "name": "",
          "type": "address"
        }
      ],
      "stateMutability": "view",
      "type": "function"
    },
    {
      "inputs": [
        {
          "internalType": "bytes32",
          "name": "role",
          "type": "bytes32"
        }
      ],
      "name": "getRoleAdmin",
      "outputs": [
        {
          "internalType": "bytes32",
          "name": "",
          "type": "bytes32"
        }
      ],
      "stateMutability": "view",
      "type": "function"
    },
    {
      "inputs": [
        {
          "internalType": "bytes32",
          "name": "role",
          "type": "bytes32"
        },
        {
          "internalType": "uint256",
          "name": "index",
          "type": "uint256"
        }
      ],
      "name": "getRoleMember",
      "outputs": [
        {
          "internalType": "address",
          "name": "",
          "type": "address"
        }
      ],
      "stateMutability": "view",
      "type": "function"
    },
    {
      "inputs": [
        {
          "internalType": "bytes32",
          "name": "role",
          "type": "bytes32"
        }
      ],
      "name": "getRoleMemberCount",
      "outputs": [
        {
          "internalType": "uint256",
          "name": "",
          "type": "uint256"
        }
      ],
      "stateMutability": "view",
      "type": "function"
    },
    {
      "inputs": [
        {
          "internalType": "bytes32",
          "name": "role",
          "type": "bytes32"
        },
        {
          "internalType": "address",
          "name": "account",
          "type": "address"
        }
      ],
      "name": "grantRole",
      "outputs": [],
      "stateMutability": "nonpayable",
      "type": "function"
    },
    {
      "inputs": [
        {
          "internalType": "bytes32",
          "name": "role",
          "type": "bytes32"
        },
        {
          "internalType": "address",
          "name": "account",
          "type": "address"
        }
      ],
      "name": "hasRole",
      "outputs": [
        {
          "internalType": "bool",
          "name": "",
          "type": "bool"
        }
      ],
      "stateMutability": "view",
      "type": "function"
    },
    {
      "inputs": [
        {
          "internalType": "address",
          "name": "owner",
          "type": "address"
        },
        {
          "internalType": "address",
          "name": "operator",
          "type": "address"
        }
      ],
      "name": "isApprovedForAll",
      "outputs": [
        {
          "internalType": "bool",
          "name": "",
          "type": "bool"
        }
      ],
      "stateMutability": "view",
      "type": "function"
    },
    {
      "inputs": [
        {
          "internalType": "address",
          "name": "to",
          "type": "address"
        }
      ],
      "name": "mint",
      "outputs": [],
      "stateMutability": "nonpayable",
      "type": "function"
    },
    {
      "inputs": [],
      "name": "name",
      "outputs": [
        {
          "internalType": "string",
          "name": "",
          "type": "string"
        }
      ],
      "stateMutability": "view",
      "type": "function"
    },
    {
      "inputs": [
        {
          "internalType": "uint256",
          "name": "tokenId",
          "type": "uint256"
        }
      ],
      "name": "ownerOf",
      "outputs": [
        {
          "internalType": "address",
          "name": "",
          "type": "address"
        }
      ],
      "stateMutability": "view",
      "type": "function"
    },
    {
      "inputs": [],
      "name": "pause",
      "outputs": [],
      "stateMutability": "nonpayable",
      "type": "function"
    },
    {
      "inputs": [],
      "name": "paused",
      "outputs": [
        {
          "internalType": "bool",
          "name": "",
          "type": "bool"
        }
      ],
      "stateMutability": "view",
      "type": "function"
    },
    {
      "inputs": [
        {
          "internalType": "bytes32",
          "name": "role",
          "type": "bytes32"
        },
        {
          "internalType": "address",
          "name": "account",
          "type": "address"
        }
      ],
      "name": "renounceRole",
      "outputs": [],
      "stateMutability": "nonpayable",
      "type": "function"
    },
    {
      "inputs": [
        {
          "internalType": "bytes32",
          "name": "role",
          "type": "bytes32"
        },
        {
          "internalType": "address",
          "name": "account",
          "type": "address"
        }
      ],
      "name": "revokeRole",
      "outputs": [],
      "stateMutability": "nonpayable",
      "type": "function"
    },
    {
      "inputs": [
        {
          "internalType": "address",
          "name": "from",
          "type": "address"
        },
        {
          "internalType": "address",
          "name": "to",
          "type": "address"
        },
        {
          "internalType": "uint256",
          "name": "tokenId",
          "type": "uint256"
        }
      ],
      "name": "safeTransferFrom",
      "outputs": [],
      "stateMutability": "nonpayable",
      "type": "function"
    },
    {
      "inputs": [
        {
          "internalType": "address",
          "name": "from",
          "type": "address"
        },
        {
          "internalType": "address",
          "name": "to",
          "type": "address"
        },
        {
          "internalType": "uint256",
          "name": "tokenId",
          "type": "uint256"
        },
        {
          "internalType": "bytes",
          "name": "_data",
          "type": "bytes"
        }
      ],
      "name": "safeTransferFrom",
      "outputs": [],
      "stateMutability": "nonpayable",
      "type": "function"
    },
    {
      "inputs": [
        {
          "internalType": "address",
          "name": "operator",
          "type": "address"
        },
        {
          "internalType": "bool",
          "name": "approved",
          "type": "bool"
        }
      ],
      "name": "setApprovalForAll",
      "outputs": [],
      "stateMutability": "nonpayable",
      "type": "function"
    },
    {
      "inputs": [
        {
          "internalType": "bytes4",
          "name": "interfaceId",
          "type": "bytes4"
        }
      ],
      "name": "supportsInterface",
      "outputs": [
        {
          "internalType": "bool",
          "name": "",
          "type": "bool"
        }
      ],
      "stateMutability": "view",
      "type": "function"
    },
    {
      "inputs": [],
      "name": "symbol",
      "outputs": [
        {
          "internalType": "string",
          "name": "",
          "type": "string"
        }
      ],
      "stateMutability": "view",
      "type": "function"
    },
    {
      "inputs": [
        {
          "internalType": "uint256",
          "name": "index",
          "type": "uint256"
        }
      ],
      "name": "tokenByIndex",
      "outputs": [
        {
          "internalType": "uint256",
          "name": "",
          "type": "uint256"
        }
      ],
      "stateMutability": "view",
      "type": "function"
    },
    {
      "inputs": [
        {
          "internalType": "address",
          "name": "owner",
          "type": "address"
        },
        {
          "internalType": "uint256",
          "name": "index",
          "type": "uint256"
        }
      ],
      "name": "tokenOfOwnerByIndex",
      "outputs": [
        {
          "internalType": "uint256",
          "name": "",
          "type": "uint256"
        }
      ],
      "stateMutability": "view",
      "type": "function"
    },
    {
      "inputs": [
        {
          "internalType": "uint256",
          "name": "tokenId",
          "type": "uint256"
        }
      ],
      "name": "tokenURI",
      "outputs": [
        {
          "internalType": "string",
          "name": "",
          "type": "string"
        }
      ],
      "stateMutability": "view",
      "type": "function"
    },
    {
      "inputs": [],
      "name": "totalSupply",
      "outputs": [
        {
          "internalType": "uint256",
          "name": "",
          "type": "uint256"
        }
      ],
      "stateMutability": "view",
      "type": "function"
    },
    {
      "inputs": [
        {
          "internalType": "address",
          "name": "from",
          "type": "address"
        },
        {
          "internalType": "address",
          "name": "to",
          "type": "address"
        },
        {
          "internalType": "uint256",
          "name": "tokenId",
          "type": "uint256"
        }
      ],
      "name": "transferFrom",
      "outputs": [],
      "stateMutability": "nonpayable",
      "type": "function"
    },
    {
      "inputs": [],
      "name": "unpause",
      "outputs": [],
      "stateMutability": "nonpayable",
      "type": "function"
    }
  ],
  "bytecode": "0x60806040523480156200001157600080fd5b506040518060400160405280600a81526020017f54657374455243373231000000000000000000000000000000000000000000008152506040518060400160405280600681526020017f45524337323100000000000000000000000000000000000000000000000000008152506040518060400160405280600481526020017f74657374000000000000000000000000000000000000000000000000000000008152508282620000ce6301ffc9a760e01b6200022560201b60201c565b8160079080519060200190620000e6929190620004af565b508060089080519060200190620000ff929190620004af565b50620001186380ac58cd60e01b6200022560201b60201c565b62000130635b5e139f60e01b6200022560201b60201c565b6200014863780e9d6360e01b6200022560201b60201c565b50506000600b60006101000a81548160ff021916908315150217905550620001896000801b6200017d620002fd60201b60201c565b6200030560201b60201c565b620001ca7f9f2df0fed2c77648de5860a4cc508cd0818c85b8b8a1ab4ceeef8d981c8956a6620001be620002fd60201b60201c565b6200030560201b60201c565b6200020b7f65d7a28e3265b37a6474929f336521b332c1681b933f6cb9f3376673440d862a620001ff620002fd60201b60201c565b6200030560201b60201c565b6200021c816200031b60201b60201c565b505050620005ca565b63ffffffff60e01b817bffffffffffffffffffffffffffffffffffffffffffffffffffffffff1916141562000291576040517f08c379a0000000000000000000000000000000000000000000000000000000008152600401620002889062000597565b60405180910390fd5b6001806000837bffffffffffffffffffffffffffffffffffffffffffffffffffffffff19167bffffffffffffffffffffffffffffffffffffffffffffffffffffffff1916815260200190815260200160002060006101000a81548160ff02191690831515021790555050565b600033905090565b6200031782826200033760201b60201c565b5050565b80600a908051906020019062000333929190620004af565b5050565b6200036581600080858152602001908152602001600020600001620003da60201b620014991790919060201c565b15620003d6576200037b620002fd60201b60201c565b73ffffffffffffffffffffffffffffffffffffffff168173ffffffffffffffffffffffffffffffffffffffff16837f2f8788117e7eff1d82e926ec794901d17c78024a50270940304540a733656f0d60405160405180910390a45b5050565b60006200040a836000018373ffffffffffffffffffffffffffffffffffffffff1660001b6200041260201b60201c565b905092915050565b60006200042683836200048c60201b60201c565b6200048157826000018290806001815401808255809150506001900390600052602060002001600090919091909150558260000180549050836001016000848152602001908152602001600020819055506001905062000486565b600090505b92915050565b600080836001016000848152602001908152602001600020541415905092915050565b828054600181600116156101000203166002900490600052602060002090601f016020900481019282601f10620004f257805160ff191683800117855562000523565b8280016001018555821562000523579182015b828111156200052257825182559160200191906001019062000505565b5b50905062000532919062000536565b5090565b5b808211156200055157600081600090555060010162000537565b5090565b600062000564601c83620005b9565b91507f4552433136353a20696e76616c696420696e74657266616365206964000000006000830152602082019050919050565b60006020820190508181036000830152620005b28162000555565b9050919050565b600082825260208201905092915050565b61402d80620005da6000396000f3fe608060405234801561001057600080fd5b50600436106101f05760003560e01c80636a6278421161010f578063a22cb465116100a2578063d539139311610071578063d5391393146105c9578063d547741f146105e7578063e63ab1e914610603578063e985e9c514610621576101f0565b8063a22cb46514610531578063b88d4fde1461054d578063c87b56dd14610569578063ca15c87314610599576101f0565b80639010d07c116100de5780639010d07c1461049557806391d14854146104c557806395d89b41146104f5578063a217fddf14610513576101f0565b80636a627842146104215780636c0360eb1461043d57806370a082311461045b5780638456cb591461048b576101f0565b80632f745c591161018757806342966c681161015657806342966c68146103875780634f6ccce7146103a35780635c975abb146103d35780636352211e146103f1576101f0565b80632f745c591461031557806336568abe146103455780633f4ba83a1461036157806342842e0e1461036b576101f0565b806318160ddd116101c357806318160ddd1461028f57806323b872dd146102ad578063248a9ca3146102c95780632f2ff15d146102f9576101f0565b806301ffc9a7146101f557806306fdde0314610225578063081812fc14610243578063095ea7b314610273575b600080fd5b61020f600480360381019061020a9190612d35565b610651565b60405161021c91906139a1565b60405180910390f35b61022d6106b9565b60405161023a91906139d7565b60405180910390f35b61025d60048036038101906102589190612d87565b61075b565b60405161026a919061391f565b60405180910390f35b61028d60048036038101906102889190612c58565b6107e0565b005b6102976108f8565b6040516102a49190613d39565b60405180910390f35b6102c760048036038101906102c29190612b52565b610909565b005b6102e360048036038101906102de9190612c94565b610969565b6040516102f091906139bc565b60405180910390f35b610313600480360381019061030e9190612cbd565b610988565b005b61032f600480360381019061032a9190612c58565b6109fb565b60405161033c9190613d39565b60405180910390f35b61035f600480360381019061035a9190612cbd565b610a56565b005b610369610ad9565b005b61038560048036038101906103809190612b52565b610b53565b005b6103a1600480360381019061039c9190612d87565b610b73565b005b6103bd60048036038101906103b89190612d87565b610bcf565b6040516103ca9190613d39565b60405180910390f35b6103db610bf2565b6040516103e891906139a1565b60405180910390f35b61040b60048036038101906104069190612d87565b610c09565b604051610418919061391f565b60405180910390f35b61043b60048036038101906104369190612aed565b610c40565b005b610445610cd0565b60405161045291906139d7565b60405180910390f35b61047560048036038101906104709190612aed565b610d72565b6040516104829190613d39565b60405180910390f35b610493610e31565b005b6104af60048036038101906104aa9190612cf9565b610eab565b6040516104bc919061391f565b60405180910390f35b6104df60048036038101906104da9190612cbd565b610edc565b6040516104ec91906139a1565b60405180910390f35b6104fd610f0d565b60405161050a91906139d7565b60405180910390f35b61051b610faf565b60405161052891906139bc565b60405180910390f35b61054b60048036038101906105469190612c1c565b610fb6565b005b61056760048036038101906105629190612ba1565b611137565b005b610583600480360381019061057e9190612d87565b611199565b60405161059091906139d7565b60405180910390f35b6105b360048036038101906105ae9190612c94565b611324565b6040516105c09190613d39565b60405180910390f35b6105d161134a565b6040516105de91906139bc565b60405180910390f35b61060160048036038101906105fc9190612cbd565b61136e565b005b61060b6113e1565b60405161061891906139bc565b60405180910390f35b61063b60048036038101906106369190612b16565b611405565b60405161064891906139a1565b60405180910390f35b600060016000837bffffffffffffffffffffffffffffffffffffffffffffffffffffffff19167bffffffffffffffffffffffffffffffffffffffffffffffffffffffff1916815260200190815260200160002060009054906101000a900460ff169050919050565b606060078054600181600116156101000203166002900480601f0160208091040260200160405190810160405280929190818152602001828054600181600116156101000203166002900480156107515780601f1061072657610100808354040283529160200191610751565b820191906000526020600020905b81548152906001019060200180831161073457829003601f168201915b5050505050905090565b6000610766826114c9565b6107a5576040517f08c379a000000000000000000000000000000000000000000000000000000000815260040161079c90613bf9565b60405180910390fd5b6005600083815260200190815260200160002060009054906101000a900473ffffffffffffffffffffffffffffffffffffffff169050919050565b60006107eb82610c09565b90508073ffffffffffffffffffffffffffffffffffffffff168373ffffffffffffffffffffffffffffffffffffffff16141561085c576040517f08c379a000000000000000000000000000000000000000000000000000000000815260040161085390613c59565b60405180910390fd5b8073ffffffffffffffffffffffffffffffffffffffff1661087b6114e6565b73ffffffffffffffffffffffffffffffffffffffff1614806108aa57506108a9816108a46114e6565b611405565b5b6108e9576040517f08c379a00000000000000000000000000000000000000000000000000000000081526004016108e090613b79565b60405180910390fd5b6108f383836114ee565b505050565b600061090460036115a7565b905090565b61091a6109146114e6565b826115bc565b610959576040517f08c379a000000000000000000000000000000000000000000000000000000000815260040161095090613c79565b60405180910390fd5b61096483838361169a565b505050565b6000806000838152602001908152602001600020600201549050919050565b6109ae600080848152602001908152602001600020600201546109a96114e6565b610edc565b6109ed576040517f08c379a00000000000000000000000000000000000000000000000000000000081526004016109e490613a39565b60405180910390fd5b6109f782826118b1565b5050565b6000610a4e82600260008673ffffffffffffffffffffffffffffffffffffffff1673ffffffffffffffffffffffffffffffffffffffff16815260200190815260200160002061194490919063ffffffff16565b905092915050565b610a5e6114e6565b73ffffffffffffffffffffffffffffffffffffffff168173ffffffffffffffffffffffffffffffffffffffff1614610acb576040517f08c379a0000000000000000000000000000000000000000000000000000000008152600401610ac290613d19565b60405180910390fd5b610ad5828261195e565b5050565b610b0a7f65d7a28e3265b37a6474929f336521b332c1681b933f6cb9f3376673440d862a610b056114e6565b610edc565b610b49576040517f08c379a0000000000000000000000000000000000000000000000000000000008152600401610b4090613cf9565b60405180910390fd5b610b516119f1565b565b610b6e83838360405180602001604052806000815250611137565b505050565b610b84610b7e6114e6565b826115bc565b610bc3576040517f08c379a0000000000000000000000000000000000000000000000000000000008152600401610bba90613cd9565b60405180910390fd5b610bcc81611a9b565b50565b600080610be6836003611bd590919063ffffffff16565b50905080915050919050565b6000600b60009054906101000a900460ff16905090565b6000610c3982604051806060016040528060298152602001613fcf602991396003611c019092919063ffffffff16565b9050919050565b610c717f9f2df0fed2c77648de5860a4cc508cd0818c85b8b8a1ab4ceeef8d981c8956a6610c6c6114e6565b610edc565b610cb0576040517f08c379a0000000000000000000000000000000000000000000000000000000008152600401610ca790613cb9565b60405180910390fd5b610cc381610cbe600c611c20565b611c2e565b610ccd600c611dbc565b50565b6060600a8054600181600116156101000203166002900480601f016020809104026020016040519081016040528092919081815260200182805460018160011615610100020316600290048015610d685780601f10610d3d57610100808354040283529160200191610d68565b820191906000526020600020905b815481529060010190602001808311610d4b57829003601f168201915b5050505050905090565b60008073ffffffffffffffffffffffffffffffffffffffff168273ffffffffffffffffffffffffffffffffffffffff161415610de3576040517f08c379a0000000000000000000000000000000000000000000000000000000008152600401610dda90613b99565b60405180910390fd5b610e2a600260008473ffffffffffffffffffffffffffffffffffffffff1673ffffffffffffffffffffffffffffffffffffffff168152602001908152602001600020611dd2565b9050919050565b610e627f65d7a28e3265b37a6474929f336521b332c1681b933f6cb9f3376673440d862a610e5d6114e6565b610edc565b610ea1576040517f08c379a0000000000000000000000000000000000000000000000000000000008152600401610e9890613ab9565b60405180910390fd5b610ea9611de7565b565b6000610ed482600080868152602001908152602001600020600001611e9290919063ffffffff16565b905092915050565b6000610f0582600080868152602001908152602001600020600001611eac90919063ffffffff16565b905092915050565b606060088054600181600116156101000203166002900480601f016020809104026020016040519081016040528092919081815260200182805460018160011615610100020316600290048015610fa55780601f10610f7a57610100808354040283529160200191610fa5565b820191906000526020600020905b815481529060010190602001808311610f8857829003601f168201915b5050505050905090565b6000801b81565b610fbe6114e6565b73ffffffffffffffffffffffffffffffffffffffff168273ffffffffffffffffffffffffffffffffffffffff16141561102c576040517f08c379a000000000000000000000000000000000000000000000000000000000815260040161102390613af9565b60405180910390fd5b80600660006110396114e6565b73ffffffffffffffffffffffffffffffffffffffff1673ffffffffffffffffffffffffffffffffffffffff16815260200190815260200160002060008473ffffffffffffffffffffffffffffffffffffffff1673ffffffffffffffffffffffffffffffffffffffff16815260200190815260200160002060006101000a81548160ff0219169083151502179055508173ffffffffffffffffffffffffffffffffffffffff166110e66114e6565b73ffffffffffffffffffffffffffffffffffffffff167f17307eab39ab6107e8899845ad3d59bd9653f200f220920489ca2b5937696c318360405161112b91906139a1565b60405180910390a35050565b6111486111426114e6565b836115bc565b611187576040517f08c379a000000000000000000000000000000000000000000000000000000000815260040161117e90613c79565b60405180910390fd5b61119384848484611edc565b50505050565b60606111a4826114c9565b6111e3576040517f08c379a00000000000000000000000000000000000000000000000000000000081526004016111da90613c39565b60405180910390fd5b6060600960008481526020019081526020016000208054600181600116156101000203166002900480601f01602080910402602001604051908101604052809291908181526020018280546001816001161561010002031660029004801561128c5780601f106112615761010080835404028352916020019161128c565b820191906000526020600020905b81548152906001019060200180831161126f57829003601f168201915b505050505090506000600a80546001816001161561010002031660029004905014156112bb578091505061131f565b6000815111156112f057600a816040516020016112d99291906138fb565b60405160208183030381529060405291505061131f565b600a6112fb84611f38565b60405160200161130c9291906138fb565b6040516020818303038152906040529150505b919050565b600061134360008084815260200190815260200160002060000161207f565b9050919050565b7f9f2df0fed2c77648de5860a4cc508cd0818c85b8b8a1ab4ceeef8d981c8956a681565b6113946000808481526020019081526020016000206002015461138f6114e6565b610edc565b6113d3576040517f08c379a00000000000000000000000000000000000000000000000000000000081526004016113ca90613b39565b60405180910390fd5b6113dd828261195e565b5050565b7f65d7a28e3265b37a6474929f336521b332c1681b933f6cb9f3376673440d862a81565b6000600660008473ffffffffffffffffffffffffffffffffffffffff1673ffffffffffffffffffffffffffffffffffffffff16815260200190815260200160002060008373ffffffffffffffffffffffffffffffffffffffff1673ffffffffffffffffffffffffffffffffffffffff16815260200190815260200160002060009054906101000a900460ff16905092915050565b60006114c1836000018373ffffffffffffffffffffffffffffffffffffffff1660001b612094565b905092915050565b60006114df82600361210490919063ffffffff16565b9050919050565b600033905090565b816005600083815260200190815260200160002060006101000a81548173ffffffffffffffffffffffffffffffffffffffff021916908373ffffffffffffffffffffffffffffffffffffffff160217905550808273ffffffffffffffffffffffffffffffffffffffff1661156183610c09565b73ffffffffffffffffffffffffffffffffffffffff167f8c5be1e5ebec7d5bd14f71427d1e84f3dd0314c0f7b2291e5b200ac8c7c3b92560405160405180910390a45050565b60006115b58260000161211e565b9050919050565b60006115c7826114c9565b611606576040517f08c379a00000000000000000000000000000000000000000000000000000000081526004016115fd90613b19565b60405180910390fd5b600061161183610c09565b90508073ffffffffffffffffffffffffffffffffffffffff168473ffffffffffffffffffffffffffffffffffffffff16148061168057508373ffffffffffffffffffffffffffffffffffffffff166116688461075b565b73ffffffffffffffffffffffffffffffffffffffff16145b8061169157506116908185611405565b5b91505092915050565b8273ffffffffffffffffffffffffffffffffffffffff166116ba82610c09565b73ffffffffffffffffffffffffffffffffffffffff1614611710576040517f08c379a000000000000000000000000000000000000000000000000000000000815260040161170790613c19565b60405180910390fd5b600073ffffffffffffffffffffffffffffffffffffffff168273ffffffffffffffffffffffffffffffffffffffff161415611780576040517f08c379a000000000000000000000000000000000000000000000000000000000815260040161177790613ad9565b60405180910390fd5b61178b83838361212f565b6117966000826114ee565b6117e781600260008673ffffffffffffffffffffffffffffffffffffffff1673ffffffffffffffffffffffffffffffffffffffff16815260200190815260200160002061213f90919063ffffffff16565b5061183981600260008573ffffffffffffffffffffffffffffffffffffffff1673ffffffffffffffffffffffffffffffffffffffff16815260200190815260200160002061215990919063ffffffff16565b50611850818360036121739092919063ffffffff16565b50808273ffffffffffffffffffffffffffffffffffffffff168473ffffffffffffffffffffffffffffffffffffffff167fddf252ad1be2c89b69c2b068fc378daa952ba7f163c4a11628f55a4df523b3ef60405160405180910390a4505050565b6118d88160008085815260200190815260200160002060000161149990919063ffffffff16565b15611940576118e56114e6565b73ffffffffffffffffffffffffffffffffffffffff168173ffffffffffffffffffffffffffffffffffffffff16837f2f8788117e7eff1d82e926ec794901d17c78024a50270940304540a733656f0d60405160405180910390a45b5050565b600061195383600001836121a8565b60001c905092915050565b6119858160008085815260200190815260200160002060000161221590919063ffffffff16565b156119ed576119926114e6565b73ffffffffffffffffffffffffffffffffffffffff168173ffffffffffffffffffffffffffffffffffffffff16837ff6391f5c32d9c69d2a47ea670b442974b53935d1edc7fd64eb21e047a839171b60405160405180910390a45b5050565b600b60009054906101000a900460ff16611a40576040517f08c379a0000000000000000000000000000000000000000000000000000000008152600401611a3790613a59565b60405180910390fd5b6000600b60006101000a81548160ff0219169083151502179055507f5db9ee0a495bf2e6ff9c91a7834c1ba4fdd244a5e8aa4e537bd38aeae4b073aa611a846114e6565b604051611a91919061393a565b60405180910390a1565b6000611aa682610c09565b9050611ab48160008461212f565b611abf6000836114ee565b60006009600084815260200190815260200160002080546001816001161561010002031660029004905014611b0e57600960008381526020019081526020016000206000611b0d91906129b6565b5b611b5f82600260008473ffffffffffffffffffffffffffffffffffffffff1673ffffffffffffffffffffffffffffffffffffffff16815260200190815260200160002061213f90919063ffffffff16565b50611b7482600361224590919063ffffffff16565b5081600073ffffffffffffffffffffffffffffffffffffffff168273ffffffffffffffffffffffffffffffffffffffff167fddf252ad1be2c89b69c2b068fc378daa952ba7f163c4a11628f55a4df523b3ef60405160405180910390a45050565b600080600080611be8866000018661225f565b915091508160001c8160001c9350935050509250929050565b6000611c14846000018460001b846122e2565b60001c90509392505050565b600081600001549050919050565b600073ffffffffffffffffffffffffffffffffffffffff168273ffffffffffffffffffffffffffffffffffffffff161415611c9e576040517f08c379a0000000000000000000000000000000000000000000000000000000008152600401611c9590613bd9565b60405180910390fd5b611ca7816114c9565b15611ce7576040517f08c379a0000000000000000000000000000000000000000000000000000000008152600401611cde90613a99565b60405180910390fd5b611cf36000838361212f565b611d4481600260008573ffffffffffffffffffffffffffffffffffffffff1673ffffffffffffffffffffffffffffffffffffffff16815260200190815260200160002061215990919063ffffffff16565b50611d5b818360036121739092919063ffffffff16565b50808273ffffffffffffffffffffffffffffffffffffffff16600073ffffffffffffffffffffffffffffffffffffffff167fddf252ad1be2c89b69c2b068fc378daa952ba7f163c4a11628f55a4df523b3ef60405160405180910390a45050565b6001816000016000828254019250508190555050565b6000611de082600001612373565b9050919050565b600b60009054906101000a900460ff1615611e37576040517f08c379a0000000000000000000000000000000000000000000000000000000008152600401611e2e90613b59565b60405180910390fd5b6001600b60006101000a81548160ff0219169083151502179055507f62e78cea01bee320cd4e420270b5ea74000d11b0c9f74754ebdbfc544b05a258611e7b6114e6565b604051611e88919061393a565b60405180910390a1565b6000611ea183600001836121a8565b60001c905092915050565b6000611ed4836000018373ffffffffffffffffffffffffffffffffffffffff1660001b612384565b905092915050565b611ee784848461169a565b611ef3848484846123a7565b611f32576040517f08c379a0000000000000000000000000000000000000000000000000000000008152600401611f2990613a79565b60405180910390fd5b50505050565b60606000821415611f80576040518060400160405280600181526020017f3000000000000000000000000000000000000000000000000000000000000000815250905061207a565b600082905060005b60008214611faa578080600101915050600a8281611fa257fe5b049150611f88565b60608167ffffffffffffffff81118015611fc357600080fd5b506040519080825280601f01601f191660200182016040528015611ff65781602001600182028036833780820191505090505b50905060006001830390508593505b6000841461207257600a848161201757fe5b0660300160f81b8282806001900393508151811061203157fe5b60200101907effffffffffffffffffffffffffffffffffffffffffffffffffffffffffffff1916908160001a905350600a848161206a57fe5b049350612005565b819450505050505b919050565b600061208d82600001612373565b9050919050565b60006120a08383612384565b6120f95782600001829080600181540180825580915050600190039060005260206000200160009091909190915055826000018054905083600101600084815260200190815260200160002081905550600190506120fe565b600090505b92915050565b6000612116836000018360001b61250b565b905092915050565b600081600001805490509050919050565b61213a83838361252e565b505050565b6000612151836000018360001b612586565b905092915050565b600061216b836000018360001b612094565b905092915050565b600061219f846000018460001b8473ffffffffffffffffffffffffffffffffffffffff1660001b61266e565b90509392505050565b6000818360000180549050116121f3576040517f08c379a00000000000000000000000000000000000000000000000000000000081526004016121ea906139f9565b60405180910390fd5b82600001828154811061220257fe5b9060005260206000200154905092915050565b600061223d836000018373ffffffffffffffffffffffffffffffffffffffff1660001b612586565b905092915050565b6000612257836000018360001b61274a565b905092915050565b600080828460000180549050116122ab576040517f08c379a00000000000000000000000000000000000000000000000000000000081526004016122a290613bb9565b60405180910390fd5b60008460000184815481106122bc57fe5b906000526020600020906002020190508060000154816001015492509250509250929050565b60008084600101600085815260200190815260200160002054905060008114158390612344576040517f08c379a000000000000000000000000000000000000000000000000000000000815260040161233b91906139d7565b60405180910390fd5b5084600001600182038154811061235757fe5b9060005260206000209060020201600101549150509392505050565b600081600001805490509050919050565b600080836001016000848152602001908152602001600020541415905092915050565b60006123c88473ffffffffffffffffffffffffffffffffffffffff16612863565b6123d55760019050612503565b606061249c63150b7a0260e01b6123ea6114e6565b8887876040516024016124009493929190613955565b604051602081830303815290604052907bffffffffffffffffffffffffffffffffffffffffffffffffffffffff19166020820180517bffffffffffffffffffffffffffffffffffffffffffffffffffffffff8381831617835250505050604051806060016040528060328152602001613f9d603291398773ffffffffffffffffffffffffffffffffffffffff166128769092919063ffffffff16565b90506000818060200190518101906124b49190612d5e565b905063150b7a0260e01b7bffffffffffffffffffffffffffffffffffffffffffffffffffffffff1916817bffffffffffffffffffffffffffffffffffffffffffffffffffffffff191614925050505b949350505050565b600080836001016000848152602001908152602001600020541415905092915050565b61253983838361288e565b612541610bf2565b15612581576040517f08c379a000000000000000000000000000000000000000000000000000000000815260040161257890613a19565b60405180910390fd5b505050565b6000808360010160008481526020019081526020016000205490506000811461266257600060018203905060006001866000018054905003905060008660000182815481106125d157fe5b90600052602060002001549050808760000184815481106125ee57fe5b906000526020600020018190555060018301876001016000838152602001908152602001600020819055508660000180548061262657fe5b60019003818190600052602060002001600090559055866001016000878152602001908152602001600020600090556001945050505050612668565b60009150505b92915050565b600080846001016000858152602001908152602001600020549050600081141561271557846000016040518060400160405280868152602001858152509080600181540180825580915050600190039060005260206000209060020201600090919091909150600082015181600001556020820151816001015550508460000180549050856001016000868152602001908152602001600020819055506001915050612743565b8285600001600183038154811061272857fe5b90600052602060002090600202016001018190555060009150505b9392505050565b60008083600101600084815260200190815260200160002054905060008114612857576000600182039050600060018660000180549050039050600086600001828154811061279557fe5b90600052602060002090600202019050808760000184815481106127b557fe5b906000526020600020906002020160008201548160000155600182015481600101559050506001830187600101600083600001548152602001908152602001600020819055508660000180548061280857fe5b600190038181906000526020600020906002020160008082016000905560018201600090555050905586600101600087815260200190815260200160002060009055600194505050505061285d565b60009150505b92915050565b600080823b905060008111915050919050565b60606128858484600085612893565b90509392505050565b505050565b606061289e85612863565b6128dd576040517f08c379a00000000000000000000000000000000000000000000000000000000081526004016128d490613c99565b60405180910390fd5b600060608673ffffffffffffffffffffffffffffffffffffffff16858760405161290791906138e4565b60006040518083038185875af1925050503d8060008114612944576040519150601f19603f3d011682016040523d82523d6000602084013e612949565b606091505b5091509150811561295e5780925050506129ae565b6000815111156129715780518082602001fd5b836040517f08c379a00000000000000000000000000000000000000000000000000000000081526004016129a591906139d7565b60405180910390fd5b949350505050565b50805460018160011615610100020316600290046000825580601f106129dc57506129fb565b601f0160209004906000526020600020908101906129fa91906129fe565b5b50565b5b80821115612a175760008160009055506001016129ff565b5090565b600081359050612a2a81613f29565b92915050565b600081359050612a3f81613f40565b92915050565b600081359050612a5481613f57565b92915050565b600081359050612a6981613f6e565b92915050565b600081519050612a7e81613f6e565b92915050565b600082601f830112612a9557600080fd5b8135612aa8612aa382613d81565b613d54565b91508082526020830160208301858383011115612ac457600080fd5b612acf838284613ed6565b50505092915050565b600081359050612ae781613f85565b92915050565b600060208284031215612aff57600080fd5b6000612b0d84828501612a1b565b91505092915050565b60008060408385031215612b2957600080fd5b6000612b3785828601612a1b565b9250506020612b4885828601612a1b565b9150509250929050565b600080600060608486031215612b6757600080fd5b6000612b7586828701612a1b565b9350506020612b8686828701612a1b565b9250506040612b9786828701612ad8565b9150509250925092565b60008060008060808587031215612bb757600080fd5b6000612bc587828801612a1b565b9450506020612bd687828801612a1b565b9350506040612be787828801612ad8565b925050606085013567ffffffffffffffff811115612c0457600080fd5b612c1087828801612a84565b91505092959194509250565b60008060408385031215612c2f57600080fd5b6000612c3d85828601612a1b565b9250506020612c4e85828601612a30565b9150509250929050565b60008060408385031215612c6b57600080fd5b6000612c7985828601612a1b565b9250506020612c8a85828601612ad8565b9150509250929050565b600060208284031215612ca657600080fd5b6000612cb484828501612a45565b91505092915050565b60008060408385031215612cd057600080fd5b6000612cde85828601612a45565b9250506020612cef85828601612a1b565b9150509250929050565b60008060408385031215612d0c57600080fd5b6000612d1a85828601612a45565b9250506020612d2b85828601612ad8565b9150509250929050565b600060208284031215612d4757600080fd5b6000612d5584828501612a5a565b91505092915050565b600060208284031215612d7057600080fd5b6000612d7e84828501612a6f565b91505092915050565b600060208284031215612d9957600080fd5b6000612da784828501612ad8565b91505092915050565b612db981613ea0565b82525050565b612dc881613e22565b82525050565b612dd781613e10565b82525050565b612de681613e34565b82525050565b612df581613e40565b82525050565b6000612e0682613dc2565b612e108185613dd8565b9350612e20818560208601613ee5565b612e2981613f18565b840191505092915050565b6000612e3f82613dc2565b612e498185613de9565b9350612e59818560208601613ee5565b80840191505092915050565b6000612e7082613dcd565b612e7a8185613df4565b9350612e8a818560208601613ee5565b612e9381613f18565b840191505092915050565b6000612ea982613dcd565b612eb38185613e05565b9350612ec3818560208601613ee5565b80840191505092915050565b600081546001811660008114612eec5760018114612f1157612f55565b607f6002830416612efd8187613e05565b955060ff1983168652808601935050612f55565b60028204612f1f8187613e05565b9550612f2a85613dad565b60005b82811015612f4c57815481890152600182019150602081019050612f2d565b82880195505050505b505092915050565b6000612f6a602283613df4565b91507f456e756d657261626c655365743a20696e646578206f7574206f6620626f756e60008301527f64730000000000000000000000000000000000000000000000000000000000006020830152604082019050919050565b6000612fd0602b83613df4565b91507f4552433732315061757361626c653a20746f6b656e207472616e73666572207760008301527f68696c65207061757365640000000000000000000000000000000000000000006020830152604082019050919050565b6000613036602f83613df4565b91507f416363657373436f6e74726f6c3a2073656e646572206d75737420626520616e60008301527f2061646d696e20746f206772616e7400000000000000000000000000000000006020830152604082019050919050565b600061309c601483613df4565b91507f5061757361626c653a206e6f74207061757365640000000000000000000000006000830152602082019050919050565b60006130dc603283613df4565b91507f4552433732313a207472616e7366657220746f206e6f6e20455243373231526560008301527f63656976657220696d706c656d656e74657200000000000000000000000000006020830152604082019050919050565b6000613142601c83613df4565b91507f4552433732313a20746f6b656e20616c7265616479206d696e746564000000006000830152602082019050919050565b6000613182603e83613df4565b91507f4552433732315072657365744d696e7465725061757365724175746f49643a2060008301527f6d75737420686176652070617573657220726f6c6520746f20706175736500006020830152604082019050919050565b60006131e8602483613df4565b91507f4552433732313a207472616e7366657220746f20746865207a65726f2061646460008301527f72657373000000000000000000000000000000000000000000000000000000006020830152604082019050919050565b600061324e601983613df4565b91507f4552433732313a20617070726f766520746f2063616c6c6572000000000000006000830152602082019050919050565b600061328e602c83613df4565b91507f4552433732313a206f70657261746f7220717565727920666f72206e6f6e657860008301527f697374656e7420746f6b656e00000000000000000000000000000000000000006020830152604082019050919050565b60006132f4603083613df4565b91507f416363657373436f6e74726f6c3a2073656e646572206d75737420626520616e60008301527f2061646d696e20746f207265766f6b65000000000000000000000000000000006020830152604082019050919050565b600061335a601083613df4565b91507f5061757361626c653a20706175736564000000000000000000000000000000006000830152602082019050919050565b600061339a603883613df4565b91507f4552433732313a20617070726f76652063616c6c6572206973206e6f74206f7760008301527f6e6572206e6f7220617070726f76656420666f7220616c6c00000000000000006020830152604082019050919050565b6000613400602a83613df4565b91507f4552433732313a2062616c616e636520717565727920666f7220746865207a6560008301527f726f2061646472657373000000000000000000000000000000000000000000006020830152604082019050919050565b6000613466602283613df4565b91507f456e756d657261626c654d61703a20696e646578206f7574206f6620626f756e60008301527f64730000000000000000000000000000000000000000000000000000000000006020830152604082019050919050565b60006134cc602083613df4565b91507f4552433732313a206d696e7420746f20746865207a65726f20616464726573736000830152602082019050919050565b600061350c602c83613df4565b91507f4552433732313a20617070726f76656420717565727920666f72206e6f6e657860008301527f697374656e7420746f6b656e00000000000000000000000000000000000000006020830152604082019050919050565b6000613572602983613df4565b91507f4552433732313a207472616e73666572206f6620746f6b656e2074686174206960008301527f73206e6f74206f776e00000000000000000000000000000000000000000000006020830152604082019050919050565b60006135d8602f83613df4565b91507f4552433732314d657461646174613a2055524920717565727920666f72206e6f60008301527f6e6578697374656e7420746f6b656e00000000000000000000000000000000006020830152604082019050919050565b600061363e602183613df4565b91507f4552433732313a20617070726f76616c20746f2063757272656e74206f776e6560008301527f72000000000000000000000000000000000000000000000000000000000000006020830152604082019050919050565b60006136a4603183613df4565b91507f4552433732313a207472616e736665722063616c6c6572206973206e6f74206f60008301527f776e6572206e6f7220617070726f7665640000000000000000000000000000006020830152604082019050919050565b600061370a601d83613df4565b91507f416464726573733a2063616c6c20746f206e6f6e2d636f6e74726163740000006000830152602082019050919050565b600061374a603d83613df4565b91507f4552433732315072657365744d696e7465725061757365724175746f49643a2060008301527f6d7573742068617665206d696e74657220726f6c6520746f206d696e740000006020830152604082019050919050565b60006137b0603083613df4565b91507f4552433732314275726e61626c653a2063616c6c6572206973206e6f74206f7760008301527f6e6572206e6f7220617070726f766564000000000000000000000000000000006020830152604082019050919050565b6000613816604083613df4565b91507f4552433732315072657365744d696e7465725061757365724175746f49643a2060008301527f6d75737420686176652070617573657220726f6c6520746f20756e70617573656020830152604082019050919050565b600061387c602f83613df4565b91507f416363657373436f6e74726f6c3a2063616e206f6e6c792072656e6f756e636560008301527f20726f6c657320666f722073656c6600000000000000000000000000000000006020830152604082019050919050565b6138de81613e96565b82525050565b60006138f08284612e34565b915081905092915050565b60006139078285612ecf565b91506139138284612e9e565b91508190509392505050565b60006020820190506139346000830184612dce565b92915050565b600060208201905061394f6000830184612db0565b92915050565b600060808201905061396a6000830187612dbf565b6139776020830186612dce565b61398460408301856138d5565b81810360608301526139968184612dfb565b905095945050505050565b60006020820190506139b66000830184612ddd565b92915050565b60006020820190506139d16000830184612dec565b92915050565b600060208201905081810360008301526139f18184612e65565b905092915050565b60006020820190508181036000830152613a1281612f5d565b9050919050565b60006020820190508181036000830152613a3281612fc3565b9050919050565b60006020820190508181036000830152613a5281613029565b9050919050565b60006020820190508181036000830152613a728161308f565b9050919050565b60006020820190508181036000830152613a92816130cf565b9050919050565b60006020820190508181036000830152613ab281613135565b9050919050565b60006020820190508181036000830152613ad281613175565b9050919050565b60006020820190508181036000830152613af2816131db565b9050919050565b60006020820190508181036000830152613b1281613241565b9050919050565b60006020820190508181036000830152613b3281613281565b9050919050565b60006020820190508181036000830152613b52816132e7565b9050919050565b60006020820190508181036000830152613b728161334d565b9050919050565b60006020820190508181036000830152613b928161338d565b9050919050565b60006020820190508181036000830152613bb2816133f3565b9050919050565b60006020820190508181036000830152613bd281613459565b9050919050565b60006020820190508181036000830152613bf2816134bf565b9050919050565b60006020820190508181036000830152613c12816134ff565b9050919050565b60006020820190508181036000830152613c3281613565565b9050919050565b60006020820190508181036000830152613c52816135cb565b9050919050565b60006020820190508181036000830152613c7281613631565b9050919050565b60006020820190508181036000830152613c9281613697565b9050919050565b60006020820190508181036000830152613cb2816136fd565b9050919050565b60006020820190508181036000830152613cd28161373d565b9050919050565b60006020820190508181036000830152613cf2816137a3565b9050919050565b60006020820190508181036000830152613d1281613809565b9050919050565b60006020820190508181036000830152613d328161386f565b9050919050565b6000602082019050613d4e60008301846138d5565b92915050565b6000604051905081810181811067ffffffffffffffff82111715613d7757600080fd5b8060405250919050565b600067ffffffffffffffff821115613d9857600080fd5b601f19601f8301169050602081019050919050565b60008190508160005260206000209050919050565b600081519050919050565b600081519050919050565b600082825260208201905092915050565b600081905092915050565b600082825260208201905092915050565b600081905092915050565b6000613e1b82613e76565b9050919050565b6000613e2d82613e76565b9050919050565b60008115159050919050565b6000819050919050565b60007fffffffff0000000000000000000000000000000000000000000000000000000082169050919050565b600073ffffffffffffffffffffffffffffffffffffffff82169050919050565b6000819050919050565b6000613eab82613eb2565b9050919050565b6000613ebd82613ec4565b9050919050565b6000613ecf82613e76565b9050919050565b82818337600083830152505050565b60005b83811015613f03578082015181840152602081019050613ee8565b83811115613f12576000848401525b50505050565b6000601f19601f8301169050919050565b613f3281613e10565b8114613f3d57600080fd5b50565b613f4981613e34565b8114613f5457600080fd5b50565b613f6081613e40565b8114613f6b57600080fd5b50565b613f7781613e4a565b8114613f8257600080fd5b50565b613f8e81613e96565b8114613f9957600080fd5b5056fe4552433732313a207472616e7366657220746f206e6f6e20455243373231526563656976657220696d706c656d656e7465724552433732313a206f776e657220717565727920666f72206e6f6e6578697374656e7420746f6b656ea264697066735822122093361f82ad75cb130a2a376510be97ee6132de909107428be122b4a9a7e36a2164736f6c634300060c0033",
  "immutableReferences": {},
  "source": "// SPDX-License-Identifier: MIT\nimport \"@openzeppelin/contracts/presets/ERC721PresetMinterPauserAutoId.sol\";\n\npragma solidity ^0.6.0;\npragma experimental ABIEncoderV2;\n\ncontract TestERC721 is ERC721PresetMinterPauserAutoId {\n    constructor()\n        public ERC721PresetMinterPauserAutoId(\"TestERC721\", \"ERC721\", \"test\") {}\n}\n",
  "sourcePath": "/Users/fred/Documents/projets/cometh-renting-contract/contracts/Test/TestERC721.sol",
  "compiler": {
    "name": "solc",
    "version": "0.6.12+commit.27d51765.Emscripten.clang"
  },
  "schemaVersion": "3.3.3",
  "updatedAt": "2021-03-23T10:24:42.830Z",
  "devdoc": {
    "kind": "dev",
    "methods": {
      "approve(address,uint256)": {
        "details": "See {IERC721-approve}."
      },
      "balanceOf(address)": {
        "details": "See {IERC721-balanceOf}."
      },
      "baseURI()": {
        "details": "Returns the base URI set via {_setBaseURI}. This will be automatically added as a prefix in {tokenURI} to each token's URI, or to the token ID if no specific URI is set for that token ID."
      },
      "burn(uint256)": {
        "details": "Burns `tokenId`. See {ERC721-_burn}. Requirements: - The caller must own `tokenId` or be an approved operator."
      },
      "getApproved(uint256)": {
        "details": "See {IERC721-getApproved}."
      },
      "getRoleAdmin(bytes32)": {
        "details": "Returns the admin role that controls `role`. See {grantRole} and {revokeRole}. To change a role's admin, use {_setRoleAdmin}."
      },
      "getRoleMember(bytes32,uint256)": {
        "details": "Returns one of the accounts that have `role`. `index` must be a value between 0 and {getRoleMemberCount}, non-inclusive. Role bearers are not sorted in any particular way, and their ordering may change at any point. WARNING: When using {getRoleMember} and {getRoleMemberCount}, make sure you perform all queries on the same block. See the following https://forum.openzeppelin.com/t/iterating-over-elements-on-enumerableset-in-openzeppelin-contracts/2296[forum post] for more information."
      },
      "getRoleMemberCount(bytes32)": {
        "details": "Returns the number of accounts that have `role`. Can be used together with {getRoleMember} to enumerate all bearers of a role."
      },
      "grantRole(bytes32,address)": {
        "details": "Grants `role` to `account`. If `account` had not been already granted `role`, emits a {RoleGranted} event. Requirements: - the caller must have ``role``'s admin role."
      },
      "hasRole(bytes32,address)": {
        "details": "Returns `true` if `account` has been granted `role`."
      },
      "isApprovedForAll(address,address)": {
        "details": "See {IERC721-isApprovedForAll}."
      },
      "mint(address)": {
        "details": "Creates a new token for `to`. Its token ID will be automatically assigned (and available on the emitted {IERC721-Transfer} event), and the token URI autogenerated based on the base URI passed at construction. See {ERC721-_mint}. Requirements: - the caller must have the `MINTER_ROLE`."
      },
      "name()": {
        "details": "See {IERC721Metadata-name}."
      },
      "ownerOf(uint256)": {
        "details": "See {IERC721-ownerOf}."
      },
      "pause()": {
        "details": "Pauses all token transfers. See {ERC721Pausable} and {Pausable-_pause}. Requirements: - the caller must have the `PAUSER_ROLE`."
      },
      "paused()": {
        "details": "Returns true if the contract is paused, and false otherwise."
      },
      "renounceRole(bytes32,address)": {
        "details": "Revokes `role` from the calling account. Roles are often managed via {grantRole} and {revokeRole}: this function's purpose is to provide a mechanism for accounts to lose their privileges if they are compromised (such as when a trusted device is misplaced). If the calling account had been granted `role`, emits a {RoleRevoked} event. Requirements: - the caller must be `account`."
      },
      "revokeRole(bytes32,address)": {
        "details": "Revokes `role` from `account`. If `account` had been granted `role`, emits a {RoleRevoked} event. Requirements: - the caller must have ``role``'s admin role."
      },
      "safeTransferFrom(address,address,uint256)": {
        "details": "See {IERC721-safeTransferFrom}."
      },
      "safeTransferFrom(address,address,uint256,bytes)": {
        "details": "See {IERC721-safeTransferFrom}."
      },
      "setApprovalForAll(address,bool)": {
        "details": "See {IERC721-setApprovalForAll}."
      },
      "supportsInterface(bytes4)": {
        "details": "See {IERC165-supportsInterface}. Time complexity O(1), guaranteed to always use less than 30 000 gas."
      },
      "symbol()": {
        "details": "See {IERC721Metadata-symbol}."
      },
      "tokenByIndex(uint256)": {
        "details": "See {IERC721Enumerable-tokenByIndex}."
      },
      "tokenOfOwnerByIndex(address,uint256)": {
        "details": "See {IERC721Enumerable-tokenOfOwnerByIndex}."
      },
      "tokenURI(uint256)": {
        "details": "See {IERC721Metadata-tokenURI}."
      },
      "totalSupply()": {
        "details": "See {IERC721Enumerable-totalSupply}."
      },
      "transferFrom(address,address,uint256)": {
        "details": "See {IERC721-transferFrom}."
      },
      "unpause()": {
        "details": "Unpauses all token transfers. See {ERC721Pausable} and {Pausable-_unpause}. Requirements: - the caller must have the `PAUSER_ROLE`."
      }
    },
    "version": 1
  },
  "userdoc": {
    "kind": "user",
    "methods": {},
    "version": 1
  }
}