{
  "contractName": "ERC1155Converter",
  "abi": [
    {
      "inputs": [
        {
          "internalType": "address",
          "name": "newConverter",
          "type": "address"
        }
      ],
      "stateMutability": "nonpayable",
      "type": "constructor"
    },
    {
      "anonymous": false,
      "inputs": [
        {
          "indexed": true,
          "internalType": "address",
          "name": "previousOwner",
          "type": "address"
        },
        {
          "indexed": true,
          "internalType": "address",
          "name": "newOwner",
          "type": "address"
        }
      ],
      "name": "OwnershipTransferred",
      "type": "event"
    },
    {
      "inputs": [],
      "name": "ID_TO_MODEL",
      "outputs": [
        {
          "internalType": "uint32",
          "name": "",
          "type": "uint32"
        }
      ],
      "stateMutability": "view",
      "type": "function"
    },
    {
      "inputs": [],
      "name": "converter",
      "outputs": [
        {
          "internalType": "address",
          "name": "",
          "type": "address"
        }
      ],
      "stateMutability": "view",
      "type": "function"
    },
    {
      "inputs": [],
      "name": "owner",
      "outputs": [
        {
          "internalType": "address",
          "name": "",
          "type": "address"
        }
      ],
      "stateMutability": "view",
      "type": "function"
    },
    {
      "inputs": [],
      "name": "renounceOwnership",
      "outputs": [],
      "stateMutability": "nonpayable",
      "type": "function"
    },
    {
      "inputs": [
        {
          "internalType": "address",
          "name": "newOwner",
          "type": "address"
        }
      ],
      "name": "transferOwnership",
      "outputs": [],
      "stateMutability": "nonpayable",
      "type": "function"
    },
    {
      "inputs": [
        {
          "internalType": "address",
          "name": "newERC1155",
          "type": "address"
        },
        {
          "internalType": "uint256",
          "name": "id",
          "type": "uint256"
        },
        {
          "internalType": "uint256",
          "name": "modelId",
          "type": "uint256"
        }
      ],
      "name": "acceptNewERC1155",
      "outputs": [],
      "stateMutability": "nonpayable",
      "type": "function"
    },
    {
      "inputs": [
        {
          "internalType": "address",
          "name": "token",
          "type": "address"
        },
        {
          "internalType": "uint256",
          "name": "id",
          "type": "uint256"
        }
      ],
      "name": "convertTokenId",
      "outputs": [
        {
          "internalType": "uint256",
          "name": "",
          "type": "uint256"
        }
      ],
      "stateMutability": "nonpayable",
      "type": "function"
    },
    {
      "inputs": [
        {
          "internalType": "address",
          "name": "token",
          "type": "address"
        },
        {
          "internalType": "uint256",
          "name": "tokenId",
          "type": "uint256"
        }
      ],
      "name": "rollback",
      "outputs": [
        {
          "internalType": "uint256",
          "name": "",
          "type": "uint256"
        }
      ],
      "stateMutability": "nonpayable",
      "type": "function"
    },
    {
      "inputs": [
        {
          "internalType": "address",
          "name": "token",
          "type": "address"
        },
        {
          "internalType": "uint256",
          "name": "tokenId",
          "type": "uint256"
        }
      ],
      "name": "modelIdFor",
      "outputs": [
        {
          "internalType": "uint256",
          "name": "",
          "type": "uint256"
        }
      ],
      "stateMutability": "view",
      "type": "function"
    }
  ],
  "bytecode": "0x60806040523480156200001157600080fd5b50604051620017303803806200173083398181016040528101906200003791906200014e565b6000620000496200012f60201b60201c565b9050806000806101000a81548173ffffffffffffffffffffffffffffffffffffffff021916908373ffffffffffffffffffffffffffffffffffffffff1602179055508073ffffffffffffffffffffffffffffffffffffffff16600073ffffffffffffffffffffffffffffffffffffffff167f8be0079c531659141344cd1fd0a4f28419497f9722a3daafe3b4186f6b6457e060405160405180910390a35080600160006101000a81548173ffffffffffffffffffffffffffffffffffffffff021916908373ffffffffffffffffffffffffffffffffffffffff16021790555050620001c8565b600033905090565b6000815190506200014881620001ae565b92915050565b6000602082840312156200016157600080fd5b6000620001718482850162000137565b91505092915050565b600062000187826200018e565b9050919050565b600073ffffffffffffffffffffffffffffffffffffffff82169050919050565b620001b9816200017a565b8114620001c557600080fd5b50565b61155880620001d86000396000f3fe608060405234801561001057600080fd5b50600436106100925760003560e01c8063bad9057a11610066578063bad9057a1461010d578063bd38837b1461013d578063c637531c1461015b578063cd7c9d9c1461018b578063f2fde38b146101a757610092565b8062bb9876146100975780631b9bd1ab146100b5578063715018a6146100e55780638da5cb5b146100ef575b600080fd5b61009f6101c3565b6040516100ac919061147c565b60405180910390f35b6100cf60048036038101906100ca9190610f4a565b6101ca565b6040516100dc9190611461565b60405180910390f35b6100ed61045f565b005b6100f76105b2565b6040516101049190611326565b60405180910390f35b61012760048036038101906101229190610f4a565b6105db565b6040516101349190611461565b60405180910390f35b610145610636565b6040516101529190611326565b60405180910390f35b61017560048036038101906101709190610f4a565b61065c565b6040516101829190611461565b60405180910390f35b6101a560048036038101906101a09190610f86565b6107e7565b005b6101c160048036038101906101bc9190610f21565b610a75565b005b620f424081565b6000600160009054906101000a900473ffffffffffffffffffffffffffffffffffffffff1673ffffffffffffffffffffffffffffffffffffffff163373ffffffffffffffffffffffffffffffffffffffff161461025c576040517f08c379a0000000000000000000000000000000000000000000000000000000008152600401610253906113c1565b60405180910390fd5b6000600260008573ffffffffffffffffffffffffffffffffffffffff1673ffffffffffffffffffffffffffffffffffffffff16815260200190815260200160002060008481526020019081526020016000205414156102f0576040517f08c379a00000000000000000000000000000000000000000000000000000000081526004016102e790611361565b60405180910390fd5b6000600260008573ffffffffffffffffffffffffffffffffffffffff1673ffffffffffffffffffffffffffffffffffffffff168152602001908152602001600020600084815260200190815260200160002054905060008061036360066000858152602001908152602001600020610c37565b14156103a65761038460056000848152602001908152602001600020610c4c565b90506103a160056000848152602001908152602001600020610c5a565b6103f5565b6103cc600060066000858152602001908152602001600020610c7090919063ffffffff16565b90506103f38160066000858152602001908152602001600020610c8a90919063ffffffff16565b505b620f424063ffffffff16811415610441576040517f08c379a000000000000000000000000000000000000000000000000000000000815260040161043890611401565b60405180910390fd5b600081620f424063ffffffff16840201905080935050505092915050565b610467610ca4565b73ffffffffffffffffffffffffffffffffffffffff1660008054906101000a900473ffffffffffffffffffffffffffffffffffffffff1673ffffffffffffffffffffffffffffffffffffffff16146104f4576040517f08c379a00000000000000000000000000000000000000000000000000000000081526004016104eb90611421565b60405180910390fd5b600073ffffffffffffffffffffffffffffffffffffffff1660008054906101000a900473ffffffffffffffffffffffffffffffffffffffff1673ffffffffffffffffffffffffffffffffffffffff167f8be0079c531659141344cd1fd0a4f28419497f9722a3daafe3b4186f6b6457e060405160405180910390a360008060006101000a81548173ffffffffffffffffffffffffffffffffffffffff021916908373ffffffffffffffffffffffffffffffffffffffff160217905550565b60008060009054906101000a900473ffffffffffffffffffffffffffffffffffffffff16905090565b6000600260008473ffffffffffffffffffffffffffffffffffffffff1673ffffffffffffffffffffffffffffffffffffffff168152602001908152602001600020600083815260200190815260200160002054905092915050565b600160009054906101000a900473ffffffffffffffffffffffffffffffffffffffff1681565b6000600160009054906101000a900473ffffffffffffffffffffffffffffffffffffffff1673ffffffffffffffffffffffffffffffffffffffff163373ffffffffffffffffffffffffffffffffffffffff16146106ee576040517f08c379a00000000000000000000000000000000000000000000000000000000081526004016106e5906113c1565b60405180910390fd5b60006106f983610cac565b90506003600082815260200190815260200160002060009054906101000a900473ffffffffffffffffffffffffffffffffffffffff1673ffffffffffffffffffffffffffffffffffffffff168473ffffffffffffffffffffffffffffffffffffffff161461079c576040517f08c379a0000000000000000000000000000000000000000000000000000000008152600401610793906113e1565b60405180910390fd5b6107c96107a884610cc8565b60066000848152602001908152602001600020610ce490919063ffffffff16565b50600460008281526020019081526020016000205491505092915050565b6107ef610ca4565b73ffffffffffffffffffffffffffffffffffffffff1660008054906101000a900473ffffffffffffffffffffffffffffffffffffffff1673ffffffffffffffffffffffffffffffffffffffff161461087c576040517f08c379a000000000000000000000000000000000000000000000000000000000815260040161087390611421565b60405180910390fd5b6000600260008573ffffffffffffffffffffffffffffffffffffffff1673ffffffffffffffffffffffffffffffffffffffff1681526020019081526020016000206000848152602001908152602001600020541461090f576040517f08c379a000000000000000000000000000000000000000000000000000000000815260040161090690611441565b60405180910390fd5b600073ffffffffffffffffffffffffffffffffffffffff166003600083815260200190815260200160002060009054906101000a900473ffffffffffffffffffffffffffffffffffffffff1673ffffffffffffffffffffffffffffffffffffffff16146109b1576040517f08c379a00000000000000000000000000000000000000000000000000000000081526004016109a8906113a1565b60405180910390fd5b80600260008573ffffffffffffffffffffffffffffffffffffffff1673ffffffffffffffffffffffffffffffffffffffff168152602001908152602001600020600084815260200190815260200160002081905550826003600083815260200190815260200160002060006101000a81548173ffffffffffffffffffffffffffffffffffffffff021916908373ffffffffffffffffffffffffffffffffffffffff160217905550816004600083815260200190815260200160002081905550505050565b610a7d610ca4565b73ffffffffffffffffffffffffffffffffffffffff1660008054906101000a900473ffffffffffffffffffffffffffffffffffffffff1673ffffffffffffffffffffffffffffffffffffffff1614610b0a576040517f08c379a0000000000000000000000000000000000000000000000000000000008152600401610b0190611421565b60405180910390fd5b600073ffffffffffffffffffffffffffffffffffffffff168173ffffffffffffffffffffffffffffffffffffffff161415610b7a576040517f08c379a0000000000000000000000000000000000000000000000000000000008152600401610b7190611381565b60405180910390fd5b8073ffffffffffffffffffffffffffffffffffffffff1660008054906101000a900473ffffffffffffffffffffffffffffffffffffffff1673ffffffffffffffffffffffffffffffffffffffff167f8be0079c531659141344cd1fd0a4f28419497f9722a3daafe3b4186f6b6457e060405160405180910390a3806000806101000a81548173ffffffffffffffffffffffffffffffffffffffff021916908373ffffffffffffffffffffffffffffffffffffffff16021790555050565b6000610c4582600001610cfe565b9050919050565b600081600001549050919050565b6001816000016000828254019250508190555050565b6000610c7f8360000183610d0f565b60001c905092915050565b6000610c9c836000018360001b610d7c565b905092915050565b600033905090565b6000620f424063ffffffff168281610cc057fe5b049050919050565b6000620f424063ffffffff168281610cdc57fe5b069050919050565b6000610cf6836000018360001b610e64565b905092915050565b600081600001805490509050919050565b600081836000018054905011610d5a576040517f08c379a0000000000000000000000000000000000000000000000000000000008152600401610d5190611341565b60405180910390fd5b826000018281548110610d6957fe5b9060005260206000200154905092915050565b60008083600101600084815260200190815260200160002054905060008114610e585760006001820390506000600186600001805490500390506000866000018281548110610dc757fe5b9060005260206000200154905080876000018481548110610de457fe5b9060005260206000200181905550600183018760010160008381526020019081526020016000208190555086600001805480610e1c57fe5b60019003818190600052602060002001600090559055866001016000878152602001908152602001600020600090556001945050505050610e5e565b60009150505b92915050565b6000610e708383610ed4565b610ec9578260000182908060018154018082558091505060019003906000526020600020016000909190919091505582600001805490508360010160008481526020019081526020016000208190555060019050610ece565b600090505b92915050565b600080836001016000848152602001908152602001600020541415905092915050565b600081359050610f06816114f4565b92915050565b600081359050610f1b8161150b565b92915050565b600060208284031215610f3357600080fd5b6000610f4184828501610ef7565b91505092915050565b60008060408385031215610f5d57600080fd5b6000610f6b85828601610ef7565b9250506020610f7c85828601610f0c565b9150509250929050565b600080600060608486031215610f9b57600080fd5b6000610fa986828701610ef7565b9350506020610fba86828701610f0c565b9250506040610fcb86828701610f0c565b9150509250925092565b610fde816114a8565b82525050565b6000610ff1602283611497565b91507f456e756d657261626c655365743a20696e646578206f7574206f6620626f756e60008301527f64730000000000000000000000000000000000000000000000000000000000006020830152604082019050919050565b6000611057603283611497565b91507f45524331313535436f6e7665727465723a20756e737570706f7274656420636f60008301527f6e7472616374206f7220746f6b656e20696400000000000000000000000000006020830152604082019050919050565b60006110bd602683611497565b91507f4f776e61626c653a206e6577206f776e657220697320746865207a65726f206160008301527f64647265737300000000000000000000000000000000000000000000000000006020830152604082019050919050565b6000611123602783611497565b91507f5374616b6564537061636553686970733a206d6f64656c20696420616c72656160008301527f64792075736564000000000000000000000000000000000000000000000000006020830152604082019050919050565b6000611189602083611497565b91507f45524331313535436f6e7665727465723a20696e76616c69642063616c6c65726000830152602082019050919050565b60006111c9601f83611497565b91507f45524331313535436f6e7665727465723a20696e76616c696420746f6b656e006000830152602082019050919050565b6000611209602c83611497565b91507f45524331313535436f6e7665727465723a206d617820746f6b656e206361706160008301527f63697479207265616368656400000000000000000000000000000000000000006020830152604082019050919050565b600061126f602083611497565b91507f4f776e61626c653a2063616c6c6572206973206e6f7420746865206f776e65726000830152602082019050919050565b60006112af602c83611497565b91507f5374616b6564537061636553686970733a20616c726561647920737570706f7260008301527f74656420636f6e747261637400000000000000000000000000000000000000006020830152604082019050919050565b611311816114da565b82525050565b611320816114e4565b82525050565b600060208201905061133b6000830184610fd5565b92915050565b6000602082019050818103600083015261135a81610fe4565b9050919050565b6000602082019050818103600083015261137a8161104a565b9050919050565b6000602082019050818103600083015261139a816110b0565b9050919050565b600060208201905081810360008301526113ba81611116565b9050919050565b600060208201905081810360008301526113da8161117c565b9050919050565b600060208201905081810360008301526113fa816111bc565b9050919050565b6000602082019050818103600083015261141a816111fc565b9050919050565b6000602082019050818103600083015261143a81611262565b9050919050565b6000602082019050818103600083015261145a816112a2565b9050919050565b60006020820190506114766000830184611308565b92915050565b60006020820190506114916000830184611317565b92915050565b600082825260208201905092915050565b60006114b3826114ba565b9050919050565b600073ffffffffffffffffffffffffffffffffffffffff82169050919050565b6000819050919050565b600063ffffffff82169050919050565b6114fd816114a8565b811461150857600080fd5b50565b611514816114da565b811461151f57600080fd5b5056fea2646970667358221220ea15a6f8ce133674c16fb9a92b43e0ac197438565746c2ac14c990c8d0bfa90864736f6c634300060c0033",
  "immutableReferences": {},
  "source": "// SPDX-License-Identifier: MIT\n\npragma solidity ^0.6.0;\npragma experimental ABIEncoderV2;\n\nimport \"@openzeppelin/contracts/access/Ownable.sol\";\nimport \"@openzeppelin/contracts/utils/EnumerableSet.sol\";\nimport \"@openzeppelin/contracts/utils/Counters.sol\";\nimport \"./ITokenIdConverter.sol\";\n\ncontract ERC1155Converter is ITokenIdConverter, Ownable {\n    using EnumerableSet for EnumerableSet.UintSet;\n    using Counters for Counters.Counter;\n\n    address public converter;\n    uint32 public constant ID_TO_MODEL = 1000000;\n\n    mapping(address => mapping(uint256 => uint256)) private erc1155Accepetd;\n    mapping(uint256 => address) private modelIdToERC1155Contract;\n    mapping(uint256 => uint256) private modelIdToERC1155TokenId;\n    mapping(uint256 => Counters.Counter) private _tokenIdTrackers;\n    mapping(uint256 => EnumerableSet.UintSet) private _freeSerials;\n\n    constructor(address newConverter) public {\n        converter = newConverter;\n    }\n\n    function acceptNewERC1155(address newERC1155, uint256 id, uint256 modelId) onlyOwner external {\n        require(erc1155Accepetd[newERC1155][id] == 0, \"StakedSpaceShips: already supported contract\");\n        require(modelIdToERC1155Contract[modelId] == address(0), \"StakedSpaceShips: model id already used\");\n\n        erc1155Accepetd[newERC1155][id] = modelId;\n        modelIdToERC1155Contract[modelId] = newERC1155;\n        modelIdToERC1155TokenId[modelId] = id;\n    }\n\n    function convertTokenId(address token, uint256 id) override external returns(uint256) {\n        require(msg.sender == converter, \"ERC1155Converter: invalid caller\");\n        require(erc1155Accepetd[token][id] != 0, \"ERC1155Converter: unsupported contract or token id\");\n\n        uint256 modelId = erc1155Accepetd[token][id];\n        uint256 serial;\n        if(_freeSerials[modelId].length() == 0) {\n            serial = _tokenIdTrackers[modelId].current();\n            _tokenIdTrackers[modelId].increment();\n        } else {\n            serial = _freeSerials[modelId].at(0);\n            _freeSerials[modelId].remove(serial);\n        }\n        require(serial != ID_TO_MODEL, \"ERC1155Converter: max token capacity reached\");\n        uint256 newTokenId = modelId * ID_TO_MODEL + serial;\n        return newTokenId;\n    }\n\n    function rollback(address token, uint256 tokenId) override external returns(uint256) {\n        require(msg.sender == converter, \"ERC1155Converter: invalid caller\");\n        uint256 modelId = _idToModel(tokenId);\n        require(token == modelIdToERC1155Contract[modelId], \"ERC1155Converter: invalid token\");\n\n        _freeSerials[modelId].add(_idToSerial(tokenId));\n\n        return modelIdToERC1155TokenId[modelId];\n    }\n\n    function modelIdFor(address token, uint256 tokenId) override external view returns(uint256) {\n        return erc1155Accepetd[token][tokenId];\n    }\n\n    function _idToModel(uint256 id) internal pure returns (uint256) {\n        return id / ID_TO_MODEL;\n    }\n\n    function _idToSerial(uint256 id) internal pure returns (uint256) {\n        return id % ID_TO_MODEL;\n    }\n}\n",
  "sourcePath": "/Users/fred/Documents/projets/cometh-renting-contract/contracts/Test/StakedSpaceShips/TokenIdConverter/ERC1155Converter.sol",
  "compiler": {
    "name": "solc",
    "version": "0.6.12+commit.27d51765.Emscripten.clang"
  },
  "schemaVersion": "3.3.3",
  "updatedAt": "2021-03-23T10:20:55.835Z",
  "devdoc": {
    "kind": "dev",
    "methods": {
      "owner()": {
        "details": "Returns the address of the current owner."
      },
      "renounceOwnership()": {
        "details": "Leaves the contract without owner. It will not be possible to call `onlyOwner` functions anymore. Can only be called by the current owner. NOTE: Renouncing ownership will leave the contract without an owner, thereby removing any functionality that is only available to the owner."
      },
      "transferOwnership(address)": {
        "details": "Transfers ownership of the contract to a new account (`newOwner`). Can only be called by the current owner."
      }
    },
    "version": 1
  },
  "userdoc": {
    "kind": "user",
    "methods": {},
    "version": 1
  }
}