{
  "contractName": "SpaceShipsConverter",
  "abi": [
    {
      "inputs": [
        {
          "internalType": "address",
          "name": "stakedSpaceShips",
          "type": "address"
        }
      ],
      "stateMutability": "nonpayable",
      "type": "constructor"
    },
    {
      "anonymous": false,
      "inputs": [
        {
          "indexed": true,
          "internalType": "address",
          "name": "owner",
          "type": "address"
        },
        {
          "indexed": true,
          "internalType": "address",
          "name": "approved",
          "type": "address"
        },
        {
          "indexed": true,
          "internalType": "uint256",
          "name": "tokenId",
          "type": "uint256"
        }
      ],
      "name": "Approval",
      "type": "event"
    },
    {
      "anonymous": false,
      "inputs": [
        {
          "indexed": true,
          "internalType": "address",
          "name": "owner",
          "type": "address"
        },
        {
          "indexed": true,
          "internalType": "address",
          "name": "operator",
          "type": "address"
        },
        {
          "indexed": false,
          "internalType": "bool",
          "name": "approved",
          "type": "bool"
        }
      ],
      "name": "ApprovalForAll",
      "type": "event"
    },
    {
      "anonymous": false,
      "inputs": [
        {
          "indexed": true,
          "internalType": "address",
          "name": "previousOwner",
          "type": "address"
        },
        {
          "indexed": true,
          "internalType": "address",
          "name": "newOwner",
          "type": "address"
        }
      ],
      "name": "OwnershipTransferred",
      "type": "event"
    },
    {
      "anonymous": false,
      "inputs": [
        {
          "indexed": true,
          "internalType": "address",
          "name": "from",
          "type": "address"
        },
        {
          "indexed": true,
          "internalType": "address",
          "name": "to",
          "type": "address"
        },
        {
          "indexed": true,
          "internalType": "uint256",
          "name": "tokenId",
          "type": "uint256"
        }
      ],
      "name": "Transfer",
      "type": "event"
    },
    {
      "inputs": [
        {
          "internalType": "address",
          "name": "to",
          "type": "address"
        },
        {
          "internalType": "uint256",
          "name": "tokenId",
          "type": "uint256"
        }
      ],
      "name": "approve",
      "outputs": [],
      "stateMutability": "nonpayable",
      "type": "function"
    },
    {
      "inputs": [
        {
          "internalType": "address",
          "name": "owner",
          "type": "address"
        }
      ],
      "name": "balanceOf",
      "outputs": [
        {
          "internalType": "uint256",
          "name": "",
          "type": "uint256"
        }
      ],
      "stateMutability": "view",
      "type": "function"
    },
    {
      "inputs": [],
      "name": "baseURI",
      "outputs": [
        {
          "internalType": "string",
          "name": "",
          "type": "string"
        }
      ],
      "stateMutability": "view",
      "type": "function"
    },
    {
      "inputs": [
        {
          "internalType": "uint256",
          "name": "tokenId",
          "type": "uint256"
        }
      ],
      "name": "getApproved",
      "outputs": [
        {
          "internalType": "address",
          "name": "",
          "type": "address"
        }
      ],
      "stateMutability": "view",
      "type": "function"
    },
    {
      "inputs": [
        {
          "internalType": "address",
          "name": "owner",
          "type": "address"
        },
        {
          "internalType": "address",
          "name": "operator",
          "type": "address"
        }
      ],
      "name": "isApprovedForAll",
      "outputs": [
        {
          "internalType": "bool",
          "name": "",
          "type": "bool"
        }
      ],
      "stateMutability": "view",
      "type": "function"
    },
    {
      "inputs": [],
      "name": "name",
      "outputs": [
        {
          "internalType": "string",
          "name": "",
          "type": "string"
        }
      ],
      "stateMutability": "view",
      "type": "function"
    },
    {
      "inputs": [],
      "name": "owner",
      "outputs": [
        {
          "internalType": "address",
          "name": "",
          "type": "address"
        }
      ],
      "stateMutability": "view",
      "type": "function"
    },
    {
      "inputs": [
        {
          "internalType": "uint256",
          "name": "tokenId",
          "type": "uint256"
        }
      ],
      "name": "ownerOf",
      "outputs": [
        {
          "internalType": "address",
          "name": "",
          "type": "address"
        }
      ],
      "stateMutability": "view",
      "type": "function"
    },
    {
      "inputs": [],
      "name": "renounceOwnership",
      "outputs": [],
      "stateMutability": "nonpayable",
      "type": "function"
    },
    {
      "inputs": [
        {
          "internalType": "address",
          "name": "from",
          "type": "address"
        },
        {
          "internalType": "address",
          "name": "to",
          "type": "address"
        },
        {
          "internalType": "uint256",
          "name": "tokenId",
          "type": "uint256"
        }
      ],
      "name": "safeTransferFrom",
      "outputs": [],
      "stateMutability": "nonpayable",
      "type": "function"
    },
    {
      "inputs": [
        {
          "internalType": "address",
          "name": "from",
          "type": "address"
        },
        {
          "internalType": "address",
          "name": "to",
          "type": "address"
        },
        {
          "internalType": "uint256",
          "name": "tokenId",
          "type": "uint256"
        },
        {
          "internalType": "bytes",
          "name": "_data",
          "type": "bytes"
        }
      ],
      "name": "safeTransferFrom",
      "outputs": [],
      "stateMutability": "nonpayable",
      "type": "function"
    },
    {
      "inputs": [
        {
          "internalType": "address",
          "name": "operator",
          "type": "address"
        },
        {
          "internalType": "bool",
          "name": "approved",
          "type": "bool"
        }
      ],
      "name": "setApprovalForAll",
      "outputs": [],
      "stateMutability": "nonpayable",
      "type": "function"
    },
    {
      "inputs": [
        {
          "internalType": "bytes4",
          "name": "interfaceId",
          "type": "bytes4"
        }
      ],
      "name": "supportsInterface",
      "outputs": [
        {
          "internalType": "bool",
          "name": "",
          "type": "bool"
        }
      ],
      "stateMutability": "view",
      "type": "function"
    },
    {
      "inputs": [],
      "name": "symbol",
      "outputs": [
        {
          "internalType": "string",
          "name": "",
          "type": "string"
        }
      ],
      "stateMutability": "view",
      "type": "function"
    },
    {
      "inputs": [
        {
          "internalType": "uint256",
          "name": "index",
          "type": "uint256"
        }
      ],
      "name": "tokenByIndex",
      "outputs": [
        {
          "internalType": "uint256",
          "name": "",
          "type": "uint256"
        }
      ],
      "stateMutability": "view",
      "type": "function"
    },
    {
      "inputs": [
        {
          "internalType": "address",
          "name": "owner",
          "type": "address"
        },
        {
          "internalType": "uint256",
          "name": "index",
          "type": "uint256"
        }
      ],
      "name": "tokenOfOwnerByIndex",
      "outputs": [
        {
          "internalType": "uint256",
          "name": "",
          "type": "uint256"
        }
      ],
      "stateMutability": "view",
      "type": "function"
    },
    {
      "inputs": [
        {
          "internalType": "uint256",
          "name": "tokenId",
          "type": "uint256"
        }
      ],
      "name": "tokenURI",
      "outputs": [
        {
          "internalType": "string",
          "name": "",
          "type": "string"
        }
      ],
      "stateMutability": "view",
      "type": "function"
    },
    {
      "inputs": [],
      "name": "totalSupply",
      "outputs": [
        {
          "internalType": "uint256",
          "name": "",
          "type": "uint256"
        }
      ],
      "stateMutability": "view",
      "type": "function"
    },
    {
      "inputs": [
        {
          "internalType": "address",
          "name": "from",
          "type": "address"
        },
        {
          "internalType": "address",
          "name": "to",
          "type": "address"
        },
        {
          "internalType": "uint256",
          "name": "tokenId",
          "type": "uint256"
        }
      ],
      "name": "transferFrom",
      "outputs": [],
      "stateMutability": "nonpayable",
      "type": "function"
    },
    {
      "inputs": [
        {
          "internalType": "address",
          "name": "newOwner",
          "type": "address"
        }
      ],
      "name": "transferOwnership",
      "outputs": [],
      "stateMutability": "nonpayable",
      "type": "function"
    },
    {
      "inputs": [
        {
          "internalType": "address",
          "name": "newERC1155",
          "type": "address"
        },
        {
          "internalType": "contract ITokenIdConverter",
          "name": "tokenIdConverter",
          "type": "address"
        }
      ],
      "name": "acceptNewERC721",
      "outputs": [],
      "stateMutability": "nonpayable",
      "type": "function"
    },
    {
      "inputs": [
        {
          "internalType": "address",
          "name": "newERC1155",
          "type": "address"
        },
        {
          "internalType": "contract ITokenIdConverter",
          "name": "tokenIdConverter",
          "type": "address"
        }
      ],
      "name": "acceptNewERC1155",
      "outputs": [],
      "stateMutability": "nonpayable",
      "type": "function"
    },
    {
      "inputs": [
        {
          "internalType": "address",
          "name": "token",
          "type": "address"
        },
        {
          "internalType": "uint256",
          "name": "tokenId",
          "type": "uint256"
        }
      ],
      "name": "convertERC721",
      "outputs": [],
      "stateMutability": "nonpayable",
      "type": "function"
    },
    {
      "inputs": [
        {
          "internalType": "address",
          "name": "token",
          "type": "address"
        },
        {
          "internalType": "uint256",
          "name": "tokenId",
          "type": "uint256"
        }
      ],
      "name": "convertERC1155",
      "outputs": [],
      "stateMutability": "nonpayable",
      "type": "function"
    },
    {
      "inputs": [
        {
          "internalType": "address",
          "name": "",
          "type": "address"
        },
        {
          "internalType": "address",
          "name": "from",
          "type": "address"
        },
        {
          "internalType": "uint256",
          "name": "id",
          "type": "uint256"
        },
        {
          "internalType": "uint256",
          "name": "value",
          "type": "uint256"
        },
        {
          "internalType": "bytes",
          "name": "data",
          "type": "bytes"
        }
      ],
      "name": "onERC1155Received",
      "outputs": [
        {
          "internalType": "bytes4",
          "name": "",
          "type": "bytes4"
        }
      ],
      "stateMutability": "nonpayable",
      "type": "function"
    },
    {
      "inputs": [
        {
          "internalType": "address",
          "name": "",
          "type": "address"
        },
        {
          "internalType": "address",
          "name": "from",
          "type": "address"
        },
        {
          "internalType": "uint256",
          "name": "id",
          "type": "uint256"
        },
        {
          "internalType": "bytes",
          "name": "data",
          "type": "bytes"
        }
      ],
      "name": "onERC721Received",
      "outputs": [
        {
          "internalType": "bytes4",
          "name": "",
          "type": "bytes4"
        }
      ],
      "stateMutability": "nonpayable",
      "type": "function"
    },
    {
      "inputs": [
        {
          "internalType": "uint256",
          "name": "newTokenId",
          "type": "uint256"
        }
      ],
      "name": "burn",
      "outputs": [],
      "stateMutability": "nonpayable",
      "type": "function"
    },
    {
      "inputs": [
        {
          "internalType": "address",
          "name": "token",
          "type": "address"
        },
        {
          "internalType": "uint256",
          "name": "tokenId",
          "type": "uint256"
        }
      ],
      "name": "modelIdFor",
      "outputs": [
        {
          "internalType": "uint256",
          "name": "",
          "type": "uint256"
        }
      ],
      "stateMutability": "view",
      "type": "function"
    }
  ],
  "bytecode": "0x60806040523480156200001157600080fd5b5060405162005141380380620051418339818101604052810190620000379190620003cd565b6040518060400160405280601481526020017f636f6e76657274656420737061636573686970730000000000000000000000008152506040518060400160405280600581526020017f4353484950000000000000000000000000000000000000000000000000000000815250620000bb6301ffc9a760e01b6200023060201b60201c565b8160069080519060200190620000d392919062000310565b508060079080519060200190620000ec92919062000310565b50620001056380ac58cd60e01b6200023060201b60201c565b6200011d635b5e139f60e01b6200023060201b60201c565b6200013563780e9d6360e01b6200023060201b60201c565b50506000620001496200030860201b60201c565b905080600a60006101000a81548173ffffffffffffffffffffffffffffffffffffffff021916908373ffffffffffffffffffffffffffffffffffffffff1602179055508073ffffffffffffffffffffffffffffffffffffffff16600073ffffffffffffffffffffffffffffffffffffffff167f8be0079c531659141344cd1fd0a4f28419497f9722a3daafe3b4186f6b6457e060405160405180910390a35080600e60006101000a81548173ffffffffffffffffffffffffffffffffffffffff021916908373ffffffffffffffffffffffffffffffffffffffff16021790555050620004bc565b63ffffffff60e01b817bffffffffffffffffffffffffffffffffffffffffffffffffffffffff191614156200029c576040517f08c379a000000000000000000000000000000000000000000000000000000000815260040162000293906200043b565b60405180910390fd5b6001600080837bffffffffffffffffffffffffffffffffffffffffffffffffffffffff19167bffffffffffffffffffffffffffffffffffffffffffffffffffffffff1916815260200190815260200160002060006101000a81548160ff02191690831515021790555050565b600033905090565b828054600181600116156101000203166002900490600052602060002090601f016020900481019282601f106200035357805160ff191683800117855562000384565b8280016001018555821562000384579182015b828111156200038357825182559160200191906001019062000366565b5b50905062000393919062000397565b5090565b5b80821115620003b257600081600090555060010162000398565b5090565b600081519050620003c781620004a2565b92915050565b600060208284031215620003e057600080fd5b6000620003f084828501620003b6565b91505092915050565b600062000408601c836200045d565b91507f4552433136353a20696e76616c696420696e74657266616365206964000000006000830152602082019050919050565b600060208201905081810360008301526200045681620003f9565b9050919050565b600082825260208201905092915050565b60006200047b8262000482565b9050919050565b600073ffffffffffffffffffffffffffffffffffffffff82169050919050565b620004ad816200046e565b8114620004b957600080fd5b50565b614c7580620004cc6000396000f3fe608060405234801561001057600080fd5b50600436106101c45760003560e01c80636c0360eb116100f9578063a43d9c0611610097578063c87b56dd11610071578063c87b56dd14610501578063e985e9c514610531578063f23a6e6114610561578063f2fde38b14610591576101c4565b8063a43d9c0614610499578063b88d4fde146104b5578063bad9057a146104d1576101c4565b80638da5cb5b116100d35780638da5cb5b146104255780638f378a3c1461044357806395d89b411461045f578063a22cb4651461047d576101c4565b80636c0360eb146103cd57806370a08231146103eb578063715018a61461041b576101c4565b806325122a251161016657806342842e0e1161014057806342842e0e1461033557806342966c68146103515780634f6ccce71461036d5780636352211e1461039d576101c4565b806325122a25146102cd5780632f745c59146102e95780633f1a814014610319576101c4565b8063095ea7b3116101a2578063095ea7b314610247578063150b7a021461026357806318160ddd1461029357806323b872dd146102b1576101c4565b806301ffc9a7146101c957806306fdde03146101f9578063081812fc14610217575b600080fd5b6101e360048036038101906101de9190613902565b6105ad565b6040516101f0919061462f565b60405180910390f35b610201610614565b60405161020e9190614665565b60405180910390f35b610231600480360381019061022c9190613954565b6106b6565b60405161023e9190614432565b60405180910390f35b610261600480360381019061025c91906138c6565b61073b565b005b61027d600480360381019061027891906136c1565b610853565b60405161028a919061464a565b60405180910390f35b61029b610aa8565b6040516102a89190614967565b60405180910390f35b6102cb60048036038101906102c69190613672565b610ab9565b005b6102e760048036038101906102e291906138c6565b610b19565b005b61030360048036038101906102fe91906138c6565b610b8f565b6040516103109190614967565b60405180910390f35b610333600480360381019061032e919061388a565b610bea565b005b61034f600480360381019061034a9190613672565b610dd1565b005b61036b60048036038101906103669190613954565b610df1565b005b61038760048036038101906103829190613954565b610e4d565b6040516103949190614967565b60405180910390f35b6103b760048036038101906103b29190613954565b610e70565b6040516103c49190614432565b60405180910390f35b6103d5610ea7565b6040516103e29190614665565b60405180910390f35b6104056004803603810190610400919061360d565b610f49565b6040516104129190614967565b60405180910390f35b610423611008565b005b61042d611160565b60405161043a9190614432565b60405180910390f35b61045d6004803603810190610458919061388a565b61118a565b005b610467611371565b6040516104749190614665565b60405180910390f35b6104976004803603810190610492919061384e565b611413565b005b6104b360048036038101906104ae91906138c6565b611594565b005b6104cf60048036038101906104ca9190613741565b611607565b005b6104eb60048036038101906104e691906138c6565b611669565b6040516104f89190614967565b60405180910390f35b61051b60048036038101906105169190613954565b61186a565b6040516105289190614665565b60405180910390f35b61054b60048036038101906105469190613636565b6119f5565b604051610558919061462f565b60405180910390f35b61057b600480360381019061057691906137bc565b611a89565b604051610588919061464a565b60405180910390f35b6105ab60048036038101906105a6919061360d565b611d22565b005b6000806000837bffffffffffffffffffffffffffffffffffffffffffffffffffffffff19167bffffffffffffffffffffffffffffffffffffffffffffffffffffffff1916815260200190815260200160002060009054906101000a900460ff169050919050565b606060068054600181600116156101000203166002900480601f0160208091040260200160405190810160405280929190818152602001828054600181600116156101000203166002900480156106ac5780601f10610681576101008083540402835291602001916106ac565b820191906000526020600020905b81548152906001019060200180831161068f57829003601f168201915b5050505050905090565b60006106c182611ee9565b610700576040517f08c379a00000000000000000000000000000000000000000000000000000000081526004016106f790614827565b60405180910390fd5b6004600083815260200190815260200160002060009054906101000a900473ffffffffffffffffffffffffffffffffffffffff169050919050565b600061074682610e70565b90508073ffffffffffffffffffffffffffffffffffffffff168373ffffffffffffffffffffffffffffffffffffffff1614156107b7576040517f08c379a00000000000000000000000000000000000000000000000000000000081526004016107ae906148a7565b60405180910390fd5b8073ffffffffffffffffffffffffffffffffffffffff166107d6611f06565b73ffffffffffffffffffffffffffffffffffffffff1614806108055750610804816107ff611f06565b6119f5565b5b610844576040517f08c379a000000000000000000000000000000000000000000000000000000000815260040161083b90614787565b60405180910390fd5b61084e8383611f0e565b505050565b600080600c60003373ffffffffffffffffffffffffffffffffffffffff1673ffffffffffffffffffffffffffffffffffffffff16815260200190815260200160002060009054906101000a900473ffffffffffffffffffffffffffffffffffffffff169050600073ffffffffffffffffffffffffffffffffffffffff168173ffffffffffffffffffffffffffffffffffffffff161415610928576040517f08c379a000000000000000000000000000000000000000000000000000000000815260040161091f90614927565b60405180910390fd5b60008173ffffffffffffffffffffffffffffffffffffffff16631b9bd1ab33886040518363ffffffff1660e01b815260040161096592919061453b565b602060405180830381600087803b15801561097f57600080fd5b505af1158015610993573d6000803e3d6000fd5b505050506040513d601f19601f820116820180604052508101906109b7919061397d565b905033600d600083815260200190815260200160002060006101000a81548173ffffffffffffffffffffffffffffffffffffffff021916908373ffffffffffffffffffffffffffffffffffffffff160217905550610a158782611fc7565b60008585905014610a9357610a9287600e60009054906101000a900473ffffffffffffffffffffffffffffffffffffffff168388888080601f016020809104026020016040519081016040528093929190818152602001838380828437600081840152601f19601f82011690508083019250505050505050612155565b5b63150b7a0260e01b9250505095945050505050565b6000610ab46002612233565b905090565b610aca610ac4611f06565b82612248565b610b09576040517f08c379a0000000000000000000000000000000000000000000000000000000008152600401610b00906148e7565b60405180910390fd5b610b14838383612326565b505050565b8173ffffffffffffffffffffffffffffffffffffffff1663f242432a33308460016040518563ffffffff1660e01b8152600401610b599493929190614499565b600060405180830381600087803b158015610b7357600080fd5b505af1158015610b87573d6000803e3d6000fd5b505050505050565b6000610be282600160008673ffffffffffffffffffffffffffffffffffffffff1673ffffffffffffffffffffffffffffffffffffffff16815260200190815260200160002061253d90919063ffffffff16565b905092915050565b610bf2611f06565b73ffffffffffffffffffffffffffffffffffffffff16600a60009054906101000a900473ffffffffffffffffffffffffffffffffffffffff1673ffffffffffffffffffffffffffffffffffffffff1614610c81576040517f08c379a0000000000000000000000000000000000000000000000000000000008152600401610c7890614847565b60405180910390fd5b600073ffffffffffffffffffffffffffffffffffffffff16600c60008473ffffffffffffffffffffffffffffffffffffffff1673ffffffffffffffffffffffffffffffffffffffff16815260200190815260200160002060009054906101000a900473ffffffffffffffffffffffffffffffffffffffff1673ffffffffffffffffffffffffffffffffffffffff1614610d4f576040517f08c379a0000000000000000000000000000000000000000000000000000000008152600401610d4690614947565b60405180910390fd5b80600c60008473ffffffffffffffffffffffffffffffffffffffff1673ffffffffffffffffffffffffffffffffffffffff16815260200190815260200160002060006101000a81548173ffffffffffffffffffffffffffffffffffffffff021916908373ffffffffffffffffffffffffffffffffffffffff1602179055505050565b610dec83838360405180602001604052806000815250611607565b505050565b610e02610dfc611f06565b82612248565b610e41576040517f08c379a0000000000000000000000000000000000000000000000000000000008152600401610e38906147c7565b60405180910390fd5b610e4a81612557565b50565b600080610e648360026128b090919063ffffffff16565b50905080915050919050565b6000610ea082604051806060016040528060298152602001614c176029913960026128dc9092919063ffffffff16565b9050919050565b606060098054600181600116156101000203166002900480601f016020809104026020016040519081016040528092919081815260200182805460018160011615610100020316600290048015610f3f5780601f10610f1457610100808354040283529160200191610f3f565b820191906000526020600020905b815481529060010190602001808311610f2257829003601f168201915b5050505050905090565b60008073ffffffffffffffffffffffffffffffffffffffff168273ffffffffffffffffffffffffffffffffffffffff161415610fba576040517f08c379a0000000000000000000000000000000000000000000000000000000008152600401610fb1906147a7565b60405180910390fd5b611001600160008473ffffffffffffffffffffffffffffffffffffffff1673ffffffffffffffffffffffffffffffffffffffff1681526020019081526020016000206128fb565b9050919050565b611010611f06565b73ffffffffffffffffffffffffffffffffffffffff16600a60009054906101000a900473ffffffffffffffffffffffffffffffffffffffff1673ffffffffffffffffffffffffffffffffffffffff161461109f576040517f08c379a000000000000000000000000000000000000000000000000000000000815260040161109690614847565b60405180910390fd5b600073ffffffffffffffffffffffffffffffffffffffff16600a60009054906101000a900473ffffffffffffffffffffffffffffffffffffffff1673ffffffffffffffffffffffffffffffffffffffff167f8be0079c531659141344cd1fd0a4f28419497f9722a3daafe3b4186f6b6457e060405160405180910390a36000600a60006101000a81548173ffffffffffffffffffffffffffffffffffffffff021916908373ffffffffffffffffffffffffffffffffffffffff160217905550565b6000600a60009054906101000a900473ffffffffffffffffffffffffffffffffffffffff16905090565b611192611f06565b73ffffffffffffffffffffffffffffffffffffffff16600a60009054906101000a900473ffffffffffffffffffffffffffffffffffffffff1673ffffffffffffffffffffffffffffffffffffffff1614611221576040517f08c379a000000000000000000000000000000000000000000000000000000000815260040161121890614847565b60405180910390fd5b600073ffffffffffffffffffffffffffffffffffffffff16600b60008473ffffffffffffffffffffffffffffffffffffffff1673ffffffffffffffffffffffffffffffffffffffff16815260200190815260200160002060009054906101000a900473ffffffffffffffffffffffffffffffffffffffff1673ffffffffffffffffffffffffffffffffffffffff16146112ef576040517f08c379a00000000000000000000000000000000000000000000000000000000081526004016112e690614947565b60405180910390fd5b80600b60008473ffffffffffffffffffffffffffffffffffffffff1673ffffffffffffffffffffffffffffffffffffffff16815260200190815260200160002060006101000a81548173ffffffffffffffffffffffffffffffffffffffff021916908373ffffffffffffffffffffffffffffffffffffffff1602179055505050565b606060078054600181600116156101000203166002900480601f0160208091040260200160405190810160405280929190818152602001828054600181600116156101000203166002900480156114095780601f106113de57610100808354040283529160200191611409565b820191906000526020600020905b8154815290600101906020018083116113ec57829003601f168201915b5050505050905090565b61141b611f06565b73ffffffffffffffffffffffffffffffffffffffff168273ffffffffffffffffffffffffffffffffffffffff161415611489576040517f08c379a000000000000000000000000000000000000000000000000000000000815260040161148090614727565b60405180910390fd5b8060056000611496611f06565b73ffffffffffffffffffffffffffffffffffffffff1673ffffffffffffffffffffffffffffffffffffffff16815260200190815260200160002060008473ffffffffffffffffffffffffffffffffffffffff1673ffffffffffffffffffffffffffffffffffffffff16815260200190815260200160002060006101000a81548160ff0219169083151502179055508173ffffffffffffffffffffffffffffffffffffffff16611543611f06565b73ffffffffffffffffffffffffffffffffffffffff167f17307eab39ab6107e8899845ad3d59bd9653f200f220920489ca2b5937696c3183604051611588919061462f565b60405180910390a35050565b8173ffffffffffffffffffffffffffffffffffffffff1663b88d4fde3330846040518463ffffffff1660e01b81526004016115d1939291906144f1565b600060405180830381600087803b1580156115eb57600080fd5b505af11580156115ff573d6000803e3d6000fd5b505050505050565b611618611612611f06565b83612248565b611657576040517f08c379a000000000000000000000000000000000000000000000000000000000815260040161164e906148e7565b60405180910390fd5b61166384848484612155565b50505050565b600080600b60008573ffffffffffffffffffffffffffffffffffffffff1673ffffffffffffffffffffffffffffffffffffffff16815260200190815260200160002060009054906101000a900473ffffffffffffffffffffffffffffffffffffffff169050600073ffffffffffffffffffffffffffffffffffffffff168173ffffffffffffffffffffffffffffffffffffffff16141561176657600c60008573ffffffffffffffffffffffffffffffffffffffff1673ffffffffffffffffffffffffffffffffffffffff16815260200190815260200160002060009054906101000a900473ffffffffffffffffffffffffffffffffffffffff1690505b600073ffffffffffffffffffffffffffffffffffffffff168173ffffffffffffffffffffffffffffffffffffffff1614156117d6576040517f08c379a00000000000000000000000000000000000000000000000000000000081526004016117cd90614927565b60405180910390fd5b8073ffffffffffffffffffffffffffffffffffffffff1663bad9057a85856040518363ffffffff1660e01b8152600401611811929190614606565b60206040518083038186803b15801561182957600080fd5b505afa15801561183d573d6000803e3d6000fd5b505050506040513d601f19601f82011682018060405250810190611861919061397d565b91505092915050565b606061187582611ee9565b6118b4576040517f08c379a00000000000000000000000000000000000000000000000000000000081526004016118ab90614887565b60405180910390fd5b6060600860008481526020019081526020016000208054600181600116156101000203166002900480601f01602080910402602001604051908101604052809291908181526020018280546001816001161561010002031660029004801561195d5780601f106119325761010080835404028352916020019161195d565b820191906000526020600020905b81548152906001019060200180831161194057829003601f168201915b5050505050905060006009805460018160011615610100020316600290049050141561198c57809150506119f0565b6000815111156119c1576009816040516020016119aa92919061440e565b6040516020818303038152906040529150506119f0565b60096119cc84612910565b6040516020016119dd92919061440e565b6040516020818303038152906040529150505b919050565b6000600560008473ffffffffffffffffffffffffffffffffffffffff1673ffffffffffffffffffffffffffffffffffffffff16815260200190815260200160002060008373ffffffffffffffffffffffffffffffffffffffff1673ffffffffffffffffffffffffffffffffffffffff16815260200190815260200160002060009054906101000a900460ff16905092915050565b600080600b60003373ffffffffffffffffffffffffffffffffffffffff1673ffffffffffffffffffffffffffffffffffffffff16815260200190815260200160002060009054906101000a900473ffffffffffffffffffffffffffffffffffffffff169050600073ffffffffffffffffffffffffffffffffffffffff168173ffffffffffffffffffffffffffffffffffffffff161415611b5e576040517f08c379a0000000000000000000000000000000000000000000000000000000008152600401611b5590614927565b60405180910390fd5b60018514611ba1576040517f08c379a0000000000000000000000000000000000000000000000000000000008152600401611b98906148c7565b60405180910390fd5b60008173ffffffffffffffffffffffffffffffffffffffff16631b9bd1ab33896040518363ffffffff1660e01b8152600401611bde92919061453b565b602060405180830381600087803b158015611bf857600080fd5b505af1158015611c0c573d6000803e3d6000fd5b505050506040513d601f19601f82011682018060405250810190611c30919061397d565b905033600d600083815260200190815260200160002060006101000a81548173ffffffffffffffffffffffffffffffffffffffff021916908373ffffffffffffffffffffffffffffffffffffffff160217905550611c8e8882611fc7565b60008585905014611d0c57611d0b88600e60009054906101000a900473ffffffffffffffffffffffffffffffffffffffff168388888080601f016020809104026020016040519081016040528093929190818152602001838380828437600081840152601f19601f82011690508083019250505050505050612155565b5b63f23a6e6160e01b925050509695505050505050565b611d2a611f06565b73ffffffffffffffffffffffffffffffffffffffff16600a60009054906101000a900473ffffffffffffffffffffffffffffffffffffffff1673ffffffffffffffffffffffffffffffffffffffff1614611db9576040517f08c379a0000000000000000000000000000000000000000000000000000000008152600401611db090614847565b60405180910390fd5b600073ffffffffffffffffffffffffffffffffffffffff168173ffffffffffffffffffffffffffffffffffffffff161415611e29576040517f08c379a0000000000000000000000000000000000000000000000000000000008152600401611e20906146c7565b60405180910390fd5b8073ffffffffffffffffffffffffffffffffffffffff16600a60009054906101000a900473ffffffffffffffffffffffffffffffffffffffff1673ffffffffffffffffffffffffffffffffffffffff167f8be0079c531659141344cd1fd0a4f28419497f9722a3daafe3b4186f6b6457e060405160405180910390a380600a60006101000a81548173ffffffffffffffffffffffffffffffffffffffff021916908373ffffffffffffffffffffffffffffffffffffffff16021790555050565b6000611eff826002612a5790919063ffffffff16565b9050919050565b600033905090565b816004600083815260200190815260200160002060006101000a81548173ffffffffffffffffffffffffffffffffffffffff021916908373ffffffffffffffffffffffffffffffffffffffff160217905550808273ffffffffffffffffffffffffffffffffffffffff16611f8183610e70565b73ffffffffffffffffffffffffffffffffffffffff167f8c5be1e5ebec7d5bd14f71427d1e84f3dd0314c0f7b2291e5b200ac8c7c3b92560405160405180910390a45050565b600073ffffffffffffffffffffffffffffffffffffffff168273ffffffffffffffffffffffffffffffffffffffff161415612037576040517f08c379a000000000000000000000000000000000000000000000000000000000815260040161202e90614807565b60405180910390fd5b61204081611ee9565b15612080576040517f08c379a0000000000000000000000000000000000000000000000000000000008152600401612077906146e7565b60405180910390fd5b61208c60008383612a71565b6120dd81600160008573ffffffffffffffffffffffffffffffffffffffff1673ffffffffffffffffffffffffffffffffffffffff168152602001908152602001600020612a7690919063ffffffff16565b506120f481836002612a909092919063ffffffff16565b50808273ffffffffffffffffffffffffffffffffffffffff16600073ffffffffffffffffffffffffffffffffffffffff167fddf252ad1be2c89b69c2b068fc378daa952ba7f163c4a11628f55a4df523b3ef60405160405180910390a45050565b61216184848484612ac5565b600e60009054906101000a900473ffffffffffffffffffffffffffffffffffffffff1673ffffffffffffffffffffffffffffffffffffffff168473ffffffffffffffffffffffffffffffffffffffff161480156121c057506000815114155b1561222d576020815114612209576040517f08c379a000000000000000000000000000000000000000000000000000000000815260040161220090614767565b60405180910390fd5b6000806020600036905003905080359150811561222a5761222984612557565b5b50505b50505050565b600061224182600001612b21565b9050919050565b600061225382611ee9565b612292576040517f08c379a000000000000000000000000000000000000000000000000000000000815260040161228990614747565b60405180910390fd5b600061229d83610e70565b90508073ffffffffffffffffffffffffffffffffffffffff168473ffffffffffffffffffffffffffffffffffffffff16148061230c57508373ffffffffffffffffffffffffffffffffffffffff166122f4846106b6565b73ffffffffffffffffffffffffffffffffffffffff16145b8061231d575061231c81856119f5565b5b91505092915050565b8273ffffffffffffffffffffffffffffffffffffffff1661234682610e70565b73ffffffffffffffffffffffffffffffffffffffff161461239c576040517f08c379a000000000000000000000000000000000000000000000000000000000815260040161239390614867565b60405180910390fd5b600073ffffffffffffffffffffffffffffffffffffffff168273ffffffffffffffffffffffffffffffffffffffff16141561240c576040517f08c379a000000000000000000000000000000000000000000000000000000000815260040161240390614707565b60405180910390fd5b612417838383612a71565b612422600082611f0e565b61247381600160008673ffffffffffffffffffffffffffffffffffffffff1673ffffffffffffffffffffffffffffffffffffffff168152602001908152602001600020612b3290919063ffffffff16565b506124c581600160008573ffffffffffffffffffffffffffffffffffffffff1673ffffffffffffffffffffffffffffffffffffffff168152602001908152602001600020612a7690919063ffffffff16565b506124dc81836002612a909092919063ffffffff16565b50808273ffffffffffffffffffffffffffffffffffffffff168473ffffffffffffffffffffffffffffffffffffffff167fddf252ad1be2c89b69c2b068fc378daa952ba7f163c4a11628f55a4df523b3ef60405160405180910390a4505050565b600061254c8360000183612b4c565b60001c905092915050565b600061256282610e70565b90506000600d600084815260200190815260200160002060009054906101000a900473ffffffffffffffffffffffffffffffffffffffff1690506125a583612bb9565b6000600b60008373ffffffffffffffffffffffffffffffffffffffff1673ffffffffffffffffffffffffffffffffffffffff16815260200190815260200160002060009054906101000a900473ffffffffffffffffffffffffffffffffffffffff169050600073ffffffffffffffffffffffffffffffffffffffff168173ffffffffffffffffffffffffffffffffffffffff16146127465760008173ffffffffffffffffffffffffffffffffffffffff1663c637531c84876040518363ffffffff1660e01b815260040161267a929190614606565b602060405180830381600087803b15801561269457600080fd5b505af11580156126a8573d6000803e3d6000fd5b505050506040513d601f19601f820116820180604052508101906126cc919061397d565b90508273ffffffffffffffffffffffffffffffffffffffff1663f242432a30868460016040518563ffffffff1660e01b815260040161270e9493929190614564565b600060405180830381600087803b15801561272857600080fd5b505af115801561273c573d6000803e3d6000fd5b50505050506128aa565b600c60008373ffffffffffffffffffffffffffffffffffffffff1673ffffffffffffffffffffffffffffffffffffffff16815260200190815260200160002060009054906101000a900473ffffffffffffffffffffffffffffffffffffffff16905060008173ffffffffffffffffffffffffffffffffffffffff1663c637531c84876040518363ffffffff1660e01b81526004016127e5929190614606565b602060405180830381600087803b1580156127ff57600080fd5b505af1158015612813573d6000803e3d6000fd5b505050506040513d601f19601f82011682018060405250810190612837919061397d565b90508273ffffffffffffffffffffffffffffffffffffffff1663b88d4fde3086846040518463ffffffff1660e01b8152600401612876939291906145bc565b600060405180830381600087803b15801561289057600080fd5b505af11580156128a4573d6000803e3d6000fd5b50505050505b50505050565b6000806000806128c38660000186612cf3565b915091508160001c8160001c9350935050509250929050565b60006128ef846000018460001b84612d76565b60001c90509392505050565b600061290982600001612e07565b9050919050565b60606000821415612958576040518060400160405280600181526020017f30000000000000000000000000000000000000000000000000000000000000008152509050612a52565b600082905060005b60008214612982578080600101915050600a828161297a57fe5b049150612960565b60608167ffffffffffffffff8111801561299b57600080fd5b506040519080825280601f01601f1916602001820160405280156129ce5781602001600182028036833780820191505090505b50905060006001830390508593505b60008414612a4a57600a84816129ef57fe5b0660300160f81b82828060019003935081518110612a0957fe5b60200101907effffffffffffffffffffffffffffffffffffffffffffffffffffffffffffff1916908160001a905350600a8481612a4257fe5b0493506129dd565b819450505050505b919050565b6000612a69836000018360001b612e18565b905092915050565b505050565b6000612a88836000018360001b612e3b565b905092915050565b6000612abc846000018460001b8473ffffffffffffffffffffffffffffffffffffffff1660001b612eab565b90509392505050565b612ad0848484612326565b612adc84848484612f87565b612b1b576040517f08c379a0000000000000000000000000000000000000000000000000000000008152600401612b12906146a7565b60405180910390fd5b50505050565b600081600001805490509050919050565b6000612b44836000018360001b6130eb565b905092915050565b600081836000018054905011612b97576040517f08c379a0000000000000000000000000000000000000000000000000000000008152600401612b8e90614687565b60405180910390fd5b826000018281548110612ba657fe5b9060005260206000200154905092915050565b6000612bc482610e70565b9050612bd281600084612a71565b612bdd600083611f0e565b60006008600084815260200190815260200160002080546001816001161561010002031660029004905014612c2c57600860008381526020019081526020016000206000612c2b9190613477565b5b612c7d82600160008473ffffffffffffffffffffffffffffffffffffffff1673ffffffffffffffffffffffffffffffffffffffff168152602001908152602001600020612b3290919063ffffffff16565b50612c928260026131d390919063ffffffff16565b5081600073ffffffffffffffffffffffffffffffffffffffff168273ffffffffffffffffffffffffffffffffffffffff167fddf252ad1be2c89b69c2b068fc378daa952ba7f163c4a11628f55a4df523b3ef60405160405180910390a45050565b60008082846000018054905011612d3f576040517f08c379a0000000000000000000000000000000000000000000000000000000008152600401612d36906147e7565b60405180910390fd5b6000846000018481548110612d5057fe5b906000526020600020906002020190508060000154816001015492509250509250929050565b60008084600101600085815260200190815260200160002054905060008114158390612dd8576040517f08c379a0000000000000000000000000000000000000000000000000000000008152600401612dcf9190614665565b60405180910390fd5b50846000016001820381548110612deb57fe5b9060005260206000209060020201600101549150509392505050565b600081600001805490509050919050565b600080836001016000848152602001908152602001600020541415905092915050565b6000612e4783836131ed565b612ea0578260000182908060018154018082558091505060019003906000526020600020016000909190919091505582600001805490508360010160008481526020019081526020016000208190555060019050612ea5565b600090505b92915050565b6000808460010160008581526020019081526020016000205490506000811415612f5257846000016040518060400160405280868152602001858152509080600181540180825580915050600190039060005260206000209060020201600090919091909150600082015181600001556020820151816001015550508460000180549050856001016000868152602001908152602001600020819055506001915050612f80565b82856000016001830381548110612f6557fe5b90600052602060002090600202016001018190555060009150505b9392505050565b6000612fa88473ffffffffffffffffffffffffffffffffffffffff16613210565b612fb557600190506130e3565b606061307c63150b7a0260e01b612fca611f06565b888787604051602401612fe0949392919061444d565b604051602081830303815290604052907bffffffffffffffffffffffffffffffffffffffffffffffffffffffff19166020820180517bffffffffffffffffffffffffffffffffffffffffffffffffffffffff8381831617835250505050604051806060016040528060328152602001614be5603291398773ffffffffffffffffffffffffffffffffffffffff166132239092919063ffffffff16565b9050600081806020019051810190613094919061392b565b905063150b7a0260e01b7bffffffffffffffffffffffffffffffffffffffffffffffffffffffff1916817bffffffffffffffffffffffffffffffffffffffffffffffffffffffff191614925050505b949350505050565b600080836001016000848152602001908152602001600020549050600081146131c7576000600182039050600060018660000180549050039050600086600001828154811061313657fe5b906000526020600020015490508087600001848154811061315357fe5b906000526020600020018190555060018301876001016000838152602001908152602001600020819055508660000180548061318b57fe5b600190038181906000526020600020016000905590558660010160008781526020019081526020016000206000905560019450505050506131cd565b60009150505b92915050565b60006131e5836000018360001b61323b565b905092915050565b600080836001016000848152602001908152602001600020541415905092915050565b600080823b905060008111915050919050565b60606132328484600085613354565b90509392505050565b60008083600101600084815260200190815260200160002054905060008114613348576000600182039050600060018660000180549050039050600086600001828154811061328657fe5b90600052602060002090600202019050808760000184815481106132a657fe5b90600052602060002090600202016000820154816000015560018201548160010155905050600183018760010160008360000154815260200190815260200160002081905550866000018054806132f957fe5b600190038181906000526020600020906002020160008082016000905560018201600090555050905586600101600087815260200190815260200160002060009055600194505050505061334e565b60009150505b92915050565b606061335f85613210565b61339e576040517f08c379a000000000000000000000000000000000000000000000000000000000815260040161339590614907565b60405180910390fd5b600060608673ffffffffffffffffffffffffffffffffffffffff1685876040516133c891906143f7565b60006040518083038185875af1925050503d8060008114613405576040519150601f19603f3d011682016040523d82523d6000602084013e61340a565b606091505b5091509150811561341f57809250505061346f565b6000815111156134325780518082602001fd5b836040517f08c379a00000000000000000000000000000000000000000000000000000000081526004016134669190614665565b60405180910390fd5b949350505050565b50805460018160011615610100020316600290046000825580601f1061349d57506134bc565b601f0160209004906000526020600020908101906134bb91906134bf565b5b50565b5b808211156134d85760008160009055506001016134c0565b5090565b6000813590506134eb81614b71565b92915050565b60008135905061350081614b88565b92915050565b60008135905061351581614b9f565b92915050565b60008151905061352a81614b9f565b92915050565b60008083601f84011261354257600080fd5b8235905067ffffffffffffffff81111561355b57600080fd5b60208301915083600182028301111561357357600080fd5b9250929050565b600082601f83011261358b57600080fd5b813561359e613599826149af565b614982565b915080825260208301602083018583830111156135ba57600080fd5b6135c5838284614b1e565b50505092915050565b6000813590506135dd81614bb6565b92915050565b6000813590506135f281614bcd565b92915050565b60008151905061360781614bcd565b92915050565b60006020828403121561361f57600080fd5b600061362d848285016134dc565b91505092915050565b6000806040838503121561364957600080fd5b6000613657858286016134dc565b9250506020613668858286016134dc565b9150509250929050565b60008060006060848603121561368757600080fd5b6000613695868287016134dc565b93505060206136a6868287016134dc565b92505060406136b7868287016135e3565b9150509250925092565b6000806000806000608086880312156136d957600080fd5b60006136e7888289016134dc565b95505060206136f8888289016134dc565b9450506040613709888289016135e3565b935050606086013567ffffffffffffffff81111561372657600080fd5b61373288828901613530565b92509250509295509295909350565b6000806000806080858703121561375757600080fd5b6000613765878288016134dc565b9450506020613776878288016134dc565b9350506040613787878288016135e3565b925050606085013567ffffffffffffffff8111156137a457600080fd5b6137b08782880161357a565b91505092959194509250565b60008060008060008060a087890312156137d557600080fd5b60006137e389828a016134dc565b96505060206137f489828a016134dc565b955050604061380589828a016135e3565b945050606061381689828a016135e3565b935050608087013567ffffffffffffffff81111561383357600080fd5b61383f89828a01613530565b92509250509295509295509295565b6000806040838503121561386157600080fd5b600061386f858286016134dc565b9250506020613880858286016134f1565b9150509250929050565b6000806040838503121561389d57600080fd5b60006138ab858286016134dc565b92505060206138bc858286016135ce565b9150509250929050565b600080604083850312156138d957600080fd5b60006138e7858286016134dc565b92505060206138f8858286016135e3565b9150509250929050565b60006020828403121561391457600080fd5b600061392284828501613506565b91505092915050565b60006020828403121561393d57600080fd5b600061394b8482850161351b565b91505092915050565b60006020828403121561396657600080fd5b6000613974848285016135e3565b91505092915050565b60006020828403121561398f57600080fd5b600061399d848285016135f8565b91505092915050565b6139af81614ad6565b82525050565b6139be81614a50565b82525050565b6139cd81614a3e565b82525050565b6139dc81614a62565b82525050565b6139eb81614a6e565b82525050565b60006139fc826149f0565b613a068185614a06565b9350613a16818560208601614b2d565b613a1f81614b60565b840191505092915050565b6000613a35826149f0565b613a3f8185614a17565b9350613a4f818560208601614b2d565b80840191505092915050565b613a6481614ae8565b82525050565b6000613a75826149fb565b613a7f8185614a22565b9350613a8f818560208601614b2d565b613a9881614b60565b840191505092915050565b6000613aae826149fb565b613ab88185614a33565b9350613ac8818560208601614b2d565b80840191505092915050565b600081546001811660008114613af15760018114613b1657613b5a565b607f6002830416613b028187614a33565b955060ff1983168652808601935050613b5a565b60028204613b248187614a33565b9550613b2f856149db565b60005b82811015613b5157815481890152600182019150602081019050613b32565b82880195505050505b505092915050565b6000613b6f602283614a22565b91507f456e756d657261626c655365743a20696e646578206f7574206f6620626f756e60008301527f64730000000000000000000000000000000000000000000000000000000000006020830152604082019050919050565b6000613bd5603283614a22565b91507f4552433732313a207472616e7366657220746f206e6f6e20455243373231526560008301527f63656976657220696d706c656d656e74657200000000000000000000000000006020830152604082019050919050565b6000613c3b602683614a22565b91507f4f776e61626c653a206e6577206f776e657220697320746865207a65726f206160008301527f64647265737300000000000000000000000000000000000000000000000000006020830152604082019050919050565b6000613ca1601c83614a22565b91507f4552433732313a20746f6b656e20616c7265616479206d696e746564000000006000830152602082019050919050565b6000613ce1602483614a22565b91507f4552433732313a207472616e7366657220746f20746865207a65726f2061646460008301527f72657373000000000000000000000000000000000000000000000000000000006020830152604082019050919050565b6000613d47601983614a22565b91507f4552433732313a20617070726f766520746f2063616c6c6572000000000000006000830152602082019050919050565b6000613d87602c83614a22565b91507f4552433732313a206f70657261746f7220717565727920666f72206e6f6e657860008301527f697374656e7420746f6b656e00000000000000000000000000000000000000006020830152604082019050919050565b6000613ded602a83614a22565b91507f53706163655368697073436f6e7665727465723a206d75737420636f6e74616960008301527f6e7320626f6f6c65616e000000000000000000000000000000000000000000006020830152604082019050919050565b6000613e53603883614a22565b91507f4552433732313a20617070726f76652063616c6c6572206973206e6f74206f7760008301527f6e6572206e6f7220617070726f76656420666f7220616c6c00000000000000006020830152604082019050919050565b6000613eb9602a83614a22565b91507f4552433732313a2062616c616e636520717565727920666f7220746865207a6560008301527f726f2061646472657373000000000000000000000000000000000000000000006020830152604082019050919050565b6000613f1f603583614a22565b91507f53706163655368697073436f6e7665727465723a2063616c6c6572206973206e60008301527f6f74206f776e6572206e6f7220617070726f76656400000000000000000000006020830152604082019050919050565b6000613f85602283614a22565b91507f456e756d657261626c654d61703a20696e646578206f7574206f6620626f756e60008301527f64730000000000000000000000000000000000000000000000000000000000006020830152604082019050919050565b6000613feb602083614a22565b91507f4552433732313a206d696e7420746f20746865207a65726f20616464726573736000830152602082019050919050565b600061402b602c83614a22565b91507f4552433732313a20617070726f76656420717565727920666f72206e6f6e657860008301527f697374656e7420746f6b656e00000000000000000000000000000000000000006020830152604082019050919050565b6000614091602083614a22565b91507f4f776e61626c653a2063616c6c6572206973206e6f7420746865206f776e65726000830152602082019050919050565b60006140d1602983614a22565b91507f4552433732313a207472616e73666572206f6620746f6b656e2074686174206960008301527f73206e6f74206f776e00000000000000000000000000000000000000000000006020830152604082019050919050565b6000614137602f83614a22565b91507f4552433732314d657461646174613a2055524920717565727920666f72206e6f60008301527f6e6578697374656e7420746f6b656e00000000000000000000000000000000006020830152604082019050919050565b600061419d602183614a22565b91507f4552433732313a20617070726f76616c20746f2063757272656e74206f776e6560008301527f72000000000000000000000000000000000000000000000000000000000000006020830152604082019050919050565b6000614203603783614a22565b91507f53706163655368697073436f6e7665727465723a2076616c756520677265617460008301527f6572207468616e2031206e6f7420737570706f727465640000000000000000006020830152604082019050919050565b6000614269600083614a06565b9150600082019050919050565b6000614283603183614a22565b91507f4552433732313a207472616e736665722063616c6c6572206973206e6f74206f60008301527f776e6572206e6f7220617070726f7665640000000000000000000000000000006020830152604082019050919050565b60006142e9601d83614a22565b91507f416464726573733a2063616c6c20746f206e6f6e2d636f6e74726163740000006000830152602082019050919050565b6000614329603583614a22565b91507f53706163655368697073436f6e7665727465723a20756e737570706f7274656460008301527f20636f6e7472616374206f7220746f6b656e20696400000000000000000000006020830152604082019050919050565b600061438f602f83614a22565b91507f53706163655368697073436f6e7665727465723a20616c72656164792073757060008301527f706f7274656420636f6e747261637400000000000000000000000000000000006020830152604082019050919050565b6143f181614acc565b82525050565b60006144038284613a2a565b915081905092915050565b600061441a8285613ad4565b91506144268284613aa3565b91508190509392505050565b600060208201905061444760008301846139c4565b92915050565b600060808201905061446260008301876139b5565b61446f60208301866139c4565b61447c60408301856143e8565b818103606083015261448e81846139f1565b905095945050505050565b600060a0820190506144ae60008301876139a6565b6144bb60208301866139c4565b6144c860408301856143e8565b6144d56060830184613a5b565b81810360808301526144e68161425c565b905095945050505050565b600060808201905061450660008301866139a6565b61451360208301856139c4565b61452060408301846143e8565b81810360608301526145318161425c565b9050949350505050565b600060408201905061455060008301856139a6565b61455d60208301846143e8565b9392505050565b600060a08201905061457960008301876139c4565b61458660208301866139c4565b61459360408301856143e8565b6145a06060830184613a5b565b81810360808301526145b18161425c565b905095945050505050565b60006080820190506145d160008301866139c4565b6145de60208301856139c4565b6145eb60408301846143e8565b81810360608301526145fc8161425c565b9050949350505050565b600060408201905061461b60008301856139c4565b61462860208301846143e8565b9392505050565b600060208201905061464460008301846139d3565b92915050565b600060208201905061465f60008301846139e2565b92915050565b6000602082019050818103600083015261467f8184613a6a565b905092915050565b600060208201905081810360008301526146a081613b62565b9050919050565b600060208201905081810360008301526146c081613bc8565b9050919050565b600060208201905081810360008301526146e081613c2e565b9050919050565b6000602082019050818103600083015261470081613c94565b9050919050565b6000602082019050818103600083015261472081613cd4565b9050919050565b6000602082019050818103600083015261474081613d3a565b9050919050565b6000602082019050818103600083015261476081613d7a565b9050919050565b6000602082019050818103600083015261478081613de0565b9050919050565b600060208201905081810360008301526147a081613e46565b9050919050565b600060208201905081810360008301526147c081613eac565b9050919050565b600060208201905081810360008301526147e081613f12565b9050919050565b6000602082019050818103600083015261480081613f78565b9050919050565b6000602082019050818103600083015261482081613fde565b9050919050565b600060208201905081810360008301526148408161401e565b9050919050565b6000602082019050818103600083015261486081614084565b9050919050565b60006020820190508181036000830152614880816140c4565b9050919050565b600060208201905081810360008301526148a08161412a565b9050919050565b600060208201905081810360008301526148c081614190565b9050919050565b600060208201905081810360008301526148e0816141f6565b9050919050565b6000602082019050818103600083015261490081614276565b9050919050565b60006020820190508181036000830152614920816142dc565b9050919050565b600060208201905081810360008301526149408161431c565b9050919050565b6000602082019050818103600083015261496081614382565b9050919050565b600060208201905061497c60008301846143e8565b92915050565b6000604051905081810181811067ffffffffffffffff821117156149a557600080fd5b8060405250919050565b600067ffffffffffffffff8211156149c657600080fd5b601f19601f8301169050602081019050919050565b60008190508160005260206000209050919050565b600081519050919050565b600081519050919050565b600082825260208201905092915050565b600081905092915050565b600082825260208201905092915050565b600081905092915050565b6000614a4982614aac565b9050919050565b6000614a5b82614aac565b9050919050565b60008115159050919050565b60007fffffffff0000000000000000000000000000000000000000000000000000000082169050919050565b6000614aa582614a3e565b9050919050565b600073ffffffffffffffffffffffffffffffffffffffff82169050919050565b6000819050919050565b6000614ae182614afa565b9050919050565b6000614af382614acc565b9050919050565b6000614b0582614b0c565b9050919050565b6000614b1782614aac565b9050919050565b82818337600083830152505050565b60005b83811015614b4b578082015181840152602081019050614b30565b83811115614b5a576000848401525b50505050565b6000601f19601f8301169050919050565b614b7a81614a3e565b8114614b8557600080fd5b50565b614b9181614a62565b8114614b9c57600080fd5b50565b614ba881614a6e565b8114614bb357600080fd5b50565b614bbf81614a9a565b8114614bca57600080fd5b50565b614bd681614acc565b8114614be157600080fd5b5056fe4552433732313a207472616e7366657220746f206e6f6e20455243373231526563656976657220696d706c656d656e7465724552433732313a206f776e657220717565727920666f72206e6f6e6578697374656e7420746f6b656ea2646970667358221220b1a5a901e576f4d9cc3e7c7b563298bb3b7a0106bc2c1240329b3126905b5c2864736f6c634300060c0033",
  "immutableReferences": {},
  "source": "// SPDX-License-Identifier: MIT\n\npragma solidity ^0.6.0;\npragma experimental ABIEncoderV2;\n\nimport \"@openzeppelin/contracts/token/ERC721/ERC721.sol\";\nimport \"@openzeppelin/contracts/token/ERC721/IERC721.sol\";\nimport \"@openzeppelin/contracts/token/ERC1155/IERC1155.sol\";\nimport \"@openzeppelin/contracts/access/Ownable.sol\";\nimport \"./TokenIdConverter/ITokenIdConverter.sol\";\n\ninterface ISpaceShipsConverter {\n    function onERC721Received(address, address from, uint256 tokenId, bytes calldata data) external returns(bytes4);\n    function onERC1155Received(address, address from, uint256 id, uint256 value, bytes calldata data) external returns(bytes4);\n\n    function convertERC721(address token, uint256 tokenId) external;\n    function convertERC1155(address token, uint256 tokenId) external;\n\n    function acceptNewERC721(address newERC1155, ITokenIdConverter converter) external;\n    function acceptNewERC1155(address newERC1155, ITokenIdConverter tokenIdConverter) external;\n\n    function burn(uint256 tokenId) external;\n\n    function modelIdFor(address token, uint256 tokenId) external view returns(uint256);\n}\n\ncontract SpaceShipsConverter is ISpaceShipsConverter, ERC721, Ownable {\n    mapping(address => ITokenIdConverter) private erc1155converters;\n    mapping(address => ITokenIdConverter) private erc721converters;\n\n    mapping(uint256 => address) private _convertedFrom;\n\n    address private _stakedSpaceShips;\n\n    constructor(address stakedSpaceShips) public ERC721(\"converted spaceships\", \"CSHIP\") {\n        _stakedSpaceShips = stakedSpaceShips;\n    }\n\n    function acceptNewERC721(address newERC1155, ITokenIdConverter tokenIdConverter) onlyOwner override external {\n        require(address(erc721converters[newERC1155]) == address(0), \"SpaceShipsConverter: already supported contract\");\n        erc721converters[newERC1155] = tokenIdConverter;\n    }\n\n    function acceptNewERC1155(address newERC1155, ITokenIdConverter tokenIdConverter) onlyOwner override external {\n        require(address(erc1155converters[newERC1155]) == address(0), \"SpaceShipsConverter: already supported contract\");\n        erc1155converters[newERC1155] = tokenIdConverter;\n    }\n\n    function convertERC721(address token, uint256 tokenId) override external {\n        IERC721(token).safeTransferFrom(\n            msg.sender,\n            address(this),\n            tokenId,\n            ''\n        );\n    }\n\n    function convertERC1155(address token, uint256 tokenId) override external {\n        IERC1155(token).safeTransferFrom(\n            msg.sender,\n            address(this),\n            tokenId,\n            1,\n            ''\n        );\n    }\n\n    function onERC1155Received(address, address from, uint256 id, uint256 value, bytes calldata data) override external returns(bytes4) {\n        ITokenIdConverter converter = erc1155converters[msg.sender];\n        require(address(converter) != address(0), \"SpaceShipsConverter: unsupported contract or token id\");\n\n        require(value == 1, \"SpaceShipsConverter: value greater than 1 not supported\");\n\n        uint256 newTokenId = converter.convertTokenId(msg.sender, id);\n        _convertedFrom[newTokenId] = msg.sender;\n        _mint(from, newTokenId);\n\n        if(data.length != 0) {\n            _safeTransfer(\n                from,\n                _stakedSpaceShips,\n                newTokenId,\n                data\n            );\n        }\n\n        return this.onERC1155Received.selector;\n    }\n\n    function onERC721Received(address, address from, uint256 id, bytes calldata data) override external returns(bytes4) {\n        ITokenIdConverter converter = erc721converters[msg.sender];\n        require(address(converter) != address(0), \"SpaceShipsConverter: unsupported contract or token id\");\n\n        uint256 newTokenId = converter.convertTokenId(msg.sender, id);\n        _convertedFrom[newTokenId] = msg.sender;\n        _mint(from, newTokenId);\n\n        if(data.length != 0) {\n            _safeTransfer(\n                from,\n                _stakedSpaceShips,\n                newTokenId,\n                data\n            );\n        }\n\n        return this.onERC721Received.selector;\n    }\n\n    function _safeTransfer(address from, address to, uint256 tokenId, bytes memory data) internal override {\n        super._safeTransfer(from, to, tokenId, data);\n        if (from == _stakedSpaceShips && data.length != 0) {\n            require(data.length == 32, \"SpaceShipsConverter: must contains boolean\");\n            bool burn;\n            uint256 _index = msg.data.length - 32;\n            assembly {burn := calldataload(_index)}\n\n            if(burn) {\n                _burn(tokenId);\n            }\n        }\n    }\n\n    function burn(uint256 newTokenId) override external {\n        require(_isApprovedOrOwner(_msgSender(), newTokenId), \"SpaceShipsConverter: caller is not owner nor approved\");\n        _burn(newTokenId);\n    }\n\n    function modelIdFor(address token, uint256 tokenId) override external view returns(uint256) {\n        ITokenIdConverter converter = erc1155converters[token];\n        if(address(converter) == address(0)) {\n            converter = erc721converters[token];\n        }\n        require(address(converter) != address(0), \"SpaceShipsConverter: unsupported contract or token id\");\n\n        return converter.modelIdFor(token, tokenId);\n    }\n\n    function _burn(uint256 newTokenId) override internal {\n        address tokenOwner = ownerOf(newTokenId);\n        address token = _convertedFrom[newTokenId];\n\n        super._burn(newTokenId);\n\n        ITokenIdConverter converter = erc1155converters[token];\n        if(address(converter) != address(0)) {\n            uint256 tokenId = converter.rollback(token, newTokenId);\n            IERC1155(token).safeTransferFrom(\n                address(this),\n                tokenOwner,\n                tokenId,\n                1,\n                ''\n            );\n        } else {\n            converter = erc721converters[token];\n            uint256 tokenId = converter.rollback(token, newTokenId);\n            IERC721(token).safeTransferFrom(\n                address(this),\n                tokenOwner,\n                tokenId,\n                ''\n            );\n        }\n    }\n}\n",
  "sourcePath": "/Users/fred/Documents/projets/cometh-renting-contract/contracts/Test/StakedSpaceShips/SpaceShipsConverter.sol",
  "compiler": {
    "name": "solc",
    "version": "0.6.12+commit.27d51765.Emscripten.clang"
  },
  "schemaVersion": "3.3.3",
  "updatedAt": "2021-03-23T10:20:55.826Z",
  "devdoc": {
    "kind": "dev",
    "methods": {
      "approve(address,uint256)": {
        "details": "See {IERC721-approve}."
      },
      "balanceOf(address)": {
        "details": "See {IERC721-balanceOf}."
      },
      "baseURI()": {
        "details": "Returns the base URI set via {_setBaseURI}. This will be automatically added as a prefix in {tokenURI} to each token's URI, or to the token ID if no specific URI is set for that token ID."
      },
      "getApproved(uint256)": {
        "details": "See {IERC721-getApproved}."
      },
      "isApprovedForAll(address,address)": {
        "details": "See {IERC721-isApprovedForAll}."
      },
      "name()": {
        "details": "See {IERC721Metadata-name}."
      },
      "owner()": {
        "details": "Returns the address of the current owner."
      },
      "ownerOf(uint256)": {
        "details": "See {IERC721-ownerOf}."
      },
      "renounceOwnership()": {
        "details": "Leaves the contract without owner. It will not be possible to call `onlyOwner` functions anymore. Can only be called by the current owner. NOTE: Renouncing ownership will leave the contract without an owner, thereby removing any functionality that is only available to the owner."
      },
      "safeTransferFrom(address,address,uint256)": {
        "details": "See {IERC721-safeTransferFrom}."
      },
      "safeTransferFrom(address,address,uint256,bytes)": {
        "details": "See {IERC721-safeTransferFrom}."
      },
      "setApprovalForAll(address,bool)": {
        "details": "See {IERC721-setApprovalForAll}."
      },
      "supportsInterface(bytes4)": {
        "details": "See {IERC165-supportsInterface}. Time complexity O(1), guaranteed to always use less than 30 000 gas."
      },
      "symbol()": {
        "details": "See {IERC721Metadata-symbol}."
      },
      "tokenByIndex(uint256)": {
        "details": "See {IERC721Enumerable-tokenByIndex}."
      },
      "tokenOfOwnerByIndex(address,uint256)": {
        "details": "See {IERC721Enumerable-tokenOfOwnerByIndex}."
      },
      "tokenURI(uint256)": {
        "details": "See {IERC721Metadata-tokenURI}."
      },
      "totalSupply()": {
        "details": "See {IERC721Enumerable-totalSupply}."
      },
      "transferFrom(address,address,uint256)": {
        "details": "See {IERC721-transferFrom}."
      },
      "transferOwnership(address)": {
        "details": "Transfers ownership of the contract to a new account (`newOwner`). Can only be called by the current owner."
      }
    },
    "version": 1
  },
  "userdoc": {
    "kind": "user",
    "methods": {},
    "version": 1
  }
}