{
  "contractName": "StakedSpaceShips",
  "abi": [
    {
      "inputs": [
        {
          "internalType": "string",
          "name": "uri",
          "type": "string"
        },
        {
          "internalType": "address",
          "name": "spaceshipsContract",
          "type": "address"
        }
      ],
      "stateMutability": "nonpayable",
      "type": "constructor"
    },
    {
      "anonymous": false,
      "inputs": [
        {
          "indexed": true,
          "internalType": "address",
          "name": "owner",
          "type": "address"
        },
        {
          "indexed": true,
          "internalType": "address",
          "name": "approved",
          "type": "address"
        },
        {
          "indexed": true,
          "internalType": "uint256",
          "name": "tokenId",
          "type": "uint256"
        }
      ],
      "name": "Approval",
      "type": "event"
    },
    {
      "anonymous": false,
      "inputs": [
        {
          "indexed": true,
          "internalType": "address",
          "name": "owner",
          "type": "address"
        },
        {
          "indexed": true,
          "internalType": "address",
          "name": "operator",
          "type": "address"
        },
        {
          "indexed": false,
          "internalType": "bool",
          "name": "approved",
          "type": "bool"
        }
      ],
      "name": "ApprovalForAll",
      "type": "event"
    },
    {
      "anonymous": false,
      "inputs": [
        {
          "indexed": true,
          "internalType": "uint256",
          "name": "gameId",
          "type": "uint256"
        },
        {
          "indexed": true,
          "internalType": "uint256",
          "name": "tokenId",
          "type": "uint256"
        }
      ],
      "name": "EnterGame",
      "type": "event"
    },
    {
      "anonymous": false,
      "inputs": [
        {
          "indexed": true,
          "internalType": "uint256",
          "name": "gameId",
          "type": "uint256"
        },
        {
          "indexed": true,
          "internalType": "uint256",
          "name": "tokenId",
          "type": "uint256"
        }
      ],
      "name": "LeaveGame",
      "type": "event"
    },
    {
      "anonymous": false,
      "inputs": [
        {
          "indexed": true,
          "internalType": "address",
          "name": "previousOwner",
          "type": "address"
        },
        {
          "indexed": true,
          "internalType": "address",
          "name": "newOwner",
          "type": "address"
        }
      ],
      "name": "OwnershipTransferred",
      "type": "event"
    },
    {
      "anonymous": false,
      "inputs": [
        {
          "indexed": true,
          "internalType": "address",
          "name": "from",
          "type": "address"
        },
        {
          "indexed": true,
          "internalType": "address",
          "name": "to",
          "type": "address"
        },
        {
          "indexed": true,
          "internalType": "uint256",
          "name": "tokenId",
          "type": "uint256"
        }
      ],
      "name": "Transfer",
      "type": "event"
    },
    {
      "inputs": [],
      "name": "ID_TO_MODEL",
      "outputs": [
        {
          "internalType": "uint32",
          "name": "",
          "type": "uint32"
        }
      ],
      "stateMutability": "view",
      "type": "function"
    },
    {
      "inputs": [
        {
          "internalType": "address",
          "name": "to",
          "type": "address"
        },
        {
          "internalType": "uint256",
          "name": "tokenId",
          "type": "uint256"
        }
      ],
      "name": "approve",
      "outputs": [],
      "stateMutability": "nonpayable",
      "type": "function"
    },
    {
      "inputs": [
        {
          "internalType": "address",
          "name": "owner",
          "type": "address"
        }
      ],
      "name": "balanceOf",
      "outputs": [
        {
          "internalType": "uint256",
          "name": "",
          "type": "uint256"
        }
      ],
      "stateMutability": "view",
      "type": "function"
    },
    {
      "inputs": [],
      "name": "baseURI",
      "outputs": [
        {
          "internalType": "string",
          "name": "",
          "type": "string"
        }
      ],
      "stateMutability": "view",
      "type": "function"
    },
    {
      "inputs": [
        {
          "internalType": "uint256",
          "name": "tokenId",
          "type": "uint256"
        },
        {
          "internalType": "bytes",
          "name": "data",
          "type": "bytes"
        }
      ],
      "name": "exit",
      "outputs": [],
      "stateMutability": "nonpayable",
      "type": "function"
    },
    {
      "inputs": [],
      "name": "games",
      "outputs": [
        {
          "internalType": "address[]",
          "name": "",
          "type": "address[]"
        }
      ],
      "stateMutability": "view",
      "type": "function"
    },
    {
      "inputs": [],
      "name": "gamesIds",
      "outputs": [
        {
          "internalType": "uint256[]",
          "name": "",
          "type": "uint256[]"
        }
      ],
      "stateMutability": "view",
      "type": "function"
    },
    {
      "inputs": [
        {
          "internalType": "uint256",
          "name": "tokenId",
          "type": "uint256"
        }
      ],
      "name": "getApproved",
      "outputs": [
        {
          "internalType": "address",
          "name": "",
          "type": "address"
        }
      ],
      "stateMutability": "view",
      "type": "function"
    },
    {
      "inputs": [
        {
          "internalType": "uint256",
          "name": "",
          "type": "uint256"
        }
      ],
      "name": "inGame",
      "outputs": [
        {
          "internalType": "uint256",
          "name": "",
          "type": "uint256"
        }
      ],
      "stateMutability": "view",
      "type": "function"
    },
    {
      "inputs": [
        {
          "internalType": "address",
          "name": "owner",
          "type": "address"
        },
        {
          "internalType": "address",
          "name": "operator",
          "type": "address"
        }
      ],
      "name": "isApprovedForAll",
      "outputs": [
        {
          "internalType": "bool",
          "name": "",
          "type": "bool"
        }
      ],
      "stateMutability": "view",
      "type": "function"
    },
    {
      "inputs": [],
      "name": "name",
      "outputs": [
        {
          "internalType": "string",
          "name": "",
          "type": "string"
        }
      ],
      "stateMutability": "view",
      "type": "function"
    },
    {
      "inputs": [
        {
          "internalType": "address",
          "name": "",
          "type": "address"
        },
        {
          "internalType": "address",
          "name": "from",
          "type": "address"
        },
        {
          "internalType": "uint256",
          "name": "tokenId",
          "type": "uint256"
        },
        {
          "internalType": "bytes",
          "name": "data",
          "type": "bytes"
        }
      ],
      "name": "onERC721Received",
      "outputs": [
        {
          "internalType": "bytes4",
          "name": "",
          "type": "bytes4"
        }
      ],
      "stateMutability": "nonpayable",
      "type": "function"
    },
    {
      "inputs": [],
      "name": "owner",
      "outputs": [
        {
          "internalType": "address",
          "name": "",
          "type": "address"
        }
      ],
      "stateMutability": "view",
      "type": "function"
    },
    {
      "inputs": [
        {
          "internalType": "uint256",
          "name": "tokenId",
          "type": "uint256"
        }
      ],
      "name": "ownerOf",
      "outputs": [
        {
          "internalType": "address",
          "name": "",
          "type": "address"
        }
      ],
      "stateMutability": "view",
      "type": "function"
    },
    {
      "inputs": [],
      "name": "renounceOwnership",
      "outputs": [],
      "stateMutability": "nonpayable",
      "type": "function"
    },
    {
      "inputs": [
        {
          "internalType": "address",
          "name": "from",
          "type": "address"
        },
        {
          "internalType": "address",
          "name": "to",
          "type": "address"
        },
        {
          "internalType": "uint256",
          "name": "tokenId",
          "type": "uint256"
        }
      ],
      "name": "safeTransferFrom",
      "outputs": [],
      "stateMutability": "nonpayable",
      "type": "function"
    },
    {
      "inputs": [
        {
          "internalType": "address",
          "name": "from",
          "type": "address"
        },
        {
          "internalType": "address",
          "name": "to",
          "type": "address"
        },
        {
          "internalType": "uint256",
          "name": "tokenId",
          "type": "uint256"
        },
        {
          "internalType": "bytes",
          "name": "_data",
          "type": "bytes"
        }
      ],
      "name": "safeTransferFrom",
      "outputs": [],
      "stateMutability": "nonpayable",
      "type": "function"
    },
    {
      "inputs": [
        {
          "internalType": "address",
          "name": "operator",
          "type": "address"
        },
        {
          "internalType": "bool",
          "name": "approved",
          "type": "bool"
        }
      ],
      "name": "setApprovalForAll",
      "outputs": [],
      "stateMutability": "nonpayable",
      "type": "function"
    },
    {
      "inputs": [
        {
          "internalType": "address",
          "name": "token",
          "type": "address"
        },
        {
          "internalType": "uint256",
          "name": "tokenId",
          "type": "uint256"
        },
        {
          "internalType": "uint256",
          "name": "gameId",
          "type": "uint256"
        }
      ],
      "name": "stake",
      "outputs": [],
      "stateMutability": "nonpayable",
      "type": "function"
    },
    {
      "inputs": [
        {
          "internalType": "bytes4",
          "name": "interfaceId",
          "type": "bytes4"
        }
      ],
      "name": "supportsInterface",
      "outputs": [
        {
          "internalType": "bool",
          "name": "",
          "type": "bool"
        }
      ],
      "stateMutability": "view",
      "type": "function"
    },
    {
      "inputs": [],
      "name": "symbol",
      "outputs": [
        {
          "internalType": "string",
          "name": "",
          "type": "string"
        }
      ],
      "stateMutability": "view",
      "type": "function"
    },
    {
      "inputs": [
        {
          "internalType": "uint256",
          "name": "index",
          "type": "uint256"
        }
      ],
      "name": "tokenByIndex",
      "outputs": [
        {
          "internalType": "uint256",
          "name": "",
          "type": "uint256"
        }
      ],
      "stateMutability": "view",
      "type": "function"
    },
    {
      "inputs": [
        {
          "internalType": "address",
          "name": "owner",
          "type": "address"
        },
        {
          "internalType": "uint256",
          "name": "index",
          "type": "uint256"
        }
      ],
      "name": "tokenOfOwnerByIndex",
      "outputs": [
        {
          "internalType": "uint256",
          "name": "",
          "type": "uint256"
        }
      ],
      "stateMutability": "view",
      "type": "function"
    },
    {
      "inputs": [
        {
          "internalType": "uint256",
          "name": "tokenId",
          "type": "uint256"
        }
      ],
      "name": "tokenURI",
      "outputs": [
        {
          "internalType": "string",
          "name": "",
          "type": "string"
        }
      ],
      "stateMutability": "view",
      "type": "function"
    },
    {
      "inputs": [],
      "name": "totalSupply",
      "outputs": [
        {
          "internalType": "uint256",
          "name": "",
          "type": "uint256"
        }
      ],
      "stateMutability": "view",
      "type": "function"
    },
    {
      "inputs": [
        {
          "internalType": "address",
          "name": "from",
          "type": "address"
        },
        {
          "internalType": "address",
          "name": "to",
          "type": "address"
        },
        {
          "internalType": "uint256",
          "name": "tokenId",
          "type": "uint256"
        }
      ],
      "name": "transferFrom",
      "outputs": [],
      "stateMutability": "nonpayable",
      "type": "function"
    },
    {
      "inputs": [
        {
          "internalType": "address",
          "name": "newOwner",
          "type": "address"
        }
      ],
      "name": "transferOwnership",
      "outputs": [],
      "stateMutability": "nonpayable",
      "type": "function"
    },
    {
      "inputs": [
        {
          "internalType": "uint256",
          "name": "tokenId",
          "type": "uint256"
        },
        {
          "internalType": "bytes",
          "name": "data",
          "type": "bytes"
        }
      ],
      "name": "unstake",
      "outputs": [],
      "stateMutability": "nonpayable",
      "type": "function"
    },
    {
      "inputs": [
        {
          "internalType": "uint256",
          "name": "gameId",
          "type": "uint256"
        },
        {
          "internalType": "address",
          "name": "gameAddress",
          "type": "address"
        }
      ],
      "name": "updateGames",
      "outputs": [],
      "stateMutability": "nonpayable",
      "type": "function"
    },
    {
      "inputs": [
        {
          "internalType": "address",
          "name": "source",
          "type": "address"
        }
      ],
      "name": "updateSource",
      "outputs": [],
      "stateMutability": "nonpayable",
      "type": "function"
    },
    {
      "inputs": [
        {
          "internalType": "address",
          "name": "owner",
          "type": "address"
        }
      ],
      "name": "tokensOfOwner",
      "outputs": [
        {
          "internalType": "uint256[]",
          "name": "",
          "type": "uint256[]"
        }
      ],
      "stateMutability": "view",
      "type": "function"
    },
    {
      "inputs": [
        {
          "internalType": "uint256",
          "name": "gameId",
          "type": "uint256"
        },
        {
          "internalType": "uint256",
          "name": "tokenId",
          "type": "uint256"
        }
      ],
      "name": "enterGame",
      "outputs": [],
      "stateMutability": "nonpayable",
      "type": "function"
    },
    {
      "inputs": [
        {
          "internalType": "uint256",
          "name": "tokenId",
          "type": "uint256"
        }
      ],
      "name": "leaveGame",
      "outputs": [],
      "stateMutability": "nonpayable",
      "type": "function"
    }
  ],
  "bytecode": "0x60806040523480156200001157600080fd5b50604051620052b7380380620052b783398181016040528101906200003791906200075e565b6040518060400160405280601181526020017f7374616b656420737061636573686970730000000000000000000000000000008152506040518060400160405280600581526020017f5853484950000000000000000000000000000000000000000000000000000000815250620000bb6301ffc9a760e01b6200021260201b60201c565b8160069080519060200190620000d392919062000645565b508060079080519060200190620000ec92919062000645565b50620001056380ac58cd60e01b6200021260201b60201c565b6200011d635b5e139f60e01b6200021260201b60201c565b6200013563780e9d6360e01b6200021260201b60201c565b5050600062000149620002ea60201b60201c565b905080600a60006101000a81548173ffffffffffffffffffffffffffffffffffffffff021916908373ffffffffffffffffffffffffffffffffffffffff1602179055508073ffffffffffffffffffffffffffffffffffffffff16600073ffffffffffffffffffffffffffffffffffffffff167f8be0079c531659141344cd1fd0a4f28419497f9722a3daafe3b4186f6b6457e060405160405180910390a350620001f982620002f260201b60201c565b6200020a816200030e60201b60201c565b505062000970565b63ffffffff60e01b817bffffffffffffffffffffffffffffffffffffffffffffffffffffffff191614156200027e576040517f08c379a000000000000000000000000000000000000000000000000000000000815260040162000275906200083c565b60405180910390fd5b6001600080837bffffffffffffffffffffffffffffffffffffffffffffffffffffffff19167bffffffffffffffffffffffffffffffffffffffffffffffffffffffff1916815260200190815260200160002060006101000a81548160ff02191690831515021790555050565b600033905090565b80600990805190602001906200030a92919062000645565b5050565b6200031e620002ea60201b60201c565b73ffffffffffffffffffffffffffffffffffffffff16600a60009054906101000a900473ffffffffffffffffffffffffffffffffffffffff1673ffffffffffffffffffffffffffffffffffffffff1614620003b0576040517f08c379a0000000000000000000000000000000000000000000000000000000008152600401620003a7906200085e565b60405180910390fd5b620003cb8160136200041360201b62001bb41790919060201c565b15620003f357620003ec8160136200044b60201b62001be41790919060201c565b5062000410565b6200040e8160136200048360201b62001c141790919060201c565b505b50565b600062000443836000018373ffffffffffffffffffffffffffffffffffffffff1660001b620004bb60201b60201c565b905092915050565b60006200047b836000018373ffffffffffffffffffffffffffffffffffffffff1660001b620004de60201b60201c565b905092915050565b6000620004b3836000018373ffffffffffffffffffffffffffffffffffffffff1660001b620005cb60201b60201c565b905092915050565b600080836001016000848152602001908152602001600020541415905092915050565b60008083600101600084815260200190815260200160002054905060008114620005bf57600060018203905060006001866000018054905003905060008660000182815481106200052b57fe5b90600052602060002001549050808760000184815481106200054957fe5b90600052602060002001819055506001830187600101600083815260200190815260200160002081905550866000018054806200058257fe5b60019003818190600052602060002001600090559055866001016000878152602001908152602001600020600090556001945050505050620005c5565b60009150505b92915050565b6000620005df8383620004bb60201b60201c565b6200063a5782600001829080600181540180825580915050600190039060005260206000200160009091909190915055826000018054905083600101600084815260200190815260200160002081905550600190506200063f565b600090505b92915050565b828054600181600116156101000203166002900490600052602060002090601f016020900481019282601f106200068857805160ff1916838001178555620006b9565b82800160010185558215620006b9579182015b82811115620006b85782518255916020019190600101906200069b565b5b509050620006c89190620006cc565b5090565b5b80821115620006e7576000816000905550600101620006cd565b5090565b600081519050620006fc8162000956565b92915050565b600082601f8301126200071457600080fd5b81516200072b6200072582620008ae565b62000880565b915080825260208301602083018583830111156200074857600080fd5b6200075583828462000920565b50505092915050565b600080604083850312156200077257600080fd5b600083015167ffffffffffffffff8111156200078d57600080fd5b6200079b8582860162000702565b9250506020620007ae85828601620006eb565b9150509250929050565b6000620007c7601c83620008db565b91507f4552433136353a20696e76616c696420696e74657266616365206964000000006000830152602082019050919050565b600062000809602083620008db565b91507f4f776e61626c653a2063616c6c6572206973206e6f7420746865206f776e65726000830152602082019050919050565b600060208201905081810360008301526200085781620007b8565b9050919050565b600060208201905081810360008301526200087981620007fa565b9050919050565b6000604051905081810181811067ffffffffffffffff82111715620008a457600080fd5b8060405250919050565b600067ffffffffffffffff821115620008c657600080fd5b601f19601f8301169050602081019050919050565b600082825260208201905092915050565b6000620008f98262000900565b9050919050565b600073ffffffffffffffffffffffffffffffffffffffff82169050919050565b60005b838110156200094057808201518184015260208101905062000923565b8381111562000950576000848401525b50505050565b6200096181620008ec565b81146200096d57600080fd5b50565b61493780620009806000396000f3fe608060405234801561001057600080fd5b50600436106101fa5760003560e01c80636352211e1161011a578063a0fbc04b116100ad578063c8fd6ed01161007c578063c8fd6ed0146105c1578063e985e9c5146105dd578063f24bab651461060d578063f2fde38b14610629578063f9e0a1e814610645576101fa565b8063a0fbc04b1461053b578063a22cb46514610559578063b88d4fde14610575578063c87b56dd14610591576101fa565b80638462151c116100e95780638462151c146104b15780638da5cb5b146104e1578063955a015b146104ff57806395d89b411461051d576101fa565b80636352211e146104295780636c0360eb1461045957806370a0823114610477578063715018a6146104a7576101fa565b80631afdd9e511610192578063427c071611610161578063427c0716146103a557806342842e0e146103c157806343291e89146103dd5780634f6ccce7146103f9576101fa565b80631afdd9e51461032157806323b872dd1461033d5780632f745c59146103595780633feef58a14610389576101fa565b8063095ea7b3116101ce578063095ea7b31461029b5780630c51b88f146102b7578063150b7a02146102d357806318160ddd14610303576101fa565b8062bb9876146101ff57806301ffc9a71461021d57806306fdde031461024d578063081812fc1461026b575b600080fd5b610207610675565b60405161021491906145d8565b60405180910390f35b61023760048036038101906102329190613380565b61067c565b6040516102449190614245565b60405180910390f35b6102556106e3565b604051610262919061427b565b60405180910390f35b610285600480360381019061028091906133d2565b610785565b6040516102929190614100565b60405180910390f35b6102b560048036038101906102b091906132f5565b61080a565b005b6102d160048036038101906102cc9190613331565b610922565b005b6102ed60048036038101906102e891906131be565b6109f7565b6040516102fa9190614260565b60405180910390f35b61030b610b33565b60405161031891906145bd565b60405180910390f35b61033b600480360381019061033691906133fb565b610b44565b005b6103576004803603810190610352919061316f565b610c3a565b005b610373600480360381019061036e91906132f5565b610c9a565b60405161038091906145bd565b60405180910390f35b6103a3600480360381019061039e91906133d2565b610cf5565b005b6103bf60048036038101906103ba9190613437565b610d4a565b005b6103db60048036038101906103d6919061316f565b610dc8565b005b6103f760048036038101906103f2919061348f565b610de8565b005b610413600480360381019061040e91906133d2565b610e3f565b60405161042091906145bd565b60405180910390f35b610443600480360381019061043e91906133d2565b610e62565b6040516104509190614100565b60405180910390f35b610461610e99565b60405161046e919061427b565b60405180910390f35b610491600480360381019061048c919061310a565b610f3b565b60405161049e91906145bd565b60405180910390f35b6104af610ffa565b005b6104cb60048036038101906104c6919061310a565b611152565b6040516104d89190614223565b60405180910390f35b6104e96111f2565b6040516104f69190614100565b60405180910390f35b61050761121c565b6040516105149190614201565b60405180910390f35b6105256112f4565b604051610532919061427b565b60405180910390f35b610543611396565b6040516105509190614223565b60405180910390f35b610573600480360381019061056e91906132b9565b611441565b005b61058f600480360381019061058a919061323e565b6115c2565b005b6105ab60048036038101906105a691906133d2565b611624565b6040516105b8919061427b565b60405180910390f35b6105db60048036038101906105d69190613437565b6117af565b005b6105f760048036038101906105f29190613133565b61185e565b6040516106049190614245565b60405180910390f35b6106276004803603810190610622919061310a565b6118f2565b005b610643600480360381019061063e919061310a565b6119d5565b005b61065f600480360381019061065a91906133d2565b611b9c565b60405161066c91906145bd565b60405180910390f35b620f424081565b6000806000837bffffffffffffffffffffffffffffffffffffffffffffffffffffffff19167bffffffffffffffffffffffffffffffffffffffffffffffffffffffff1916815260200190815260200160002060009054906101000a900460ff169050919050565b606060068054600181600116156101000203166002900480601f01602080910402602001604051908101604052809291908181526020018280546001816001161561010002031660029004801561077b5780601f106107505761010080835404028352916020019161077b565b820191906000526020600020905b81548152906001019060200180831161075e57829003601f168201915b5050505050905090565b600061079082611c44565b6107cf576040517f08c379a00000000000000000000000000000000000000000000000000000000081526004016107c6906144bd565b60405180910390fd5b6004600083815260200190815260200160002060009054906101000a900473ffffffffffffffffffffffffffffffffffffffff169050919050565b600061081582610e62565b90508073ffffffffffffffffffffffffffffffffffffffff168373ffffffffffffffffffffffffffffffffffffffff161415610886576040517f08c379a000000000000000000000000000000000000000000000000000000000815260040161087d9061451d565b60405180910390fd5b8073ffffffffffffffffffffffffffffffffffffffff166108a5611c61565b73ffffffffffffffffffffffffffffffffffffffff1614806108d457506108d3816108ce611c61565b61185e565b5b610913576040517f08c379a000000000000000000000000000000000000000000000000000000000815260040161090a9061443d565b60405180910390fd5b61091d8383611c69565b505050565b606060405180602001604052806000815250905060008214610961578160405160200161094f91906140e5565b60405160208183030381529060405290505b8373ffffffffffffffffffffffffffffffffffffffff1663b88d4fde3330868660405160200161099191906145bd565b6040516020818303038152906040526040518563ffffffff1660e01b81526004016109bf9493929190614167565b600060405180830381600087803b1580156109d957600080fd5b505af11580156109ed573d6000803e3d6000fd5b5050505050505050565b6000610a0d336013611bb490919063ffffffff16565b610a4c576040517f08c379a0000000000000000000000000000000000000000000000000000000008152600401610a439061459d565b60405180910390fd5b610a568585611d22565b336015600086815260200190815260200160002060006101000a81548173ffffffffffffffffffffffffffffffffffffffff021916908373ffffffffffffffffffffffffffffffffffffffff16021790555060008383905014610b205760208383905014610af9576040517f08c379a0000000000000000000000000000000000000000000000000000000008152600401610af0906142fd565b60405180910390fd5b600080602060003690500390508035915060008214610b1d57610b1c8287611eb0565b5b50505b63150b7a0260e01b905095945050505050565b6000610b3f6002612021565b905090565b610b4c611c61565b73ffffffffffffffffffffffffffffffffffffffff16600a60009054906101000a900473ffffffffffffffffffffffffffffffffffffffff1673ffffffffffffffffffffffffffffffffffffffff1614610bdb576040517f08c379a0000000000000000000000000000000000000000000000000000000008152600401610bd2906144dd565b60405180910390fd5b6000821415610c1f576040517f08c379a0000000000000000000000000000000000000000000000000000000008152600401610c16906143dd565b60405180910390fd5b610c358282600b6120369092919063ffffffff16565b505050565b610c4b610c45611c61565b8261206b565b610c8a576040517f08c379a0000000000000000000000000000000000000000000000000000000008152600401610c819061453d565b60405180910390fd5b610c95838383612149565b505050565b6000610ced82600160008673ffffffffffffffffffffffffffffffffffffffff1673ffffffffffffffffffffffffffffffffffffffff16815260200190815260200160002061218490919063ffffffff16565b905092915050565b610cff338261206b565b610d3e576040517f08c379a0000000000000000000000000000000000000000000000000000000008152600401610d359061441d565b60405180910390fd5b610d478161219e565b50565b610d54338461206b565b610d93576040517f08c379a0000000000000000000000000000000000000000000000000000000008152600401610d8a9061441d565b60405180910390fd5b6000600d60008581526020019081526020016000205414610db857610db7836121aa565b5b610dc38383836122cf565b505050565b610de3838383604051806020016040528060008152506115c2565b505050565b610df2338261206b565b610e31576040517f08c379a0000000000000000000000000000000000000000000000000000000008152600401610e289061441d565b60405180910390fd5b610e3b8282612397565b5050565b600080610e568360026123a590919063ffffffff16565b50905080915050919050565b6000610e92826040518060600160405280602981526020016148d96029913960026123d19092919063ffffffff16565b9050919050565b606060098054600181600116156101000203166002900480601f016020809104026020016040519081016040528092919081815260200182805460018160011615610100020316600290048015610f315780601f10610f0657610100808354040283529160200191610f31565b820191906000526020600020905b815481529060010190602001808311610f1457829003601f168201915b5050505050905090565b60008073ffffffffffffffffffffffffffffffffffffffff168273ffffffffffffffffffffffffffffffffffffffff161415610fac576040517f08c379a0000000000000000000000000000000000000000000000000000000008152600401610fa39061445d565b60405180910390fd5b610ff3600160008473ffffffffffffffffffffffffffffffffffffffff1673ffffffffffffffffffffffffffffffffffffffff1681526020019081526020016000206123f0565b9050919050565b611002611c61565b73ffffffffffffffffffffffffffffffffffffffff16600a60009054906101000a900473ffffffffffffffffffffffffffffffffffffffff1673ffffffffffffffffffffffffffffffffffffffff1614611091576040517f08c379a0000000000000000000000000000000000000000000000000000000008152600401611088906144dd565b60405180910390fd5b600073ffffffffffffffffffffffffffffffffffffffff16600a60009054906101000a900473ffffffffffffffffffffffffffffffffffffffff1673ffffffffffffffffffffffffffffffffffffffff167f8be0079c531659141344cd1fd0a4f28419497f9722a3daafe3b4186f6b6457e060405160405180910390a36000600a60006101000a81548173ffffffffffffffffffffffffffffffffffffffff021916908373ffffffffffffffffffffffffffffffffffffffff160217905550565b60608061115e83610f3b565b67ffffffffffffffff8111801561117457600080fd5b506040519080825280602002602001820160405280156111a35781602001602082028036833780820191505090505b50905060005b6111b284610f3b565b8110156111e8576111c38482610c9a565b8282815181106111cf57fe5b60200260200101818152505080806001019150506111a9565b5080915050919050565b6000600a60009054906101000a900473ffffffffffffffffffffffffffffffffffffffff16905090565b606080611229600b612021565b67ffffffffffffffff8111801561123f57600080fd5b5060405190808252806020026020018201604052801561126e5781602001602082028036833780820191505090505b50905060005b61127e600b612021565b8110156112ec5761129981600b6123a590919063ffffffff16565b90508282815181106112a757fe5b602002602001018173ffffffffffffffffffffffffffffffffffffffff1673ffffffffffffffffffffffffffffffffffffffff16815250508080600101915050611274565b508091505090565b606060078054600181600116156101000203166002900480601f01602080910402602001604051908101604052809291908181526020018280546001816001161561010002031660029004801561138c5780601f106113615761010080835404028352916020019161138c565b820191906000526020600020905b81548152906001019060200180831161136f57829003601f168201915b5050505050905090565b6060806113a3600b612021565b67ffffffffffffffff811180156113b957600080fd5b506040519080825280602002602001820160405280156113e85781602001602082028036833780820191505090505b50905060005b6113f8600b612021565b8110156114395761141381600b6123a590919063ffffffff16565b5082828151811061142057fe5b60200260200101818152505080806001019150506113ee565b508091505090565b611449611c61565b73ffffffffffffffffffffffffffffffffffffffff168273ffffffffffffffffffffffffffffffffffffffff1614156114b7576040517f08c379a00000000000000000000000000000000000000000000000000000000081526004016114ae906143bd565b60405180910390fd5b80600560006114c4611c61565b73ffffffffffffffffffffffffffffffffffffffff1673ffffffffffffffffffffffffffffffffffffffff16815260200190815260200160002060008473ffffffffffffffffffffffffffffffffffffffff1673ffffffffffffffffffffffffffffffffffffffff16815260200190815260200160002060006101000a81548160ff0219169083151502179055508173ffffffffffffffffffffffffffffffffffffffff16611571611c61565b73ffffffffffffffffffffffffffffffffffffffff167f17307eab39ab6107e8899845ad3d59bd9653f200f220920489ca2b5937696c31836040516115b69190614245565b60405180910390a35050565b6115d36115cd611c61565b8361206b565b611612576040517f08c379a00000000000000000000000000000000000000000000000000000000081526004016116099061453d565b60405180910390fd5b61161e84848484612405565b50505050565b606061162f82611c44565b61166e576040517f08c379a0000000000000000000000000000000000000000000000000000000008152600401611665906144fd565b60405180910390fd5b6060600860008481526020019081526020016000208054600181600116156101000203166002900480601f0160208091040260200160405190810160405280929190818152602001828054600181600116156101000203166002900480156117175780601f106116ec57610100808354040283529160200191611717565b820191906000526020600020905b8154815290600101906020018083116116fa57829003601f168201915b5050505050905060006009805460018160011615610100020316600290049050141561174657809150506117aa565b60008151111561177b576009816040516020016117649291906140c1565b6040516020818303038152906040529150506117aa565b600961178684612461565b6040516020016117979291906140c1565b6040516020818303038152906040529150505b919050565b6117b9338461206b565b6117f8576040517f08c379a00000000000000000000000000000000000000000000000000000000081526004016117ef9061441d565b60405180910390fd5b6000600d6000858152602001908152602001600020541461184e576040517f08c379a00000000000000000000000000000000000000000000000000000000081526004016118459061457d565b60405180910390fd5b6118598383836122cf565b505050565b6000600560008473ffffffffffffffffffffffffffffffffffffffff1673ffffffffffffffffffffffffffffffffffffffff16815260200190815260200160002060008373ffffffffffffffffffffffffffffffffffffffff1673ffffffffffffffffffffffffffffffffffffffff16815260200190815260200160002060009054906101000a900460ff16905092915050565b6118fa611c61565b73ffffffffffffffffffffffffffffffffffffffff16600a60009054906101000a900473ffffffffffffffffffffffffffffffffffffffff1673ffffffffffffffffffffffffffffffffffffffff1614611989576040517f08c379a0000000000000000000000000000000000000000000000000000000008152600401611980906144dd565b60405180910390fd5b61199d816013611bb490919063ffffffff16565b156119bc576119b6816013611be490919063ffffffff16565b506119d2565b6119d0816013611c1490919063ffffffff16565b505b50565b6119dd611c61565b73ffffffffffffffffffffffffffffffffffffffff16600a60009054906101000a900473ffffffffffffffffffffffffffffffffffffffff1673ffffffffffffffffffffffffffffffffffffffff1614611a6c576040517f08c379a0000000000000000000000000000000000000000000000000000000008152600401611a63906144dd565b60405180910390fd5b600073ffffffffffffffffffffffffffffffffffffffff168173ffffffffffffffffffffffffffffffffffffffff161415611adc576040517f08c379a0000000000000000000000000000000000000000000000000000000008152600401611ad39061435d565b60405180910390fd5b8073ffffffffffffffffffffffffffffffffffffffff16600a60009054906101000a900473ffffffffffffffffffffffffffffffffffffffff1673ffffffffffffffffffffffffffffffffffffffff167f8be0079c531659141344cd1fd0a4f28419497f9722a3daafe3b4186f6b6457e060405160405180910390a380600a60006101000a81548173ffffffffffffffffffffffffffffffffffffffff021916908373ffffffffffffffffffffffffffffffffffffffff16021790555050565b600d6020528060005260406000206000915090505481565b6000611bdc836000018373ffffffffffffffffffffffffffffffffffffffff1660001b6125a8565b905092915050565b6000611c0c836000018373ffffffffffffffffffffffffffffffffffffffff1660001b6125cb565b905092915050565b6000611c3c836000018373ffffffffffffffffffffffffffffffffffffffff1660001b6126b3565b905092915050565b6000611c5a82600261272390919063ffffffff16565b9050919050565b600033905090565b816004600083815260200190815260200160002060006101000a81548173ffffffffffffffffffffffffffffffffffffffff021916908373ffffffffffffffffffffffffffffffffffffffff160217905550808273ffffffffffffffffffffffffffffffffffffffff16611cdc83610e62565b73ffffffffffffffffffffffffffffffffffffffff167f8c5be1e5ebec7d5bd14f71427d1e84f3dd0314c0f7b2291e5b200ac8c7c3b92560405160405180910390a45050565b600073ffffffffffffffffffffffffffffffffffffffff168273ffffffffffffffffffffffffffffffffffffffff161415611d92576040517f08c379a0000000000000000000000000000000000000000000000000000000008152600401611d899061449d565b60405180910390fd5b611d9b81611c44565b15611ddb576040517f08c379a0000000000000000000000000000000000000000000000000000000008152600401611dd29061437d565b60405180910390fd5b611de76000838361273d565b611e3881600160008573ffffffffffffffffffffffffffffffffffffffff1673ffffffffffffffffffffffffffffffffffffffff16815260200190815260200160002061274290919063ffffffff16565b50611e4f818360026120369092919063ffffffff16565b50808273ffffffffffffffffffffffffffffffffffffffff16600073ffffffffffffffffffffffffffffffffffffffff167fddf252ad1be2c89b69c2b068fc378daa952ba7f163c4a11628f55a4df523b3ef60405160405180910390a45050565b611ec482600b61272390919063ffffffff16565b611f03576040517f08c379a0000000000000000000000000000000000000000000000000000000008152600401611efa906142dd565b60405180910390fd5b6000600d60008381526020019081526020016000205414611f59576040517f08c379a0000000000000000000000000000000000000000000000000000000008152600401611f509061439d565b60405180910390fd5b611f6d82600b61275c90919063ffffffff16565b73ffffffffffffffffffffffffffffffffffffffff1663a59f3e0c826040518263ffffffff1660e01b8152600401611fa591906145bd565b600060405180830381600087803b158015611fbf57600080fd5b505af1158015611fd3573d6000803e3d6000fd5b5050505081600d60008381526020019081526020016000208190555080827fa3110ccbe1f878dcc4becba50d23605c129ea4c2d269edc2a36d5183c6302d9560405160405180910390a35050565b600061202f82600001612779565b9050919050565b6000612062846000018460001b8473ffffffffffffffffffffffffffffffffffffffff1660001b61278a565b90509392505050565b600061207682611c44565b6120b5576040517f08c379a00000000000000000000000000000000000000000000000000000000081526004016120ac906143fd565b60405180910390fd5b60006120c083610e62565b90508073ffffffffffffffffffffffffffffffffffffffff168473ffffffffffffffffffffffffffffffffffffffff16148061212f57508373ffffffffffffffffffffffffffffffffffffffff1661211784610785565b73ffffffffffffffffffffffffffffffffffffffff16145b80612140575061213f818561185e565b5b91505092915050565b6040517f08c379a000000000000000000000000000000000000000000000000000000000815260040161217b906142bd565b60405180910390fd5b60006121938360000183612866565b60001c905092915050565b6121a7816121aa565b50565b6000600d60008381526020019081526020016000205490506000811415612206576040517f08c379a00000000000000000000000000000000000000000000000000000000081526004016121fd9061431d565b60405180910390fd5b61221a81600b61275c90919063ffffffff16565b73ffffffffffffffffffffffffffffffffffffffff166367dfd4c9836040518263ffffffff1660e01b815260040161225291906145bd565b600060405180830381600087803b15801561226c57600080fd5b505af1158015612280573d6000803e3d6000fd5b505050506000600d60008481526020019081526020016000208190555081817fd70513967a3c66e4c3704126fdd0b75dcc6a81c8986a8acbc4c5d6109dfab15f60405160405180910390a35050565b60006122da84610e62565b90506122e5846128d3565b60006015600086815260200190815260200160002060009054906101000a900473ffffffffffffffffffffffffffffffffffffffff1690508073ffffffffffffffffffffffffffffffffffffffff1663b88d4fde30848888886040518663ffffffff1660e01b815260040161235e9594939291906141b3565b600060405180830381600087803b15801561237857600080fd5b505af115801561238c573d6000803e3d6000fd5b505050505050505050565b6123a18282611eb0565b5050565b6000806000806123b88660000186612a0d565b915091508160001c8160001c9350935050509250929050565b60006123e4846000018460001b84612a90565b60001c90509392505050565b60006123fe82600001612b21565b9050919050565b612410848484612149565b61241c84848484612b32565b61245b576040517f08c379a00000000000000000000000000000000000000000000000000000000081526004016124529061433d565b60405180910390fd5b50505050565b606060008214156124a9576040518060400160405280600181526020017f300000000000000000000000000000000000000000000000000000000000000081525090506125a3565b600082905060005b600082146124d3578080600101915050600a82816124cb57fe5b0491506124b1565b60608167ffffffffffffffff811180156124ec57600080fd5b506040519080825280601f01601f19166020018201604052801561251f5781602001600182028036833780820191505090505b50905060006001830390508593505b6000841461259b57600a848161254057fe5b0660300160f81b8282806001900393508151811061255a57fe5b60200101907effffffffffffffffffffffffffffffffffffffffffffffffffffffffffffff1916908160001a905350600a848161259357fe5b04935061252e565b819450505050505b919050565b600080836001016000848152602001908152602001600020541415905092915050565b600080836001016000848152602001908152602001600020549050600081146126a7576000600182039050600060018660000180549050039050600086600001828154811061261657fe5b906000526020600020015490508087600001848154811061263357fe5b906000526020600020018190555060018301876001016000838152602001908152602001600020819055508660000180548061266b57fe5b600190038181906000526020600020016000905590558660010160008781526020019081526020016000206000905560019450505050506126ad565b60009150505b92915050565b60006126bf83836125a8565b61271857826000018290806001815401808255809150506001900390600052602060002001600090919091909150558260000180549050836001016000848152602001908152602001600020819055506001905061271d565b600090505b92915050565b6000612735836000018360001b612c96565b905092915050565b505050565b6000612754836000018360001b6126b3565b905092915050565b600061276e836000018360001b612cb9565b60001c905092915050565b600081600001805490509050919050565b60008084600101600085815260200190815260200160002054905060008114156128315784600001604051806040016040528086815260200185815250908060018154018082558091505060019003906000526020600020906002020160009091909190915060008201518160000155602082015181600101555050846000018054905085600101600086815260200190815260200160002081905550600191505061285f565b8285600001600183038154811061284457fe5b90600052602060002090600202016001018190555060009150505b9392505050565b6000818360000180549050116128b1576040517f08c379a00000000000000000000000000000000000000000000000000000000081526004016128a89061429d565b60405180910390fd5b8260000182815481106128c057fe5b9060005260206000200154905092915050565b60006128de82610e62565b90506128ec8160008461273d565b6128f7600083611c69565b60006008600084815260200190815260200160002080546001816001161561010002031660029004905014612946576008600083815260200190815260200160002060006129459190612f9e565b5b61299782600160008473ffffffffffffffffffffffffffffffffffffffff1673ffffffffffffffffffffffffffffffffffffffff168152602001908152602001600020612d0390919063ffffffff16565b506129ac826002612d1d90919063ffffffff16565b5081600073ffffffffffffffffffffffffffffffffffffffff168273ffffffffffffffffffffffffffffffffffffffff167fddf252ad1be2c89b69c2b068fc378daa952ba7f163c4a11628f55a4df523b3ef60405160405180910390a45050565b60008082846000018054905011612a59576040517f08c379a0000000000000000000000000000000000000000000000000000000008152600401612a509061447d565b60405180910390fd5b6000846000018481548110612a6a57fe5b906000526020600020906002020190508060000154816001015492509250509250929050565b60008084600101600085815260200190815260200160002054905060008114158390612af2576040517f08c379a0000000000000000000000000000000000000000000000000000000008152600401612ae9919061427b565b60405180910390fd5b50846000016001820381548110612b0557fe5b9060005260206000209060020201600101549150509392505050565b600081600001805490509050919050565b6000612b538473ffffffffffffffffffffffffffffffffffffffff16612d37565b612b605760019050612c8e565b6060612c2763150b7a0260e01b612b75611c61565b888787604051602401612b8b949392919061411b565b604051602081830303815290604052907bffffffffffffffffffffffffffffffffffffffffffffffffffffffff19166020820180517bffffffffffffffffffffffffffffffffffffffffffffffffffffffff83818316178352505050506040518060600160405280603281526020016148a7603291398773ffffffffffffffffffffffffffffffffffffffff16612d4a9092919063ffffffff16565b9050600081806020019051810190612c3f91906133a9565b905063150b7a0260e01b7bffffffffffffffffffffffffffffffffffffffffffffffffffffffff1916817bffffffffffffffffffffffffffffffffffffffffffffffffffffffff191614925050505b949350505050565b600080836001016000848152602001908152602001600020541415905092915050565b6000612cfb83836040518060400160405280601e81526020017f456e756d657261626c654d61703a206e6f6e6578697374656e74206b65790000815250612a90565b905092915050565b6000612d15836000018360001b6125cb565b905092915050565b6000612d2f836000018360001b612d62565b905092915050565b600080823b905060008111915050919050565b6060612d598484600085612e7b565b90509392505050565b60008083600101600084815260200190815260200160002054905060008114612e6f5760006001820390506000600186600001805490500390506000866000018281548110612dad57fe5b9060005260206000209060020201905080876000018481548110612dcd57fe5b9060005260206000209060020201600082015481600001556001820154816001015590505060018301876001016000836000015481526020019081526020016000208190555086600001805480612e2057fe5b6001900381819060005260206000209060020201600080820160009055600182016000905550509055866001016000878152602001908152602001600020600090556001945050505050612e75565b60009150505b92915050565b6060612e8685612d37565b612ec5576040517f08c379a0000000000000000000000000000000000000000000000000000000008152600401612ebc9061455d565b60405180910390fd5b600060608673ffffffffffffffffffffffffffffffffffffffff168587604051612eef91906140aa565b60006040518083038185875af1925050503d8060008114612f2c576040519150601f19603f3d011682016040523d82523d6000602084013e612f31565b606091505b50915091508115612f46578092505050612f96565b600081511115612f595780518082602001fd5b836040517f08c379a0000000000000000000000000000000000000000000000000000000008152600401612f8d919061427b565b60405180910390fd5b949350505050565b50805460018160011615610100020316600290046000825580601f10612fc45750612fe3565b601f016020900490600052602060002090810190612fe29190612fe6565b5b50565b5b80821115612fff576000816000905550600101612fe7565b5090565b6000813590506130128161484a565b92915050565b60008135905061302781614861565b92915050565b60008135905061303c81614878565b92915050565b60008151905061305181614878565b92915050565b60008083601f84011261306957600080fd5b8235905067ffffffffffffffff81111561308257600080fd5b60208301915083600182028301111561309a57600080fd5b9250929050565b600082601f8301126130b257600080fd5b81356130c56130c082614620565b6145f3565b915080825260208301602083018583830111156130e157600080fd5b6130ec8382846147ed565b50505092915050565b6000813590506131048161488f565b92915050565b60006020828403121561311c57600080fd5b600061312a84828501613003565b91505092915050565b6000806040838503121561314657600080fd5b600061315485828601613003565b925050602061316585828601613003565b9150509250929050565b60008060006060848603121561318457600080fd5b600061319286828701613003565b93505060206131a386828701613003565b92505060406131b4868287016130f5565b9150509250925092565b6000806000806000608086880312156131d657600080fd5b60006131e488828901613003565b95505060206131f588828901613003565b9450506040613206888289016130f5565b935050606086013567ffffffffffffffff81111561322357600080fd5b61322f88828901613057565b92509250509295509295909350565b6000806000806080858703121561325457600080fd5b600061326287828801613003565b945050602061327387828801613003565b9350506040613284878288016130f5565b925050606085013567ffffffffffffffff8111156132a157600080fd5b6132ad878288016130a1565b91505092959194509250565b600080604083850312156132cc57600080fd5b60006132da85828601613003565b92505060206132eb85828601613018565b9150509250929050565b6000806040838503121561330857600080fd5b600061331685828601613003565b9250506020613327858286016130f5565b9150509250929050565b60008060006060848603121561334657600080fd5b600061335486828701613003565b9350506020613365868287016130f5565b9250506040613376868287016130f5565b9150509250925092565b60006020828403121561339257600080fd5b60006133a08482850161302d565b91505092915050565b6000602082840312156133bb57600080fd5b60006133c984828501613042565b91505092915050565b6000602082840312156133e457600080fd5b60006133f2848285016130f5565b91505092915050565b6000806040838503121561340e57600080fd5b600061341c858286016130f5565b925050602061342d85828601613003565b9150509250929050565b60008060006040848603121561344c57600080fd5b600061345a868287016130f5565b935050602084013567ffffffffffffffff81111561347757600080fd5b61348386828701613057565b92509250509250925092565b600080604083850312156134a257600080fd5b60006134b0858286016130f5565b92505060206134c1858286016130f5565b9150509250929050565b60006134d78383613519565b60208301905092915050565b60006134ef8383614066565b60208301905092915050565b613504816147b7565b82525050565b61351381614733565b82525050565b61352281614721565b82525050565b61353181614721565b82525050565b600061354282614681565b61354c81856146c7565b93506135578361464c565b8060005b8381101561358857815161356f88826134cb565b975061357a836146ad565b92505060018101905061355b565b5085935050505092915050565b60006135a08261468c565b6135aa81856146d8565b93506135b58361465c565b8060005b838110156135e65781516135cd88826134e3565b97506135d8836146ba565b9250506001810190506135b9565b5085935050505092915050565b6135fc81614745565b82525050565b61360b81614751565b82525050565b600061361d83856146e9565b935061362a8385846147ed565b61363383614839565b840190509392505050565b600061364982614697565b61365381856146e9565b93506136638185602086016147fc565b61366c81614839565b840191505092915050565b600061368282614697565b61368c81856146fa565b935061369c8185602086016147fc565b80840191505092915050565b60006136b3826146a2565b6136bd8185614705565b93506136cd8185602086016147fc565b6136d681614839565b840191505092915050565b60006136ec826146a2565b6136f68185614716565b93506137068185602086016147fc565b80840191505092915050565b60008154600181166000811461372f576001811461375457613798565b607f60028304166137408187614716565b955060ff1983168652808601935050613798565b600282046137628187614716565b955061376d8561466c565b60005b8281101561378f57815481890152600182019150602081019050613770565b82880195505050505b505092915050565b60006137ad602283614705565b91507f456e756d657261626c655365743a20696e646578206f7574206f6620626f756e60008301527f64730000000000000000000000000000000000000000000000000000000000006020830152604082019050919050565b6000613813602883614705565b91507f5374616b6564537061636553686970733a2063616e6e6f74207472616e73666560008301527f72206d696e6572730000000000000000000000000000000000000000000000006020830152604082019050919050565b6000613879601d83614705565b91507f5374616b6564537061636553686970733a20756e6b6e6f772067616d650000006000830152602082019050919050565b60006138b9602783614705565b91507f5374616b6564537061636553686970733a206d75737420636f6e7461696e732060008301527f67616d65206964000000000000000000000000000000000000000000000000006020830152604082019050919050565b600061391f602883614705565b91507f5374616b6564537061636553686970733a20746f6b656e206973206e6f74206960008301527f6e20612067616d650000000000000000000000000000000000000000000000006020830152604082019050919050565b6000613985603283614705565b91507f4552433732313a207472616e7366657220746f206e6f6e20455243373231526560008301527f63656976657220696d706c656d656e74657200000000000000000000000000006020830152604082019050919050565b60006139eb602683614705565b91507f4f776e61626c653a206e6577206f776e657220697320746865207a65726f206160008301527f64647265737300000000000000000000000000000000000000000000000000006020830152604082019050919050565b6000613a51601c83614705565b91507f4552433732313a20746f6b656e20616c7265616479206d696e746564000000006000830152602082019050919050565b6000613a91602983614705565b91507f5374616b6564537061636553686970733a20746f6b656e20616c72656164792060008301527f696e20612067616d6500000000000000000000000000000000000000000000006020830152604082019050919050565b6000613af7601983614705565b91507f4552433732313a20617070726f766520746f2063616c6c6572000000000000006000830152602082019050919050565b6000613b37601183614705565b91507f63616e6e6f74207573652067616d6520300000000000000000000000000000006000830152602082019050919050565b6000613b77602c83614705565b91507f4552433732313a206f70657261746f7220717565727920666f72206e6f6e657860008301527f697374656e7420746f6b656e00000000000000000000000000000000000000006020830152604082019050919050565b6000613bdd602b83614705565b91507f5374616b6564537061636553686970733a2072657175697265206f776e65722060008301527f6f7220617070726f7665640000000000000000000000000000000000000000006020830152604082019050919050565b6000613c43603883614705565b91507f4552433732313a20617070726f76652063616c6c6572206973206e6f74206f7760008301527f6e6572206e6f7220617070726f76656420666f7220616c6c00000000000000006020830152604082019050919050565b6000613ca9602a83614705565b91507f4552433732313a2062616c616e636520717565727920666f7220746865207a6560008301527f726f2061646472657373000000000000000000000000000000000000000000006020830152604082019050919050565b6000613d0f602283614705565b91507f456e756d657261626c654d61703a20696e646578206f7574206f6620626f756e60008301527f64730000000000000000000000000000000000000000000000000000000000006020830152604082019050919050565b6000613d75602083614705565b91507f4552433732313a206d696e7420746f20746865207a65726f20616464726573736000830152602082019050919050565b6000613db5602c83614705565b91507f4552433732313a20617070726f76656420717565727920666f72206e6f6e657860008301527f697374656e7420746f6b656e00000000000000000000000000000000000000006020830152604082019050919050565b6000613e1b602083614705565b91507f4f776e61626c653a2063616c6c6572206973206e6f7420746865206f776e65726000830152602082019050919050565b6000613e5b602f83614705565b91507f4552433732314d657461646174613a2055524920717565727920666f72206e6f60008301527f6e6578697374656e7420746f6b656e00000000000000000000000000000000006020830152604082019050919050565b6000613ec1602183614705565b91507f4552433732313a20617070726f76616c20746f2063757272656e74206f776e6560008301527f72000000000000000000000000000000000000000000000000000000000000006020830152604082019050919050565b6000613f27603183614705565b91507f4552433732313a207472616e736665722063616c6c6572206973206e6f74206f60008301527f776e6572206e6f7220617070726f7665640000000000000000000000000000006020830152604082019050919050565b6000613f8d601d83614705565b91507f416464726573733a2063616c6c20746f206e6f6e2d636f6e74726163740000006000830152602082019050919050565b6000613fcd602483614705565b91507f5374616b6564537061636553686970733a20746f6b656e20697320696e20612060008301527f67616d65000000000000000000000000000000000000000000000000000000006020830152604082019050919050565b6000614033602083614705565b91507f5374616b6564537061636553686970733a20756e6b6e6f776e20736f757263656000830152602082019050919050565b61406f8161479d565b82525050565b61407e8161479d565b82525050565b6140956140908261479d565b61482f565b82525050565b6140a4816147a7565b82525050565b60006140b68284613677565b915081905092915050565b60006140cd8285613712565b91506140d982846136e1565b91508190509392505050565b60006140f18284614084565b60208201915081905092915050565b60006020820190506141156000830184613528565b92915050565b6000608082019050614130600083018761350a565b61413d6020830186613528565b61414a6040830185614075565b818103606083015261415c818461363e565b905095945050505050565b600060808201905061417c60008301876134fb565b6141896020830186613528565b6141966040830185614075565b81810360608301526141a8818461363e565b905095945050505050565b60006080820190506141c86000830188613528565b6141d56020830187613528565b6141e26040830186614075565b81810360608301526141f5818486613611565b90509695505050505050565b6000602082019050818103600083015261421b8184613537565b905092915050565b6000602082019050818103600083015261423d8184613595565b905092915050565b600060208201905061425a60008301846135f3565b92915050565b60006020820190506142756000830184613602565b92915050565b6000602082019050818103600083015261429581846136a8565b905092915050565b600060208201905081810360008301526142b6816137a0565b9050919050565b600060208201905081810360008301526142d681613806565b9050919050565b600060208201905081810360008301526142f68161386c565b9050919050565b60006020820190508181036000830152614316816138ac565b9050919050565b6000602082019050818103600083015261433681613912565b9050919050565b6000602082019050818103600083015261435681613978565b9050919050565b60006020820190508181036000830152614376816139de565b9050919050565b6000602082019050818103600083015261439681613a44565b9050919050565b600060208201905081810360008301526143b681613a84565b9050919050565b600060208201905081810360008301526143d681613aea565b9050919050565b600060208201905081810360008301526143f681613b2a565b9050919050565b6000602082019050818103600083015261441681613b6a565b9050919050565b6000602082019050818103600083015261443681613bd0565b9050919050565b6000602082019050818103600083015261445681613c36565b9050919050565b6000602082019050818103600083015261447681613c9c565b9050919050565b6000602082019050818103600083015261449681613d02565b9050919050565b600060208201905081810360008301526144b681613d68565b9050919050565b600060208201905081810360008301526144d681613da8565b9050919050565b600060208201905081810360008301526144f681613e0e565b9050919050565b6000602082019050818103600083015261451681613e4e565b9050919050565b6000602082019050818103600083015261453681613eb4565b9050919050565b6000602082019050818103600083015261455681613f1a565b9050919050565b6000602082019050818103600083015261457681613f80565b9050919050565b6000602082019050818103600083015261459681613fc0565b9050919050565b600060208201905081810360008301526145b681614026565b9050919050565b60006020820190506145d26000830184614075565b92915050565b60006020820190506145ed600083018461409b565b92915050565b6000604051905081810181811067ffffffffffffffff8211171561461657600080fd5b8060405250919050565b600067ffffffffffffffff82111561463757600080fd5b601f19601f8301169050602081019050919050565b6000819050602082019050919050565b6000819050602082019050919050565b60008190508160005260206000209050919050565b600081519050919050565b600081519050919050565b600081519050919050565b600081519050919050565b6000602082019050919050565b6000602082019050919050565b600082825260208201905092915050565b600082825260208201905092915050565b600082825260208201905092915050565b600081905092915050565b600082825260208201905092915050565b600081905092915050565b600061472c8261477d565b9050919050565b600061473e8261477d565b9050919050565b60008115159050919050565b60007fffffffff0000000000000000000000000000000000000000000000000000000082169050919050565b600073ffffffffffffffffffffffffffffffffffffffff82169050919050565b6000819050919050565b600063ffffffff82169050919050565b60006147c2826147c9565b9050919050565b60006147d4826147db565b9050919050565b60006147e68261477d565b9050919050565b82818337600083830152505050565b60005b8381101561481a5780820151818401526020810190506147ff565b83811115614829576000848401525b50505050565b6000819050919050565b6000601f19601f8301169050919050565b61485381614721565b811461485e57600080fd5b50565b61486a81614745565b811461487557600080fd5b50565b61488181614751565b811461488c57600080fd5b50565b6148988161479d565b81146148a357600080fd5b5056fe4552433732313a207472616e7366657220746f206e6f6e20455243373231526563656976657220696d706c656d656e7465724552433732313a206f776e657220717565727920666f72206e6f6e6578697374656e7420746f6b656ea2646970667358221220d104ee460779fb084fc9cfdd496f6ae801dc5387da4df9c02551a420aa93d50864736f6c634300060c0033",
  "immutableReferences": {},
  "source": "// SPDX-License-Identifier: MIT\n\npragma solidity ^0.6.0;\npragma experimental ABIEncoderV2;\n\nimport \"@openzeppelin/contracts/token/ERC721/ERC721.sol\";\nimport \"@openzeppelin/contracts/access/Ownable.sol\";\nimport \"./GamesGateway.sol\";\nimport \"./TokenReceiver.sol\";\n\ninterface IStakedSpaceShips is IGamesGateway, ITokenReceiver {\n    function tokensOfOwner(address owner) external view returns (uint256[] memory);\n}\n\ncontract StakedSpaceShips is GamesGateway, TokenReceiver, IStakedSpaceShips {\n\n    constructor(string memory uri, address spaceshipsContract) public ERC721(\"staked spaceships\", \"XSHIP\") {\n        _setBaseURI(uri);\n        updateSource(spaceshipsContract);\n    }\n\n    function tokensOfOwner(address owner) override external view returns (uint256[] memory) {\n        uint256[] memory result = new uint256[](balanceOf(owner));\n        for(uint256 i = 0; i < balanceOf(owner); i++) {\n            result[i] = tokenOfOwnerByIndex(owner, i);\n        }\n        return result;\n    }\n\n    function enterGame(uint256 gameId, uint256 tokenId) override(GamesGateway, IGamesGateway) public {\n        require(_isApprovedOrOwner(msg.sender, tokenId), \"StakedSpaceShips: require owner or approved\");\n        super.enterGame(gameId, tokenId);\n    }\n\n    function leaveGame(uint256 tokenId) override(GamesGateway, IGamesGateway) public {\n        require(_isApprovedOrOwner(msg.sender, tokenId), \"StakedSpaceShips: require owner or approved\");\n        super.leaveGame(tokenId);\n    }\n\n    function _transfer(address, address, uint256) internal override {\n        revert(\"StakedSpaceShips: cannot transfer miners\");\n    }\n}\n",
  "sourcePath": "/Users/fred/Documents/projets/cometh-renting-contract/contracts/Test/StakedSpaceShips/StakedSpaceShips.sol",
  "compiler": {
    "name": "solc",
    "version": "0.6.12+commit.27d51765.Emscripten.clang"
  },
  "schemaVersion": "3.3.3",
  "updatedAt": "2021-03-23T10:20:55.832Z",
  "devdoc": {
    "kind": "dev",
    "methods": {
      "approve(address,uint256)": {
        "details": "See {IERC721-approve}."
      },
      "balanceOf(address)": {
        "details": "See {IERC721-balanceOf}."
      },
      "baseURI()": {
        "details": "Returns the base URI set via {_setBaseURI}. This will be automatically added as a prefix in {tokenURI} to each token's URI, or to the token ID if no specific URI is set for that token ID."
      },
      "getApproved(uint256)": {
        "details": "See {IERC721-getApproved}."
      },
      "isApprovedForAll(address,address)": {
        "details": "See {IERC721-isApprovedForAll}."
      },
      "name()": {
        "details": "See {IERC721Metadata-name}."
      },
      "owner()": {
        "details": "Returns the address of the current owner."
      },
      "ownerOf(uint256)": {
        "details": "See {IERC721-ownerOf}."
      },
      "renounceOwnership()": {
        "details": "Leaves the contract without owner. It will not be possible to call `onlyOwner` functions anymore. Can only be called by the current owner. NOTE: Renouncing ownership will leave the contract without an owner, thereby removing any functionality that is only available to the owner."
      },
      "safeTransferFrom(address,address,uint256)": {
        "details": "See {IERC721-safeTransferFrom}."
      },
      "safeTransferFrom(address,address,uint256,bytes)": {
        "details": "See {IERC721-safeTransferFrom}."
      },
      "setApprovalForAll(address,bool)": {
        "details": "See {IERC721-setApprovalForAll}."
      },
      "supportsInterface(bytes4)": {
        "details": "See {IERC165-supportsInterface}. Time complexity O(1), guaranteed to always use less than 30 000 gas."
      },
      "symbol()": {
        "details": "See {IERC721Metadata-symbol}."
      },
      "tokenByIndex(uint256)": {
        "details": "See {IERC721Enumerable-tokenByIndex}."
      },
      "tokenOfOwnerByIndex(address,uint256)": {
        "details": "See {IERC721Enumerable-tokenOfOwnerByIndex}."
      },
      "tokenURI(uint256)": {
        "details": "See {IERC721Metadata-tokenURI}."
      },
      "totalSupply()": {
        "details": "See {IERC721Enumerable-totalSupply}."
      },
      "transferFrom(address,address,uint256)": {
        "details": "See {IERC721-transferFrom}."
      },
      "transferOwnership(address)": {
        "details": "Transfers ownership of the contract to a new account (`newOwner`). Can only be called by the current owner."
      }
    },
    "version": 1
  },
  "userdoc": {
    "kind": "user",
    "methods": {},
    "version": 1
  }
}